{
  "_format": "hh-sol-artifact-1",
  "contractName": "Controller",
  "sourceName": "contracts/Controller.sol",
  "abi": [
    {
      "anonymous": false,
      "inputs": [
        {
          "indexed": false,
          "internalType": "address",
          "name": "executorAddress",
          "type": "address"
        },
        {
          "indexed": false,
          "internalType": "bool",
          "name": "newPermit",
          "type": "bool"
        }
      ],
      "name": "ExecutorPermitChanged",
      "type": "event"
    },
    {
      "anonymous": false,
      "inputs": [
        {
          "indexed": false,
          "internalType": "address",
          "name": "newFujiAdmin",
          "type": "address"
        }
      ],
      "name": "FujiAdminChanged",
      "type": "event"
    },
    {
      "anonymous": false,
      "inputs": [
        {
          "indexed": true,
          "internalType": "address",
          "name": "owner",
          "type": "address"
        }
      ],
      "name": "NewPendingOwner",
      "type": "event"
    },
    {
      "anonymous": false,
      "inputs": [
        {
          "indexed": true,
          "internalType": "address",
          "name": "previousOwner",
          "type": "address"
        },
        {
          "indexed": true,
          "internalType": "address",
          "name": "newOwner",
          "type": "address"
        }
      ],
      "name": "OwnershipTransferred",
      "type": "event"
    },
    {
      "inputs": [],
      "name": "cancelTransferOwnership",
      "outputs": [],
      "stateMutability": "nonpayable",
      "type": "function"
    },
    {
      "inputs": [],
      "name": "claimOwnership",
      "outputs": [],
      "stateMutability": "nonpayable",
      "type": "function"
    },
    {
      "inputs": [
        {
          "internalType": "address",
          "name": "_vaultAddr",
          "type": "address"
        },
        {
          "internalType": "address",
          "name": "_newProvider",
          "type": "address"
        },
        {
          "internalType": "uint8",
          "name": "_flashNum",
          "type": "uint8"
        }
      ],
      "name": "doRefinancing",
      "outputs": [],
      "stateMutability": "nonpayable",
      "type": "function"
    },
    {
      "inputs": [
        {
          "internalType": "address",
          "name": "",
          "type": "address"
        }
      ],
      "name": "isExecutor",
      "outputs": [
        {
          "internalType": "bool",
          "name": "",
          "type": "bool"
        }
      ],
      "stateMutability": "view",
      "type": "function"
    },
    {
      "inputs": [],
      "name": "owner",
      "outputs": [
        {
          "internalType": "address",
          "name": "",
          "type": "address"
        }
      ],
      "stateMutability": "view",
      "type": "function"
    },
    {
      "inputs": [],
      "name": "pendingOwner",
      "outputs": [
        {
          "internalType": "address",
          "name": "",
          "type": "address"
        }
      ],
      "stateMutability": "view",
      "type": "function"
    },
    {
      "inputs": [],
      "name": "renounceOwnership",
      "outputs": [],
      "stateMutability": "nonpayable",
      "type": "function"
    },
    {
      "inputs": [
        {
          "internalType": "address[]",
          "name": "_executors",
          "type": "address[]"
        },
        {
          "internalType": "bool",
          "name": "_isExecutor",
          "type": "bool"
        }
      ],
      "name": "setExecutors",
      "outputs": [],
      "stateMutability": "nonpayable",
      "type": "function"
    },
    {
      "inputs": [
        {
          "internalType": "address",
          "name": "_newFujiAdmin",
          "type": "address"
        }
      ],
      "name": "setFujiAdmin",
      "outputs": [],
      "stateMutability": "nonpayable",
      "type": "function"
    },
    {
      "inputs": [
        {
          "internalType": "address",
          "name": "newOwner",
          "type": "address"
        }
      ],
      "name": "transferOwnership",
      "outputs": [],
      "stateMutability": "nonpayable",
      "type": "function"
    }
  ],
  "bytecode": "0x608060405234801561001057600080fd5b50600080546001600160a01b031916339081178255604051909182917f8be0079c531659141344cd1fd0a4f28419497f9722a3daafe3b4186f6b6457e0908290a350611250806100616000396000f3fe608060405234801561001057600080fd5b50600436106100be5760003560e01c806391c1543211610076578063debfda301161005b578063debfda3014610140578063e30c397814610173578063f2fde38b14610186576100be565b806391c154321461012557806392fede0014610138576100be565b8063715018a6116100a7578063715018a6146100e05780638bb5d813146100e85780638da5cb5b146100fb576100be565b806337016ad1146100c35780634e71e0c8146100d8575b600080fd5b6100d66100d1366004610ecf565b610199565b005b6100d6610372565b6100d661040c565b6100d66100f6366004610e80565b6104b0565b6000546001600160a01b03165b6040516001600160a01b0390911681526020015b60405180910390f35b6100d6610133366004610e41565b610b35565b6100d6610c25565b61016361014e366004610e41565b60036020526000908152604090205460ff1681565b604051901515815260200161011c565b600154610108906001600160a01b031681565b6100d6610194366004610e41565b610cd1565b6000546001600160a01b031633146101f85760405162461bcd60e51b815260206004820181905260248201527f4f776e61626c653a2063616c6c6572206973206e6f7420746865206f776e657260448201526064015b60405180910390fd5b60005b8281101561036c57600084848381811061022557634e487b7160e01b600052603260045260246000fd5b905060200201602081019061023a9190610e41565b6001600160a01b031614156040518060400160405280600381526020016203133360ec1b8152509061027f5760405162461bcd60e51b81526004016101ef9190611098565b5081600360008686858181106102a557634e487b7160e01b600052603260045260246000fd5b90506020020160208101906102ba9190610e41565b6001600160a01b031681526020810191909152604001600020805460ff19169115159190911790557f2f9e17c39535bcb0f81903b68a3375ea6f6c892d9a58a4be0dfa2f5dafc42c8c84848381811061032357634e487b7160e01b600052603260045260246000fd5b90506020020160208101906103389190610e41565b604080516001600160a01b03909216825284151560208301520160405180910390a180610364816111cd565b9150506101fb565b50505050565b6001546001600160a01b0316336001600160a01b03161461039257600080fd5b6001546001600160a01b03166103b06000546001600160a01b031690565b6001600160a01b03167f8be0079c531659141344cd1fd0a4f28419497f9722a3daafe3b4186f6b6457e060405160405180910390a360018054600080546001600160a01b03199081166001600160a01b03841617909155169055565b6000546001600160a01b031633146104665760405162461bcd60e51b815260206004820181905260248201527f4f776e61626c653a2063616c6c6572206973206e6f7420746865206f776e657260448201526064016101ef565b600080546040516001600160a01b03909116907f8be0079c531659141344cd1fd0a4f28419497f9722a3daafe3b4186f6b6457e0908390a3600080546001600160a01b0319169055565b6002546040517f0f6ec81f0000000000000000000000000000000000000000000000000000000081526001600160a01b03808616600483015285921690630f6ec81f9060240160206040518083038186803b15801561050e57600080fd5b505afa158015610522573d6000803e3d6000fd5b505050506040513d601f19601f820116820180604052508101906105469190610f44565b6105925760405162461bcd60e51b815260206004820152600e60248201527f496e76616c6964207661756c742100000000000000000000000000000000000060448201526064016101ef565b6000546001600160a01b03163314806105ba57503360009081526003602052604090205460ff165b6106065760405162461bcd60e51b815260206004820152600d60248201527f4e6f74206578656375746f72210000000000000000000000000000000000000060448201526064016101ef565b6000849050836001600160a01b0316816001600160a01b03166397f75dd96040518163ffffffff1660e01b815260040160206040518083038186803b15801561064e57600080fd5b505afa158015610662573d6000803e3d6000fd5b505050506040513d601f19601f820116820180604052508101906106869190610e64565b6001600160a01b031614156040518060400160405280600381526020017f3330320000000000000000000000000000000000000000000000000000000000815250906106e55760405162461bcd60e51b81526004016101ef9190611098565b506000856001600160a01b031663d8df4ce76040518163ffffffff1660e01b815260040160806040518083038186803b15801561072157600080fd5b505afa158015610735573d6000803e3d6000fd5b505050506040513d601f19601f820116820180604052508101906107599190610f60565b9050816001600160a01b03166367ac280a6040518163ffffffff1660e01b8152600401600060405180830381600087803b15801561079657600080fd5b505af11580156107aa573d6000803e3d6000fd5b505050506000826001600160a01b03166397f75dd96040518163ffffffff1660e01b815260040160206040518083038186803b1580156107e957600080fd5b505afa1580156107fd573d6000803e3d6000fd5b505050506040513d601f19601f820116820180604052508101906108219190610e64565b60208301516040517f517243770000000000000000000000000000000000000000000000000000000081526001600160a01b0391821660048201528982166024820152911690635172437790604401602060405180830381600087803b15801561088a57600080fd5b505af115801561089e573d6000803e3d6000fd5b505050506040513d601f19601f820116820180604052508101906108c29190610fec565b90506000604051806101200160405280600060028111156108f357634e487b7160e01b600052602160045260246000fd5b815260200184602001516001600160a01b03168152602001838152602001896001600160a01b03168152602001886001600160a01b03168152602001600067ffffffffffffffff81111561095757634e487b7160e01b600052604160045260246000fd5b604051908082528060200260200182016040528015610980578160200160208202803683370190505b50815260200160006040519080825280602002602001820160405280156109b1578160200160208202803683370190505b5081526000602080830182905260409283019190915260025482517f7fabc90b00000000000000000000000000000000000000000000000000000000815292519394506001600160a01b031692637fabc90b926004808201939291829003018186803b158015610a2057600080fd5b505afa158015610a34573d6000803e3d6000fd5b505050506040513d601f19601f82011682018060405250810190610a589190610e64565b6001600160a01b0316635ccd808c82886040518363ffffffff1660e01b8152600401610a859291906110eb565b600060405180830381600087803b158015610a9f57600080fd5b505af1158015610ab3573d6000803e3d6000fd5b50506040517f71e114300000000000000000000000000000000000000000000000000000000081526001600160a01b038a811660048301528b1692506371e114309150602401600060405180830381600087803b158015610b1357600080fd5b505af1158015610b27573d6000803e3d6000fd5b505050505050505050505050565b6000546001600160a01b03163314610b8f5760405162461bcd60e51b815260206004820181905260248201527f4f776e61626c653a2063616c6c6572206973206e6f7420746865206f776e657260448201526064016101ef565b60408051808201909152600381526203133360ec1b60208201526001600160a01b038216610bd05760405162461bcd60e51b81526004016101ef9190611098565b50600280546001600160a01b0319166001600160a01b0383169081179091556040519081527fa05e64ea7e34b372177317c71229808e25bdbfe5dc3e6bc4fc7ca66c97d932769060200160405180910390a150565b6000546001600160a01b03163314610c7f5760405162461bcd60e51b815260206004820181905260248201527f4f776e61626c653a2063616c6c6572206973206e6f7420746865206f776e657260448201526064016101ef565b6001546001600160a01b0316610c9457600080fd5b600180546001600160a01b03191690556040516000907f69737d41162474a7ca514809b07d7becaecf72eae8c23bceb071f0e09af93ffc908290a2565b6000546001600160a01b03163314610d2b5760405162461bcd60e51b815260206004820181905260248201527f4f776e61626c653a2063616c6c6572206973206e6f7420746865206f776e657260448201526064016101ef565b6001600160a01b038116610d815760405162461bcd60e51b815260206004820152601960248201527f43616e6e6f742070617373207a65726f2061646472657373210000000000000060448201526064016101ef565b6001546001600160a01b031615610dda5760405162461bcd60e51b815260206004820152601960248201527f546865726520697320612070656e64696e67206f776e6572210000000000000060448201526064016101ef565b600180546001600160a01b0319166001600160a01b0383169081179091556040517f69737d41162474a7ca514809b07d7becaecf72eae8c23bceb071f0e09af93ffc90600090a250565b805167ffffffffffffffff81168114610e3c57600080fd5b919050565b600060208284031215610e52578081fd5b8135610e5d816111f4565b9392505050565b600060208284031215610e75578081fd5b8151610e5d816111f4565b600080600060608486031215610e94578182fd5b8335610e9f816111f4565b92506020840135610eaf816111f4565b9150604084013560ff81168114610ec4578182fd5b809150509250925092565b600080600060408486031215610ee3578283fd5b833567ffffffffffffffff80821115610efa578485fd5b818601915086601f830112610f0d578485fd5b813581811115610f1b578586fd5b8760208083028501011115610f2e578586fd5b60209283019550935050840135610ec48161120c565b600060208284031215610f55578081fd5b8151610e5d8161120c565b600060808284031215610f71578081fd5b6040516080810181811067ffffffffffffffff82111715610fa057634e487b7160e01b83526041600452602483fd5b6040528251610fae816111f4565b81526020830151610fbe816111f4565b6020820152610fcf60408401610e24565b6040820152610fe060608401610e24565b60608201529392505050565b600060208284031215610ffd578081fd5b5051919050565b6000815180845260208085019450808401835b8381101561103c5781516001600160a01b031687529582019590820190600101611017565b509495945050505050565b6000815180845260208085019450808401835b8381101561103c5781518752958201959082019060010161105a565b6003811061109457634e487b7160e01b600052602160045260246000fd5b9052565b6000602080835283518082850152825b818110156110c4578581018301518582016040015282016110a8565b818111156110d55783604083870101525b50601f01601f1916929092016040019392505050565b6000604082526110ff604083018551611076565b60208401516001600160a01b0381166060840152506040840151608083015260608401516001600160a01b03811660a08401525060808401516001600160a01b03811660c08401525060a08401516101208060e0850152611164610160850183611004565b915060c0860151610100603f1986850301818701526111838483611047565b935060e088015191506111a0838701836001600160a01b03169052565b8701516001600160a01b03811661014087015291506111bc9050565b5060ff841660208401529050610e5d565b60006000198214156111ed57634e487b7160e01b81526011600452602481fd5b5060010190565b6001600160a01b038116811461120957600080fd5b50565b801515811461120957600080fdfea2646970667358221220285b006ceaa0378525ed494af023552937de44c45895d9319eb38070c9403e0a64736f6c63430008020033",
  "linkReferences": {},
  "deployedLinkReferences": {}
}