{
  "_format": "hh-sol-artifact-1",
  "contractName": "FlasherAVAX",
  "sourceName": "contracts/fuji/flashloans/FlasherAVAX.sol",
  "abi": [
    {
      "anonymous": false,
      "inputs": [
        {
          "indexed": false,
          "internalType": "address",
          "name": "newFujiAdmin",
          "type": "address"
        }
      ],
      "name": "FujiAdminChanged",
      "type": "event"
    },
    {
      "anonymous": false,
      "inputs": [
        {
          "indexed": true,
          "internalType": "address",
          "name": "owner",
          "type": "address"
        }
      ],
      "name": "NewPendingOwner",
      "type": "event"
    },
    {
      "anonymous": false,
      "inputs": [
        {
          "indexed": true,
          "internalType": "address",
          "name": "previousOwner",
          "type": "address"
        },
        {
          "indexed": true,
          "internalType": "address",
          "name": "newOwner",
          "type": "address"
        }
      ],
      "name": "OwnershipTransferred",
      "type": "event"
    },
    {
      "inputs": [],
      "name": "cancelTransferOwnership",
      "outputs": [],
      "stateMutability": "nonpayable",
      "type": "function"
    },
    {
      "inputs": [],
      "name": "claimOwnership",
      "outputs": [],
      "stateMutability": "nonpayable",
      "type": "function"
    },
    {
      "inputs": [
        {
          "internalType": "address[]",
          "name": "assets",
          "type": "address[]"
        },
        {
          "internalType": "uint256[]",
          "name": "amounts",
          "type": "uint256[]"
        },
        {
          "internalType": "uint256[]",
          "name": "premiums",
          "type": "uint256[]"
        },
        {
          "internalType": "address",
          "name": "initiator",
          "type": "address"
        },
        {
          "internalType": "bytes",
          "name": "params",
          "type": "bytes"
        }
      ],
      "name": "executeOperation",
      "outputs": [
        {
          "internalType": "bool",
          "name": "",
          "type": "bool"
        }
      ],
      "stateMutability": "nonpayable",
      "type": "function"
    },
    {
      "inputs": [
        {
          "components": [
            {
              "internalType": "enum FlashLoan.CallType",
              "name": "callType",
              "type": "uint8"
            },
            {
              "internalType": "address",
              "name": "asset",
              "type": "address"
            },
            {
              "internalType": "uint256",
              "name": "amount",
              "type": "uint256"
            },
            {
              "internalType": "address",
              "name": "vault",
              "type": "address"
            },
            {
              "internalType": "address",
              "name": "newProvider",
              "type": "address"
            },
            {
              "internalType": "address[]",
              "name": "userAddrs",
              "type": "address[]"
            },
            {
              "internalType": "uint256[]",
              "name": "userBalances",
              "type": "uint256[]"
            },
            {
              "internalType": "address",
              "name": "userliquidator",
              "type": "address"
            },
            {
              "internalType": "address",
              "name": "fliquidator",
              "type": "address"
            }
          ],
          "internalType": "struct FlashLoan.Info",
          "name": "info",
          "type": "tuple"
        },
        {
          "internalType": "uint8",
          "name": "_flashnum",
          "type": "uint8"
        }
      ],
      "name": "initiateFlashloan",
      "outputs": [],
      "stateMutability": "nonpayable",
      "type": "function"
    },
    {
      "inputs": [
        {
          "internalType": "address",
          "name": "sender",
          "type": "address"
        },
        {
          "internalType": "address",
          "name": "underlying",
          "type": "address"
        },
        {
          "internalType": "uint256",
          "name": "amount",
          "type": "uint256"
        },
        {
          "internalType": "uint256",
          "name": "fee",
          "type": "uint256"
        },
        {
          "internalType": "bytes",
          "name": "params",
          "type": "bytes"
        }
      ],
      "name": "onFlashLoan",
      "outputs": [
        {
          "internalType": "bytes32",
          "name": "",
          "type": "bytes32"
        }
      ],
      "stateMutability": "nonpayable",
      "type": "function"
    },
    {
      "inputs": [],
      "name": "owner",
      "outputs": [
        {
          "internalType": "address",
          "name": "",
          "type": "address"
        }
      ],
      "stateMutability": "view",
      "type": "function"
    },
    {
      "inputs": [],
      "name": "pendingOwner",
      "outputs": [
        {
          "internalType": "address",
          "name": "",
          "type": "address"
        }
      ],
      "stateMutability": "view",
      "type": "function"
    },
    {
      "inputs": [],
      "name": "renounceOwnership",
      "outputs": [],
      "stateMutability": "nonpayable",
      "type": "function"
    },
    {
      "inputs": [
        {
          "internalType": "address",
          "name": "_newFujiAdmin",
          "type": "address"
        }
      ],
      "name": "setFujiAdmin",
      "outputs": [],
      "stateMutability": "nonpayable",
      "type": "function"
    },
    {
      "inputs": [
        {
          "internalType": "address",
          "name": "newOwner",
          "type": "address"
        }
      ],
      "name": "transferOwnership",
      "outputs": [],
      "stateMutability": "nonpayable",
      "type": "function"
    },
    {
      "stateMutability": "payable",
      "type": "receive"
    }
  ],
  "bytecode": "0x60c06040527f76cc67ff2cc77821a70ed14321111ce381c2594d00000000000000000000000060805272f76f225c8ba8499e4b69092db3abe27c4f31f160651b60a05234801561004e57600080fd5b50600080546001600160a01b031916339081178255604051909182917f8be0079c531659141344cd1fd0a4f28419497f9722a3daafe3b4186f6b6457e0908290a35060805160601c60a05160601c6124986100d06000396000818161027601526114b801526000818161093401528181610b8d01526112bb01526124986000f3fe6080604052600436106100b55760003560e01c806391c154321161006957806392fede001161004e57806392fede00146101c2578063e30c3978146101d7578063f2fde38b146101f7576100bc565b806391c1543214610172578063920f5c8414610192576100bc565b80635ccd808c1161009a5780635ccd808c1461010b578063715018a61461012b5780638da5cb5b14610140576100bc565b806323e30c8b146100c15780634e71e0c8146100f4576100bc565b366100bc57005b600080fd5b3480156100cd57600080fd5b506100e16100dc366004611cbc565b610217565b6040519081526020015b60405180910390f35b34801561010057600080fd5b50610109610536565b005b34801561011757600080fd5b50610109610126366004611e2c565b6105d0565b34801561013757600080fd5b506101096107d5565b34801561014c57600080fd5b506000546001600160a01b03165b6040516001600160a01b0390911681526020016100eb565b34801561017e57600080fd5b5061010961018d366004611c84565b610879565b34801561019e57600080fd5b506101b26101ad366004611d36565b610927565b60405190151581526020016100eb565b3480156101ce57600080fd5b50610109610bc3565b3480156101e357600080fd5b5060015461015a906001600160a01b031681565b34801561020357600080fd5b50610109610212366004611c84565b610c6f565b6000806001600160a01b03871673d00ae08403b9bbb9124bb305c09058e32c39a48c146102f5576040517f0494cd9a0000000000000000000000000000000000000000000000000000000081526001600160a01b0388811660048301527f00000000000000000000000000000000000000000000000000000000000000001690630494cd9a9060240160206040518083038186803b1580156102b857600080fd5b505afa1580156102cc573d6000803e3d6000fd5b505050506040513d601f19601f820116820180604052508101906102f09190611ca0565b61030b565b73219990fa1f91751539c65ae3f50040c6701cf2195b9050336001600160a01b03821614801561032d5750306001600160a01b038916145b6040518060400160405280600381526020016231313160e81b815250906103705760405162461bcd60e51b8152600401610367919061221a565b60405180910390fd5b506040517f70a0823100000000000000000000000000000000000000000000000000000000815230600482015286906001600160a01b038916906370a082319060240160206040518083038186803b1580156103cb57600080fd5b505afa1580156103df573d6000803e3d6000fd5b505050506040513d601f19601f820116820180604052508101906104039190611f8d565b10156040518060400160405280600381526020017f3132370000000000000000000000000000000000000000000000000000000000815250906104595760405162461bcd60e51b8152600401610367919061221a565b50600061046884860186611e86565b905060006001600160a01b03801682602001516001600160a01b0316141561049a5761049388610dc2565b50866104b4565b60608201516104b4906001600160a01b038b16908a610e46565b6104c082898984610f1c565b60208201516001600160a01b0390811614156104e8576104e86104e3888a6123e4565b61112a565b610507836104f6898b6123e4565b6001600160a01b038c169190611179565b507f7968ba28153757de2da7bce4c2ba9ebaf94445061f3050de1b0de5c34bb7d5d89998505050505050505050565b6001546001600160a01b0316336001600160a01b03161461055657600080fd5b6001546001600160a01b03166105746000546001600160a01b031690565b6001600160a01b03167f8be0079c531659141344cd1fd0a4f28419497f9722a3daafe3b4186f6b6457e060405160405180910390a360018054600080546001600160a01b03199081166001600160a01b03841617909155169055565b600260009054906101000a90046001600160a01b03166001600160a01b0316633018205f6040518163ffffffff1660e01b815260040160206040518083038186803b15801561061e57600080fd5b505afa158015610632573d6000803e3d6000fd5b505050506040513d601f19601f820116820180604052508101906106569190611ca0565b6001600160a01b0316336001600160a01b0316148061070b5750600260009054906101000a90046001600160a01b03166001600160a01b031663b8491a846040518163ffffffff1660e01b815260040160206040518083038186803b1580156106be57600080fd5b505afa1580156106d2573d6000803e3d6000fd5b505050506040513d601f19601f820116820180604052508101906106f69190611ca0565b6001600160a01b0316336001600160a01b0316145b8061072057506000546001600160a01b031633145b6040518060400160405280600381526020016231313160e81b8152509061075a5760405162461bcd60e51b8152600401610367919061221a565b5060ff81166107715761076c826112aa565b6107d1565b8060ff16600214156107865761076c82611486565b604080518082018252600381527f31333100000000000000000000000000000000000000000000000000000000006020820152905162461bcd60e51b8152610367919060040161221a565b5050565b6000546001600160a01b0316331461082f5760405162461bcd60e51b815260206004820181905260248201527f4f776e61626c653a2063616c6c6572206973206e6f7420746865206f776e65726044820152606401610367565b600080546040516001600160a01b03909116907f8be0079c531659141344cd1fd0a4f28419497f9722a3daafe3b4186f6b6457e0908390a3600080546001600160a01b0319169055565b6000546001600160a01b031633146108d35760405162461bcd60e51b815260206004820181905260248201527f4f776e61626c653a2063616c6c6572206973206e6f7420746865206f776e65726044820152606401610367565b600280546001600160a01b0319166001600160a01b0383169081179091556040519081527fa05e64ea7e34b372177317c71229808e25bdbfe5dc3e6bc4fc7ca66c97d932769060200160405180910390a150565b6000336001600160a01b037f00000000000000000000000000000000000000000000000000000000000000001614801561096957506001600160a01b03841630145b6040518060400160405280600381526020016231313160e81b815250906109a35760405162461bcd60e51b8152600401610367919061221a565b5060006109b283850185611e86565b905060006001600160a01b03801682602001516001600160a01b03161415610a0f57610a048a8a60008181106109f857634e487b7160e01b600052603260045260246000fd5b90506020020135610dc2565b506040810151610a85565b610a8582606001518b8b6000818110610a3857634e487b7160e01b600052603260045260246000fd5b905060200201358e8e6000818110610a6057634e487b7160e01b600052603260045260246000fd5b9050602002016020810190610a759190611c84565b6001600160a01b03169190610e46565b610adf828b8b6000818110610aaa57634e487b7160e01b600052603260045260246000fd5b905060200201358a8a6000818110610ad257634e487b7160e01b600052603260045260246000fd5b9050602002013584610f1c565b610bb16001600160a01b03801683602001516001600160a01b0316148d8d6000818110610b1c57634e487b7160e01b600052603260045260246000fd5b9050602002016020810190610b319190611c84565b8a8a6000818110610b5257634e487b7160e01b600052603260045260246000fd5b905060200201358d8d6000818110610b7a57634e487b7160e01b600052603260045260246000fd5b90506020020135610b8b91906123e4565b7f0000000000000000000000000000000000000000000000000000000000000000611640565b5060019b9a5050505050505050505050565b6000546001600160a01b03163314610c1d5760405162461bcd60e51b815260206004820181905260248201527f4f776e61626c653a2063616c6c6572206973206e6f7420746865206f776e65726044820152606401610367565b6001546001600160a01b0316610c3257600080fd5b600180546001600160a01b03191690556040516000907f69737d41162474a7ca514809b07d7becaecf72eae8c23bceb071f0e09af93ffc908290a2565b6000546001600160a01b03163314610cc95760405162461bcd60e51b815260206004820181905260248201527f4f776e61626c653a2063616c6c6572206973206e6f7420746865206f776e65726044820152606401610367565b6001600160a01b038116610d1f5760405162461bcd60e51b815260206004820152601960248201527f43616e6e6f742070617373207a65726f206164647265737321000000000000006044820152606401610367565b6001546001600160a01b031615610d785760405162461bcd60e51b815260206004820152601960248201527f546865726520697320612070656e64696e67206f776e657221000000000000006044820152606401610367565b600180546001600160a01b0319166001600160a01b0383169081179091556040517f69737d41162474a7ca514809b07d7becaecf72eae8c23bceb071f0e09af93ffc90600090a250565b6040517f2e1a7d4d0000000000000000000000000000000000000000000000000000000081526004810182905273d00ae08403b9bbb9124bb305c09058e32c39a48c908190632e1a7d4d90602401600060405180830381600087803b158015610e2a57600080fd5b505af1158015610e3e573d6000803e3d6000fd5b505050505050565b8015610f1757610e5583611687565b15610f03576000826001600160a01b03168260405160006040518083038185875af1925050503d8060008114610ea7576040519150601f19603f3d011682016040523d82523d6000602084013e610eac565b606091505b5050905080610efd5760405162461bcd60e51b815260206004820152601360248201527f4661696c656420746f2073656e642041564158000000000000000000000000006044820152606401610367565b50610f17565b610f176001600160a01b03841683836116af565b505050565b600084516002811115610f3f57634e487b7160e01b600052602160045260246000fd5b1415610fd957606084015160808501516040517fcf4f44580000000000000000000000000000000000000000000000000000000081526001600160a01b039182166004820152602481018690526044810185905291169063cf4f44589083906064015b6000604051808303818588803b158015610fbb57600080fd5b505af1158015610fcf573d6000803e3d6000fd5b5050505050611124565b600184516002811115610ffc57634e487b7160e01b600052602160045260246000fd5b14156110a5578361010001516001600160a01b0316639df97b04828660a0015160008151811061103c57634e487b7160e01b600052603260045260246000fd5b602090810291909101015160608801516040517fffffffff0000000000000000000000000000000000000000000000000000000060e086901b1681526001600160a01b039283166004820152911660248201526044810187905260648101869052608401610fa2565b8361010001516001600160a01b0316639c6ce5aa828660a001518760c001518860e00151896060015189896040518863ffffffff1660e01b81526004016110f1969594939291906121c6565b6000604051808303818588803b15801561110a57600080fd5b505af115801561111e573d6000803e3d6000fd5b50505050505b50505050565b73d00ae08403b9bbb9124bb305c09058e32c39a48c6001600160a01b031663d0e30db0826040518263ffffffff1660e01b81526004016000604051808303818588803b158015610e2a57600080fd5b61118283611687565b156111cf5760405162461bcd60e51b815260206004820152601660248201527f417070726f76652063616c6c6564206f6e2041564158000000000000000000006044820152606401610367565b806111ee576111e96001600160a01b038416836000611758565b610f17565b604051636eb1769f60e11b81523060048201526001600160a01b0383811660248301526000919085169063dd62ed3e9060440160206040518083038186803b15801561123957600080fd5b505afa15801561124d573d6000803e3d6000fd5b505050506040513d601f19601f820116820180604052508101906112719190611f8d565b905081811015611124578015611296576112966001600160a01b038516846000611758565b6111246001600160a01b0385168484611758565b6040805160018082528183019092527f0000000000000000000000000000000000000000000000000000000000000000913091600091602080830190803683370190505090506001600160a01b036113086040860160208701611c84565b6001600160a01b03161461132b576113266040850160208601611c84565b611341565b73d00ae08403b9bbb9124bb305c09058e32c39a48c5b8160008151811061136257634e487b7160e01b600052603260045260246000fd5b6001600160a01b0392909216602092830291909101909101526040805160018082528183019092526000918160200160208202803683370190505090508460400135816000815181106113c557634e487b7160e01b600052603260045260246000fd5b6020908102919091010152604080516001808252818301909252600091816020016020820280368337019050509050846001600160a01b031663ab9c4b5d85858585308c604051602001611419919061222d565b60405160208183030381529060405260006040518863ffffffff1660e01b815260040161144c9796959493929190612147565b600060405180830381600087803b15801561146657600080fd5b505af115801561147a573d6000803e3d6000fd5b50505050505050505050565b60006001600160a01b036114a06040840160208501611c84565b6001600160a01b031614611581576001600160a01b037f000000000000000000000000000000000000000000000000000000000000000016630494cd9a6114ed6040850160208601611c84565b6040517fffffffff0000000000000000000000000000000000000000000000000000000060e084901b1681526001600160a01b03909116600482015260240160206040518083038186803b15801561154457600080fd5b505afa158015611558573d6000803e3d6000fd5b505050506040513d601f19601f8201168201806040525081019061157c9190611ca0565b611597565b73219990fa1f91751539c65ae3f50040c6701cf2195b90506000826040516020016115ac919061222d565b60408051601f198184030181528282527f5cffe9de00000000000000000000000000000000000000000000000000000000835292506001600160a01b03841691635cffe9de9161160991309182919089013590879060040161210b565b600060405180830381600087803b15801561162357600080fd5b505af1158015611637573d6000803e3d6000fd5b50505050505050565b83156116735761164f8261112a565b61166e73d00ae08403b9bbb9124bb305c09058e32c39a48c8284611179565b611124565b6111246001600160a01b0384168284611179565b60006001600160a01b03821615806116a757506001600160a01b03828116145b90505b919050565b6040516001600160a01b038316602482015260448101829052610f179084907fa9059cbb00000000000000000000000000000000000000000000000000000000906064015b60408051601f198184030181529190526020810180517bffffffffffffffffffffffffffffffffffffffffffffffffffffffff167fffffffff000000000000000000000000000000000000000000000000000000009093169290921790915261189c565b8015806117e15750604051636eb1769f60e11b81523060048201526001600160a01b03838116602483015284169063dd62ed3e9060440160206040518083038186803b1580156117a757600080fd5b505afa1580156117bb573d6000803e3d6000fd5b505050506040513d601f19601f820116820180604052508101906117df9190611f8d565b155b6118535760405162461bcd60e51b815260206004820152603660248201527f5361666545524332303a20617070726f76652066726f6d206e6f6e2d7a65726f60448201527f20746f206e6f6e2d7a65726f20616c6c6f77616e6365000000000000000000006064820152608401610367565b6040516001600160a01b038316602482015260448101829052610f179084907f095ea7b300000000000000000000000000000000000000000000000000000000906064016116f4565b60006118f1826040518060400160405280602081526020017f5361666545524332303a206c6f772d6c6576656c2063616c6c206661696c6564815250856001600160a01b03166119819092919063ffffffff16565b805190915015610f17578080602001905181019061190f9190611e0c565b610f175760405162461bcd60e51b815260206004820152602a60248201527f5361666545524332303a204552433230206f7065726174696f6e20646964206e60448201527f6f742073756363656564000000000000000000000000000000000000000000006064820152608401610367565b6060611990848460008561199a565b90505b9392505050565b606082471015611a125760405162461bcd60e51b815260206004820152602660248201527f416464726573733a20696e73756666696369656e742062616c616e636520666f60448201527f722063616c6c00000000000000000000000000000000000000000000000000006064820152608401610367565b843b611a605760405162461bcd60e51b815260206004820152601d60248201527f416464726573733a2063616c6c20746f206e6f6e2d636f6e74726163740000006044820152606401610367565b600080866001600160a01b03168587604051611a7c91906120ef565b60006040518083038185875af1925050503d8060008114611ab9576040519150601f19603f3d011682016040523d82523d6000602084013e611abe565b606091505b5091509150611ace828286611ad9565b979650505050505050565b60608315611ae8575081611993565b825115611af85782518084602001fd5b8160405162461bcd60e51b8152600401610367919061221a565b80356116aa8161244a565b60008083601f840112611b2e578182fd5b50813567ffffffffffffffff811115611b45578182fd5b6020830191508360208083028501011115611b5f57600080fd5b9250929050565b600082601f830112611b76578081fd5b81356020611b8b611b8683612378565b612347565b8281528181019085830183850287018401881015611ba7578586fd5b855b85811015611bce578135611bbc8161244a565b84529284019290840190600101611ba9565b5090979650505050505050565b600082601f830112611beb578081fd5b81356020611bfb611b8683612378565b8281528181019085830183850287018401881015611c17578586fd5b855b85811015611bce57813584529284019290840190600101611c19565b60008083601f840112611c46578182fd5b50813567ffffffffffffffff811115611c5d578182fd5b602083019150836020828501011115611b5f57600080fd5b8035600381106116aa57600080fd5b600060208284031215611c95578081fd5b81356119938161244a565b600060208284031215611cb1578081fd5b81516119938161244a565b60008060008060008060a08789031215611cd4578182fd5b8635611cdf8161244a565b95506020870135611cef8161244a565b94506040870135935060608701359250608087013567ffffffffffffffff811115611d18578283fd5b611d2489828a01611c35565b979a9699509497509295939492505050565b600080600080600080600080600060a08a8c031215611d53578283fd5b893567ffffffffffffffff80821115611d6a578485fd5b611d768d838e01611b1d565b909b50995060208c0135915080821115611d8e578485fd5b611d9a8d838e01611b1d565b909950975060408c0135915080821115611db2578485fd5b611dbe8d838e01611b1d565b909750955060608c01359150611dd38261244a565b90935060808b01359080821115611de8578384fd5b50611df58c828d01611c35565b915080935050809150509295985092959850929598565b600060208284031215611e1d578081fd5b81518015158114611993578182fd5b60008060408385031215611e3e578182fd5b823567ffffffffffffffff811115611e54578283fd5b83016101208186031215611e66578283fd5b9150602083013560ff81168114611e7b578182fd5b809150509250929050565b600060208284031215611e97578081fd5b813567ffffffffffffffff80821115611eae578283fd5b8184019150610120808387031215611ec4578384fd5b611ecd81612347565b9050611ed883611c75565b8152611ee660208401611b12565b602082015260408301356040820152611f0160608401611b12565b6060820152611f1260808401611b12565b608082015260a083013582811115611f28578485fd5b611f3487828601611b66565b60a08301525060c083013582811115611f4b578485fd5b611f5787828601611bdb565b60c083015250611f6960e08401611b12565b60e08201526101009150611f7e828401611b12565b91810191909152949350505050565b600060208284031215611f9e578081fd5b5051919050565b60008284526020808501945082825b85811015611fe2578135611fc78161244a565b6001600160a01b031687529582019590820190600101611fb4565b509495945050505050565b6000815180845260208085019450808401835b83811015611fe25781516001600160a01b031687529582019590820190600101612000565b60008284527f07ffffffffffffffffffffffffffffffffffffffffffffffffffffffffffffff831115612056578081fd5b6020830280836020870137939093016020019283525090919050565b6000815180845260208085019450808401835b83811015611fe257815187529582019590820190600101612085565b600081518084526120b9816020860160208601612408565b601f01601f19169290920160200192915050565b600381106120eb57634e487b7160e01b600052602160045260246000fd5b9052565b60008251612101818460208701612408565b9190910192915050565b60006001600160a01b0380871683528086166020840152508360408301526080606083015261213d60808301846120a1565b9695505050505050565b60006001600160a01b03808a16835260e0602084015261216a60e084018a611fed565b838103604085015261217c818a612072565b905083810360608501526121908189612072565b9050818716608085015283810360a08501526121ac81876120a1565b9250505061ffff831660c083015298975050505050505050565b600060c082526121d960c0830189611fed565b82810360208401526121eb8189612072565b6001600160a01b03978816604085015295909616606083015250608081019290925260a0909101529392505050565b60006020825261199360208301846120a1565b6000602082526122486020830161224385611c75565b6120cd565b61225460208401611b12565b6001600160a01b0381166040840152506040830135606083015261227a60608401611b12565b6001600160a01b03811660808401525061229660808401611b12565b6001600160a01b03811660a0840152506122b360a084018461239c565b6101208060c08601526122cb61014086018385611fa5565b92506122da60c087018761239c565b868503601f190160e088015292506122f3848483612025565b93505061230260e08701611b12565b915061010061231b818701846001600160a01b03169052565b612326818801611b12565b92505061233d818601836001600160a01b03169052565b5090949350505050565b604051601f8201601f1916810167ffffffffffffffff8111828210171561237057612370612434565b604052919050565b600067ffffffffffffffff82111561239257612392612434565b5060209081020190565b6000808335601e198436030181126123b2578283fd5b830160208101925035905067ffffffffffffffff8111156123d257600080fd5b602081023603831315611b5f57600080fd5b6000821982111561240357634e487b7160e01b81526011600452602481fd5b500190565b60005b8381101561242357818101518382015260200161240b565b838111156111245750506000910152565b634e487b7160e01b600052604160045260246000fd5b6001600160a01b038116811461245f57600080fd5b5056fea26469706673582212209962758c417c61aa7bd4b08de5c80004d1cf8b4479bc9cec7acc667b3ddd5c8864736f6c63430008020033",
  "linkReferences": {},
  "deployedLinkReferences": {}
}