{
  "_format": "hh-sol-artifact-1",
  "contractName": "FliquidatorAVAX",
  "sourceName": "contracts/fuji/FliquidatorAVAX.sol",
  "abi": [
    {
      "inputs": [],
      "stateMutability": "nonpayable",
      "type": "constructor"
    },
    {
      "anonymous": false,
      "inputs": [
        {
          "indexed": false,
          "internalType": "bytes32",
          "name": "typehash",
          "type": "bytes32"
        },
        {
          "indexed": false,
          "internalType": "uint64",
          "name": "newFactorA",
          "type": "uint64"
        },
        {
          "indexed": false,
          "internalType": "uint64",
          "name": "newFactorB",
          "type": "uint64"
        }
      ],
      "name": "FactorChanged",
      "type": "event"
    },
    {
      "anonymous": false,
      "inputs": [
        {
          "indexed": true,
          "internalType": "address",
          "name": "userAddr",
          "type": "address"
        },
        {
          "indexed": true,
          "internalType": "address",
          "name": "vault",
          "type": "address"
        },
        {
          "indexed": false,
          "internalType": "uint256",
          "name": "amount",
          "type": "uint256"
        }
      ],
      "name": "FlashClose",
      "type": "event"
    },
    {
      "anonymous": false,
      "inputs": [
        {
          "indexed": false,
          "internalType": "address",
          "name": "newFujiAdmin",
          "type": "address"
        }
      ],
      "name": "FujiAdminChanged",
      "type": "event"
    },
    {
      "anonymous": false,
      "inputs": [
        {
          "indexed": true,
          "internalType": "address",
          "name": "userAddr",
          "type": "address"
        },
        {
          "indexed": true,
          "internalType": "address",
          "name": "vault",
          "type": "address"
        },
        {
          "indexed": false,
          "internalType": "uint256",
          "name": "amount",
          "type": "uint256"
        },
        {
          "indexed": false,
          "internalType": "address",
          "name": "liquidator",
          "type": "address"
        }
      ],
      "name": "Liquidate",
      "type": "event"
    },
    {
      "anonymous": false,
      "inputs": [
        {
          "indexed": true,
          "internalType": "address",
          "name": "owner",
          "type": "address"
        }
      ],
      "name": "NewPendingOwner",
      "type": "event"
    },
    {
      "anonymous": false,
      "inputs": [
        {
          "indexed": false,
          "internalType": "address",
          "name": "newOracle",
          "type": "address"
        }
      ],
      "name": "OracleChanged",
      "type": "event"
    },
    {
      "anonymous": false,
      "inputs": [
        {
          "indexed": true,
          "internalType": "address",
          "name": "previousOwner",
          "type": "address"
        },
        {
          "indexed": true,
          "internalType": "address",
          "name": "newOwner",
          "type": "address"
        }
      ],
      "name": "OwnershipTransferred",
      "type": "event"
    },
    {
      "anonymous": false,
      "inputs": [
        {
          "indexed": false,
          "internalType": "address",
          "name": "newSwapper",
          "type": "address"
        }
      ],
      "name": "SwapperChanged",
      "type": "event"
    },
    {
      "inputs": [],
      "name": "AVAX",
      "outputs": [
        {
          "internalType": "address",
          "name": "",
          "type": "address"
        }
      ],
      "stateMutability": "view",
      "type": "function"
    },
    {
      "inputs": [],
      "name": "SLIPPAGE_LIMIT_DENOMINATOR",
      "outputs": [
        {
          "internalType": "uint256",
          "name": "",
          "type": "uint256"
        }
      ],
      "stateMutability": "view",
      "type": "function"
    },
    {
      "inputs": [],
      "name": "SLIPPAGE_LIMIT_NUMERATOR",
      "outputs": [
        {
          "internalType": "uint256",
          "name": "",
          "type": "uint256"
        }
      ],
      "stateMutability": "view",
      "type": "function"
    },
    {
      "inputs": [
        {
          "internalType": "address[]",
          "name": "_addrs",
          "type": "address[]"
        },
        {
          "internalType": "address",
          "name": "_vault",
          "type": "address"
        }
      ],
      "name": "batchLiquidate",
      "outputs": [],
      "stateMutability": "payable",
      "type": "function"
    },
    {
      "inputs": [],
      "name": "cancelTransferOwnership",
      "outputs": [],
      "stateMutability": "nonpayable",
      "type": "function"
    },
    {
      "inputs": [],
      "name": "claimOwnership",
      "outputs": [],
      "stateMutability": "nonpayable",
      "type": "function"
    },
    {
      "inputs": [
        {
          "internalType": "address[]",
          "name": "_addrs",
          "type": "address[]"
        },
        {
          "internalType": "uint256[]",
          "name": "_borrowBals",
          "type": "uint256[]"
        },
        {
          "internalType": "address",
          "name": "_liquidator",
          "type": "address"
        },
        {
          "internalType": "address",
          "name": "_vault",
          "type": "address"
        },
        {
          "internalType": "uint256",
          "name": "_amount",
          "type": "uint256"
        },
        {
          "internalType": "uint256",
          "name": "_flashloanFee",
          "type": "uint256"
        }
      ],
      "name": "executeFlashBatchLiquidation",
      "outputs": [],
      "stateMutability": "payable",
      "type": "function"
    },
    {
      "inputs": [
        {
          "internalType": "address payable",
          "name": "_userAddr",
          "type": "address"
        },
        {
          "internalType": "address",
          "name": "_vault",
          "type": "address"
        },
        {
          "internalType": "uint256",
          "name": "_amount",
          "type": "uint256"
        },
        {
          "internalType": "uint256",
          "name": "_flashloanFee",
          "type": "uint256"
        }
      ],
      "name": "executeFlashClose",
      "outputs": [],
      "stateMutability": "payable",
      "type": "function"
    },
    {
      "inputs": [
        {
          "internalType": "address[]",
          "name": "_addrs",
          "type": "address[]"
        },
        {
          "internalType": "address",
          "name": "_vault",
          "type": "address"
        },
        {
          "internalType": "uint8",
          "name": "_flashnum",
          "type": "uint8"
        }
      ],
      "name": "flashBatchLiquidate",
      "outputs": [],
      "stateMutability": "nonpayable",
      "type": "function"
    },
    {
      "inputs": [
        {
          "internalType": "int256",
          "name": "_amount",
          "type": "int256"
        },
        {
          "internalType": "address",
          "name": "_vault",
          "type": "address"
        },
        {
          "internalType": "uint8",
          "name": "_flashnum",
          "type": "uint8"
        }
      ],
      "name": "flashClose",
      "outputs": [],
      "stateMutability": "nonpayable",
      "type": "function"
    },
    {
      "inputs": [],
      "name": "flashCloseF",
      "outputs": [
        {
          "internalType": "uint64",
          "name": "a",
          "type": "uint64"
        },
        {
          "internalType": "uint64",
          "name": "b",
          "type": "uint64"
        }
      ],
      "stateMutability": "view",
      "type": "function"
    },
    {
      "inputs": [],
      "name": "owner",
      "outputs": [
        {
          "internalType": "address",
          "name": "",
          "type": "address"
        }
      ],
      "stateMutability": "view",
      "type": "function"
    },
    {
      "inputs": [],
      "name": "pendingOwner",
      "outputs": [
        {
          "internalType": "address",
          "name": "",
          "type": "address"
        }
      ],
      "stateMutability": "view",
      "type": "function"
    },
    {
      "inputs": [],
      "name": "renounceOwnership",
      "outputs": [],
      "stateMutability": "nonpayable",
      "type": "function"
    },
    {
      "inputs": [
        {
          "internalType": "uint64",
          "name": "_newFactorA",
          "type": "uint64"
        },
        {
          "internalType": "uint64",
          "name": "_newFactorB",
          "type": "uint64"
        }
      ],
      "name": "setFlashCloseFee",
      "outputs": [],
      "stateMutability": "nonpayable",
      "type": "function"
    },
    {
      "inputs": [
        {
          "internalType": "address",
          "name": "_newFujiAdmin",
          "type": "address"
        }
      ],
      "name": "setFujiAdmin",
      "outputs": [],
      "stateMutability": "nonpayable",
      "type": "function"
    },
    {
      "inputs": [
        {
          "internalType": "address",
          "name": "_newFujiOracle",
          "type": "address"
        }
      ],
      "name": "setFujiOracle",
      "outputs": [],
      "stateMutability": "nonpayable",
      "type": "function"
    },
    {
      "inputs": [
        {
          "internalType": "address",
          "name": "_newSwapper",
          "type": "address"
        }
      ],
      "name": "setSwapper",
      "outputs": [],
      "stateMutability": "nonpayable",
      "type": "function"
    },
    {
      "inputs": [],
      "name": "swapper",
      "outputs": [
        {
          "internalType": "contract IUniswapV2Router02",
          "name": "",
          "type": "address"
        }
      ],
      "stateMutability": "view",
      "type": "function"
    },
    {
      "inputs": [
        {
          "internalType": "address",
          "name": "newOwner",
          "type": "address"
        }
      ],
      "name": "transferOwnership",
      "outputs": [],
      "stateMutability": "nonpayable",
      "type": "function"
    },
    {
      "stateMutability": "payable",
      "type": "receive"
    }
  ],
  "bytecode": "0x608060405234801561001057600080fd5b50600080546001600160a01b031916339081178255604051909182917f8be0079c531659141344cd1fd0a4f28419497f9722a3daafe3b4186f6b6457e0908290a35060016002819055600380546001600160401b031916909117600160401b600160801b031916686400000000000000001790556151cc806100936000396000f3fe6080604052600436106101635760003560e01c806392fede00116100c0578063a10364d711610074578063e30c397811610059578063e30c397814610396578063f2fde38b146103b6578063fae5a8f0146103d65761016a565b8063a10364d714610366578063b59f091e1461037b5761016a565b80639c6ce5aa116100a55780639c6ce5aa146103205780639c82f2a4146103335780639df97b04146103535761016a565b806392fede00146102eb57806398e1fdb5146103005761016a565b80635003d4b411610117578063715018a6116100fc578063715018a6146102985780638da5cb5b146102ad57806391c15432146102cb5761016a565b80635003d4b41461025857806356bae453146102785761016a565b806339221f501161014857806339221f50146101fe57806346be3413146102215780634e71e0c8146102435761016a565b80630fd9be711461016f5780632b3297f9146101c65761016a565b3661016a57005b600080fd5b34801561017b57600080fd5b506003546101a09067ffffffffffffffff808216916801000000000000000090041682565b6040805167ffffffffffffffff9384168152929091166020830152015b60405180910390f35b3480156101d257600080fd5b506006546101e6906001600160a01b031681565b6040516001600160a01b0390911681526020016101bd565b34801561020a57600080fd5b50610213600281565b6040519081526020016101bd565b34801561022d57600080fd5b5061024161023c3660046148ac565b6103e9565b005b34801561024f57600080fd5b506102416104d0565b34801561026457600080fd5b50610241610273366004614b4f565b61056a565b34801561028457600080fd5b5061024161029336600461497e565b610c45565b3480156102a457600080fd5b5061024161105a565b3480156102b957600080fd5b506000546001600160a01b03166101e6565b3480156102d757600080fd5b506102416102e63660046148ac565b6110fe565b3480156102f757600080fd5b506102416111d5565b34801561030c57600080fd5b5061024161031b366004614c05565b611281565b61024161032e3660046149e4565b6113c1565b34801561033f57600080fd5b5061024161034e3660046148ac565b611a56565b6102416103613660046148e4565b611b2d565b34801561037257600080fd5b50610213606481565b34801561038757600080fd5b506101e66001600160a01b0381565b3480156103a257600080fd5b506001546101e6906001600160a01b031681565b3480156103c257600080fd5b506102416103d13660046148ac565b612451565b6102416103e4366004614929565b6125a4565b60005460408051808201909152600381526231313160e81b6020820152906001600160a01b031633146104385760405162461bcd60e51b815260040161042f9190614daf565b60405180910390fd5b5060408051808201909152600381526203133360ec1b60208201526001600160a01b03821661047a5760405162461bcd60e51b815260040161042f9190614daf565b50600580546001600160a01b0319166001600160a01b0383169081179091556040519081527f0e05ae75e8b926552cf6fcd744d19f422561e3ced1e426868730852702dbe418906020015b60405180910390a150565b6001546001600160a01b0316336001600160a01b0316146104f057600080fd5b6001546001600160a01b031661050e6000546001600160a01b031690565b6001600160a01b03167f8be0079c531659141344cd1fd0a4f28419497f9722a3daafe3b4186f6b6457e060405160405180910390a360018054600080546001600160a01b03199081166001600160a01b03841617909155169055565b6002805414156105bc5760405162461bcd60e51b815260206004820152601f60248201527f5265656e7472616e637947756172643a207265656e7472616e742063616c6c00604482015260640161042f565b6002805560048054604051630f6ec81f60e01b81526001600160a01b0380861693820193909352849290911690630f6ec81f9060240160206040518083038186803b15801561060a57600080fd5b505afa15801561061e573d6000803e3d6000fd5b505050506040513d601f19601f820116820180604052508101906106429190614b2f565b61067f5760405162461bcd60e51b815260206004820152600e60248201526d496e76616c6964207661756c742160901b604482015260640161042f565b826001600160a01b03166367ac280a6040518163ffffffff1660e01b8152600401600060405180830381600087803b1580156106ba57600080fd5b505af11580156106ce573d6000803e3d6000fd5b505050506000836001600160a01b031663acb2d4106040518163ffffffff1660e01b815260040160206040518083038186803b15801561070d57600080fd5b505afa158015610721573d6000803e3d6000fd5b505050506040513d601f19601f8201168201806040525081019061074591906148c8565b90506000846001600160a01b031663d8df4ce76040518163ffffffff1660e01b815260040160806040518083038186803b15801561078257600080fd5b505afa158015610796573d6000803e3d6000fd5b505050506040513d601f19601f820116820180604052508101906107ba9190614b85565b6040808201519051627eeac760e11b815233600482015267ffffffffffffffff90911660248201529091506000906001600160a01b0384169062fdd58e9060440160206040518083038186803b15801561081357600080fd5b505afa158015610827573d6000803e3d6000fd5b505050506040513d601f19601f8201168201806040525081019061084b9190614bed565b6040517f1714decd0000000000000000000000000000000000000000000000000000000081523360048201529091506000906001600160a01b03881690631714decd9060240160206040518083038186803b1580156108a957600080fd5b505afa1580156108bd573d6000803e3d6000fd5b505050506040513d601f19601f820116820180604052508101906108e19190614bed565b9050600081116040518060400160405280600381526020017f31303600000000000000000000000000000000000000000000000000000000008152509061093b5760405162461bcd60e51b815260040161042f9190614daf565b50600080891261094b578861094d565b815b6040517f90d7bfae000000000000000000000000000000000000000000000000000000008152600481018290526000602482018190529192506001600160a01b038a16906390d7bfae9060440160206040518083038186803b1580156109b257600080fd5b505afa1580156109c6573d6000803e3d6000fd5b505050506040513d601f19601f820116820180604052508101906109ea9190614bed565b9050808410156040518060400160405280600381526020017f313234000000000000000000000000000000000000000000000000000000000081525090610a445760405162461bcd60e51b815260040161042f9190614daf565b50604080516001808252818301909252600091602080830190803683370190505090503381600081518110610a8957634e487b7160e01b600052603260045260246000fd5b6001600160a01b0390921660209283029190910190910152604080516101208101909152600090806001815260200188602001516001600160a01b031681526020018581526020018c6001600160a01b0316815260200160006001600160a01b03168152602001838152602001600067ffffffffffffffff811115610b1e57634e487b7160e01b600052604160045260246000fd5b604051908082528060200260200182016040528015610b47578160200160208202803683370190505b508152600060208083019190915230604092830152600480548351637fabc90b60e01b815293519495506001600160a01b031693637fabc90b93808301939290829003018186803b158015610b9b57600080fd5b505afa158015610baf573d6000803e3d6000fd5b505050506040513d601f19601f82011682018060405250810190610bd391906148c8565b6001600160a01b0316635ccd808c828c6040518363ffffffff1660e01b8152600401610c00929190614de2565b600060405180830381600087803b158015610c1a57600080fd5b505af1158015610c2e573d6000803e3d6000fd5b505060016002555050505050505050505050505050565b60048054604051630f6ec81f60e01b81526001600160a01b0380861693820193909352849290911690630f6ec81f9060240160206040518083038186803b158015610c8f57600080fd5b505afa158015610ca3573d6000803e3d6000fd5b505050506040513d601f19601f82011682018060405250810190610cc79190614b2f565b610d045760405162461bcd60e51b815260206004820152600e60248201526d496e76616c6964207661756c742160901b604482015260640161042f565b600280541415610d565760405162461bcd60e51b815260206004820152601f60248201527f5265656e7472616e637947756172643a207265656e7472616e742063616c6c00604482015260640161042f565b600280819055506000836001600160a01b031663d8df4ce76040518163ffffffff1660e01b815260040160806040518083038186803b158015610d9857600080fd5b505afa158015610dac573d6000803e3d6000fd5b505050506040513d601f19601f82011682018060405250810190610dd09190614b85565b90506000846001600160a01b031663acb2d4106040518163ffffffff1660e01b815260040160206040518083038186803b158015610e0d57600080fd5b505afa158015610e21573d6000803e3d6000fd5b505050506040513d601f19601f82011682018060405250810190610e4591906148c8565b9050846001600160a01b03166367ac280a6040518163ffffffff1660e01b8152600401600060405180830381600087803b158015610e8257600080fd5b505af1158015610e96573d6000803e3d6000fd5b505050506000806000610ee08a8a808060200260200160405190810160405280939291908181526020018383602002808284376000920191909152508992508c9150889050612ccf565b925092509250600081116040518060400160405280600381526020016206260760eb1b81525090610f245760405162461bcd60e51b815260040161042f9190614daf565b506040805161012081018252600281526020878101516001600160a01b03908116828401528284018590528b811660608401526000608084015260a0830187905260c083018690523360e084015230610100840152600480548551637fabc90b60e01b815295519495921693637fabc90b9383830193909290829003018186803b158015610fb157600080fd5b505afa158015610fc5573d6000803e3d6000fd5b505050506040513d601f19601f82011682018060405250810190610fe991906148c8565b6001600160a01b0316635ccd808c828a6040518363ffffffff1660e01b8152600401611016929190614de2565b600060405180830381600087803b15801561103057600080fd5b505af1158015611044573d6000803e3d6000fd5b5050600160025550505050505050505050505050565b6000546001600160a01b031633146110b45760405162461bcd60e51b815260206004820181905260248201527f4f776e61626c653a2063616c6c6572206973206e6f7420746865206f776e6572604482015260640161042f565b600080546040516001600160a01b03909116907f8be0079c531659141344cd1fd0a4f28419497f9722a3daafe3b4186f6b6457e0908390a3600080546001600160a01b0319169055565b60005460408051808201909152600381526231313160e81b6020820152906001600160a01b031633146111445760405162461bcd60e51b815260040161042f9190614daf565b5060408051808201909152600381526203133360ec1b60208201526001600160a01b0382166111865760405162461bcd60e51b815260040161042f9190614daf565b50600480546001600160a01b0319166001600160a01b0383169081179091556040519081527fa05e64ea7e34b372177317c71229808e25bdbfe5dc3e6bc4fc7ca66c97d93276906020016104c5565b6000546001600160a01b0316331461122f5760405162461bcd60e51b815260206004820181905260248201527f4f776e61626c653a2063616c6c6572206973206e6f7420746865206f776e6572604482015260640161042f565b6001546001600160a01b031661124457600080fd5b600180546001600160a01b03191690556040516000907f69737d41162474a7ca514809b07d7becaecf72eae8c23bceb071f0e09af93ffc908290a2565b60005460408051808201909152600381526231313160e81b6020820152906001600160a01b031633146112c75760405162461bcd60e51b815260040161042f9190614daf565b506003805467ffffffffffffffff83811668010000000000000000027fffffffffffffffffffffffffffffffff0000000000000000ffffffffffffffff91861667ffffffffffffffff1990931692909217161790556040517f4e0575b6657dd07a883013977eb34af3deab3528c640a26ce02097f5351e8b7f9061137f906020016020808252600b908201527f666c617368436c6f736546000000000000000000000000000000000000000000604082015260600190565b60408051601f198184030181528282528051602091820120835267ffffffffffffffff8087169184019190915284169082015260600160405180910390a15050565b6004805460408051637fabc90b60e01b815290516001600160a01b0390921692637fabc90b928282019260209290829003018186803b15801561140357600080fd5b505afa158015611417573d6000803e3d6000fd5b505050506040513d601f19601f8201168201806040525081019061143b91906148c8565b6001600160a01b0316336001600160a01b0316146040518060400160405280600381526020016231313160e81b815250906114895760405162461bcd60e51b815260040161042f9190614daf565b506000836001600160a01b031663acb2d4106040518163ffffffff1660e01b815260040160206040518083038186803b1580156114c557600080fd5b505afa1580156114d9573d6000803e3d6000fd5b505050506040513d601f19601f820116820180604052508101906114fd91906148c8565b90506000846001600160a01b031663d8df4ce76040518163ffffffff1660e01b815260040160806040518083038186803b15801561153a57600080fd5b505afa15801561154e573d6000803e3d6000fd5b505050506040513d601f19601f820116820180604052508101906115729190614b85565b905060006001600160a01b03801682602001516001600160a01b03161461159a57600061159c565b845b9050856001600160a01b031663e5aa6d05828d8d896040518563ffffffff1660e01b81526004016115cf93929190614d09565b6000604051808303818588803b1580156115e857600080fd5b505af11580156115fc573d6000803e3d6000fd5b505060405163e897effb60e01b815260048101899052600093506001600160a01b038a16925063e897effb915060240160206040518083038186803b15801561164457600080fd5b505afa158015611658573d6000803e3d6000fd5b505050506040513d601f19601f8201168201806040525081019061167c9190614bed565b905060006116a98460000151856020015184898b61169a9190614f7f565b6116a49190614f7f565b61323b565b905061172e8d8d80806020026020016040519081016040528093929190818152602001838360200280828437600081840152601f19601f820116905080830192505050505050508c8c808060200260200160405190810160405280939291908181526020018383602002808284376000920191909152508992508d91508a905061360f565b60405162197ac760e01b8152600481018290526001600160a01b0389169062197ac790602401600060405180830381600087803b15801561176e57600080fd5b505af1158015611782573d6000803e3d6000fd5b5050855160208701516117b093509091508461179e8a8c614f7f565b6117a89190614f7f565b8460016138e9565b50611859600460009054906101000a90046001600160a01b03166001600160a01b0316637fabc90b6040518163ffffffff1660e01b815260040160206040518083038186803b15801561180257600080fd5b505afa158015611816573d6000803e3d6000fd5b505050506040513d601f19601f8201168201806040525081019061183a91906148c8565b611844888a614f7f565b60208701516001600160a01b03169190614196565b6000611866600584614f97565b905061188b8a61187683866150ea565b60208801516001600160a01b03169190614196565b611929600460009054906101000a90046001600160a01b03166001600160a01b0316633b19e84a6040518163ffffffff1660e01b815260040160206040518083038186803b1580156118dc57600080fd5b505afa1580156118f0573d6000803e3d6000fd5b505050506040513d601f19601f8201168201806040525081019061191491906148c8565b60208701516001600160a01b03169083614196565b60005b8d811015611a455760008f8f8381811061195657634e487b7160e01b600052603260045260246000fd5b905060200201602081019061196b91906148ac565b6001600160a01b031614611a3357896001600160a01b03168f8f838181106119a357634e487b7160e01b600052603260045260246000fd5b90506020020160208101906119b891906148ac565b6001600160a01b03167f60b8242c7715592d395c118b86e1c56e483030f45fab92e8694eda9f1a837f5e8f8f85818110611a0257634e487b7160e01b600052603260045260246000fd5b905060200201358e604051611a2a9291909182526001600160a01b0316602082015260400190565b60405180910390a35b611a3e600182614f7f565b905061192c565b505050505050505050505050505050565b60005460408051808201909152600381526231313160e81b6020820152906001600160a01b03163314611a9c5760405162461bcd60e51b815260040161042f9190614daf565b5060408051808201909152600381526203133360ec1b60208201526001600160a01b038216611ade5760405162461bcd60e51b815260040161042f9190614daf565b50600680546001600160a01b0319166001600160a01b0383169081179091556040519081527f7d7719313229e558c5a3893cad2eb86a86a049156d1d9ebd5c63a8eedefd1c03906020016104c5565b6004805460408051637fabc90b60e01b815290516001600160a01b0390921692637fabc90b928282019260209290829003018186803b158015611b6f57600080fd5b505afa158015611b83573d6000803e3d6000fd5b505050506040513d601f19601f82011682018060405250810190611ba791906148c8565b6001600160a01b0316336001600160a01b0316146040518060400160405280600381526020016231313160e81b81525090611bf55760405162461bcd60e51b815260040161042f9190614daf565b506000836001600160a01b031663acb2d4106040518163ffffffff1660e01b815260040160206040518083038186803b158015611c3157600080fd5b505afa158015611c45573d6000803e3d6000fd5b505050506040513d601f19601f82011682018060405250810190611c6991906148c8565b90506000846001600160a01b031663d8df4ce76040518163ffffffff1660e01b815260040160806040518083038186803b158015611ca657600080fd5b505afa158015611cba573d6000803e3d6000fd5b505050506040513d601f19601f82011682018060405250810190611cde9190614b85565b60035490915060009067ffffffffffffffff680100000000000000008204811691611d0a9116876150cb565b611d149190614f97565b6040517fdf6360a60000000000000000000000000000000000000000000000000000000081526001600160a01b03898116600483015291925060009188169063df6360a69060240160206040518083038186803b158015611d7457600080fd5b505afa158015611d88573d6000803e3d6000fd5b505050506040513d601f19601f82011682018060405250810190611dac9190614bed565b6060840151604051627eeac760e11b81526001600160a01b038b8116600483015267ffffffffffffffff9092166024820152919250600091839187169062fdd58e9060440160206040518083038186803b158015611e0957600080fd5b505afa158015611e1d573d6000803e3d6000fd5b505050506040513d601f19601f82011682018060405250810190611e419190614bed565b611e4b9190614f7f565b90506000611e6985600001518660200151868a8c61169a9190614f7f565b905060006001600160a01b03801686602001516001600160a01b031614611e91576000611e93565b885b60408051600180825281830190925291925060009190602080830190803683370190505090508b81600081518110611edb57634e487b7160e01b600052603260045260246000fd5b6001600160a01b0392831660209182029290920101526040517fe5aa6d05000000000000000000000000000000000000000000000000000000008152908c169063e5aa6d05908490611f339085908f90600401614d8d565b6000604051808303818588803b158015611f4c57600080fd5b505af1158015611f60573d6000803e3d6000fd5b5050505050838a141561210b576040808801519051627eeac760e11b81526001600160a01b038e8116600483015267ffffffffffffffff90921660248201526000918a169062fdd58e9060440160206040518083038186803b158015611fc557600080fd5b505afa158015611fd9573d6000803e3d6000fd5b505050506040513d601f19601f82011682018060405250810190611ffd9190614bed565b9050886001600160a01b031663f5298aca8e8a60400151846040518463ffffffff1660e01b8152600401612059939291906001600160a01b0393909316835267ffffffffffffffff919091166020830152604082015260600190565b600060405180830381600087803b15801561207357600080fd5b505af1158015612087573d6000803e3d6000fd5b505060405162197ac760e01b8152600481018490526001600160a01b038f16925062197ac79150602401600060405180830381600087803b1580156120cb57600080fd5b505af11580156120df573d6000803e3d6000fd5b505050506121058d85836120f391906150ea565b8a516001600160a01b03169190614196565b506121f6565b60408088015190517ff5298aca0000000000000000000000000000000000000000000000000000000081526001600160a01b038e8116600483015267ffffffffffffffff9092166024820152604481018590529089169063f5298aca90606401600060405180830381600087803b15801561218557600080fd5b505af1158015612199573d6000803e3d6000fd5b505060405162197ac760e01b8152600481018690526001600160a01b038e16925062197ac79150602401600060405180830381600087803b1580156121dd57600080fd5b505af11580156121f1573d6000803e3d6000fd5b505050505b8651602088015161221f91908861220d8d8f614f7f565b6122179190614f7f565b8660006138e9565b506122be600460009054906101000a90046001600160a01b03166001600160a01b0316633b19e84a6040518163ffffffff1660e01b815260040160206040518083038186803b15801561227157600080fd5b505afa158015612285573d6000803e3d6000fd5b505050506040513d601f19601f820116820180604052508101906122a991906148c8565b60208901516001600160a01b03169088614196565b612366600460009054906101000a90046001600160a01b03166001600160a01b0316637fabc90b6040518163ffffffff1660e01b815260040160206040518083038186803b15801561230f57600080fd5b505afa158015612323573d6000803e3d6000fd5b505050506040513d601f19601f8201168201806040525081019061234791906148c8565b6123518b8d614f7f565b60208a01516001600160a01b03169190614196565b876001600160a01b031663f5298aca8d8960600151888e61238791906150ea565b6040516001600160e01b031960e086901b1681526001600160a01b03909316600484015267ffffffffffffffff90911660248301526044820152606401600060405180830381600087803b1580156123de57600080fd5b505af11580156123f2573d6000803e3d6000fd5b505050508a6001600160a01b03168c6001600160a01b03167f3eeeaba10d85fe3ba0708f01d644ff55bbdf227dd736ce68eba30cd119514c128c60405161243b91815260200190565b60405180910390a3505050505050505050505050565b6000546001600160a01b031633146124ab5760405162461bcd60e51b815260206004820181905260248201527f4f776e61626c653a2063616c6c6572206973206e6f7420746865206f776e6572604482015260640161042f565b6001600160a01b0381166125015760405162461bcd60e51b815260206004820152601960248201527f43616e6e6f742070617373207a65726f20616464726573732100000000000000604482015260640161042f565b6001546001600160a01b03161561255a5760405162461bcd60e51b815260206004820152601960248201527f546865726520697320612070656e64696e67206f776e65722100000000000000604482015260640161042f565b600180546001600160a01b0319166001600160a01b0383169081179091556040517f69737d41162474a7ca514809b07d7becaecf72eae8c23bceb071f0e09af93ffc90600090a250565b6002805414156125f65760405162461bcd60e51b815260206004820152601f60248201527f5265656e7472616e637947756172643a207265656e7472616e742063616c6c00604482015260640161042f565b6002805560048054604051630f6ec81f60e01b81526001600160a01b0380851693820193909352839290911690630f6ec81f9060240160206040518083038186803b15801561264457600080fd5b505afa158015612658573d6000803e3d6000fd5b505050506040513d601f19601f8201168201806040525081019061267c9190614b2f565b6126b95760405162461bcd60e51b815260206004820152600e60248201526d496e76616c6964207661756c742160901b604482015260640161042f565b6000826001600160a01b031663d8df4ce76040518163ffffffff1660e01b815260040160806040518083038186803b1580156126f457600080fd5b505afa158015612708573d6000803e3d6000fd5b505050506040513d601f19601f8201168201806040525081019061272c9190614b85565b90506000836001600160a01b031663acb2d4106040518163ffffffff1660e01b815260040160206040518083038186803b15801561276957600080fd5b505afa15801561277d573d6000803e3d6000fd5b505050506040513d601f19601f820116820180604052508101906127a191906148c8565b9050836001600160a01b03166367ac280a6040518163ffffffff1660e01b8152600401600060405180830381600087803b1580156127de57600080fd5b505af11580156127f2573d6000803e3d6000fd5b50505050600080600061283c8989808060200260200160405190810160405280939291908181526020018383602002808284376000920191909152508992508b9150889050612ccf565b925092509250600081116040518060400160405280600381526020016206260760eb1b815250906128805760405162461bcd60e51b815260040161042f9190614daf565b5060208501516001600160a01b0390811614156128f557803410156040518060400160405280600381526020017f3130330000000000000000000000000000000000000000000000000000000000815250906128ef5760405162461bcd60e51b815260040161042f9190614daf565b506129e9565b6020850151604051636eb1769f60e11b815233600482015230602482015282916001600160a01b03169063dd62ed3e9060440160206040518083038186803b15801561294057600080fd5b505afa158015612954573d6000803e3d6000fd5b505050506040513d601f19601f820116820180604052508101906129789190614bed565b10156040518060400160405280600381526020017f3130370000000000000000000000000000000000000000000000000000000000815250906129ce5760405162461bcd60e51b815260040161042f9190614daf565b5060208501516129e9906001600160a01b031633898461426c565b60006001600160a01b03801686602001516001600160a01b031614612a0f576000612a11565b815b9050876001600160a01b031663e5aa6d058286856040518463ffffffff1660e01b8152600401612a42929190614d8d565b6000604051808303818588803b158015612a5b57600080fd5b505af1158015612a6f573d6000803e3d6000fd5b505060405163e897effb60e01b815260048101869052600093506001600160a01b038c16925063e897effb915060240160206040518083038186803b158015612ab757600080fd5b505afa158015612acb573d6000803e3d6000fd5b505050506040513d601f19601f82011682018060405250810190612aef9190614bed565b90506000612b0c8860000151896020015184876116a49190614f7f565b9050612b1b86868a8d8b61360f565b60405162197ac760e01b8152600481018290526001600160a01b038b169062197ac790602401600060405180830381600087803b158015612b5b57600080fd5b505af1158015612b6f573d6000803e3d6000fd5b5050895160208b0151612b8a93509091506117a88588614f7f565b50612bae33612b998487614f7f565b60208b01516001600160a01b03169190614196565b60005b8651811015612cbb5760006001600160a01b0316878281518110612be557634e487b7160e01b600052603260045260246000fd5b60200260200101516001600160a01b031614612ca9578a6001600160a01b0316878281518110612c2557634e487b7160e01b600052603260045260246000fd5b60200260200101516001600160a01b03167f60b8242c7715592d395c118b86e1c56e483030f45fab92e8694eda9f1a837f5e888481518110612c7757634e487b7160e01b600052603260045260246000fd5b602002602001015133604051612ca09291909182526001600160a01b0316602082015260400190565b60405180910390a35b612cb4600182614f7f565b9050612bb1565b505060016002555050505050505050505050565b6060806000865167ffffffffffffffff811115612cfc57634e487b7160e01b600052604160045260246000fd5b604051908082528060200260200182016040528015612d25578160200160208202803683370190505b5092506000875167ffffffffffffffff811115612d5257634e487b7160e01b600052604160045260246000fd5b604051908082528060200260200182016040528015612d7b578160200160208202803683370190505b5090506000885167ffffffffffffffff811115612da857634e487b7160e01b600052604160045260246000fd5b604051908082528060200260200182016040528015612dd1578160200160208202803683370190505b50905060005b8951811015612e6757886040015167ffffffffffffffff16828281518110612e0f57634e487b7160e01b600052603260045260246000fd5b602002602001018181525050886060015167ffffffffffffffff16838281518110612e4a57634e487b7160e01b600052603260045260246000fd5b6020908102919091010152612e60600182614f7f565b9050612dd7565b506040517f4e1273f40000000000000000000000000000000000000000000000000000000081526001600160a01b03871690634e1273f490612eaf908c908690600401614d5f565b60006040518083038186803b158015612ec757600080fd5b505afa158015612edb573d6000803e3d6000fd5b505050506040513d6000823e601f3d908101601f19168201604052612f039190810190614a88565b93506000866001600160a01b0316634e1273f48b846040518363ffffffff1660e01b8152600401612f35929190614d5f565b60006040518083038186803b158015612f4d57600080fd5b505afa158015612f61573d6000803e3d6000fd5b505050506040513d6000823e601f3d908101601f19168201604052612f899190810190614a88565b90506000805b8b5181101561322c57896001600160a01b03166390d7bfae888381518110612fc757634e487b7160e01b600052603260045260246000fd5b602002602001015160016040518363ffffffff1660e01b8152600401612ff99291909182521515602082015260400190565b60206040518083038186803b15801561301157600080fd5b505afa158015613025573d6000803e3d6000fd5b505050506040513d601f19601f820116820180604052508101906130499190614bed565b91508183828151811061306c57634e487b7160e01b600052603260045260246000fd5b602002602001015110156131d7578b818151811061309a57634e487b7160e01b600052603260045260246000fd5b60200260200101518882815181106130c257634e487b7160e01b600052603260045260246000fd5b60200260200101906001600160a01b031690816001600160a01b031681525050896001600160a01b031663df6360a689838151811061311157634e487b7160e01b600052603260045260246000fd5b60200260200101516040518263ffffffff1660e01b815260040161314491906001600160a01b0391909116815260200190565b60206040518083038186803b15801561315c57600080fd5b505afa158015613170573d6000803e3d6000fd5b505050506040513d601f19601f820116820180604052508101906131949190614bed565b8782815181106131b457634e487b7160e01b600052603260045260246000fd5b60200260200101516131c69190614f7f565b6131d09087614f7f565b955061321a565b60008882815181106131f957634e487b7160e01b600052603260045260246000fd5b60200260200101906001600160a01b031690816001600160a01b0316815250505b613225600182614f7f565b9050612f8f565b50505050509450945094915050565b600080600660009054906101000a90046001600160a01b03166001600160a01b031663ad5c46486040518163ffffffff1660e01b815260040160206040518083038186803b15801561328c57600080fd5b505afa1580156132a0573d6000803e3d6000fd5b505050506040513d601f19601f820116820180604052508101906132c491906148c8565b905060606001600160a01b0386811614806132f05750816001600160a01b0316866001600160a01b0316145b1561339e576040805160028082526060820183529091602083019080368337019050509050818160008151811061333757634e487b7160e01b600052603260045260246000fd5b60200260200101906001600160a01b031690816001600160a01b031681525050848160018151811061337957634e487b7160e01b600052603260045260246000fd5b60200260200101906001600160a01b031690816001600160a01b031681525050613537565b6001600160a01b0385811614806133c65750816001600160a01b0316856001600160a01b0316145b1561344f576040805160028082526060820183529091602083019080368337019050509050858160008151811061340d57634e487b7160e01b600052603260045260246000fd5b60200260200101906001600160a01b031690816001600160a01b031681525050818160018151811061337957634e487b7160e01b600052603260045260246000fd5b604080516003808252608082019092529060208201606080368337019050509050858160008151811061349257634e487b7160e01b600052603260045260246000fd5b60200260200101906001600160a01b031690816001600160a01b03168152505081816001815181106134d457634e487b7160e01b600052603260045260246000fd5b60200260200101906001600160a01b031690816001600160a01b031681525050848160028151811061351657634e487b7160e01b600052603260045260246000fd5b60200260200101906001600160a01b031690816001600160a01b0316815250505b6006546040517f1f00ca740000000000000000000000000000000000000000000000000000000081526000916001600160a01b031690631f00ca74906135839088908690600401614ec4565b60006040518083038186803b15801561359b57600080fd5b505afa1580156135af573d6000803e3d6000fd5b505050506040513d6000823e601f3d908101601f191682016040526135d79190810190614a88565b9050806000815181106135fa57634e487b7160e01b600052603260045260246000fd5b602002602001015193505050505b9392505050565b60008060005b87518110156138df5760006001600160a01b031688828151811061364957634e487b7160e01b600052603260045260246000fd5b60200260200101516001600160a01b0316146138cd57846001600160a01b031663e897effb88838151811061368e57634e487b7160e01b600052603260045260246000fd5b60200260200101516040518263ffffffff1660e01b81526004016136b491815260200190565b60206040518083038186803b1580156136cc57600080fd5b505afa1580156136e0573d6000803e3d6000fd5b505050506040513d601f19601f820116820180604052508101906137049190614bed565b925061374686600001518760200151858a858151811061373457634e487b7160e01b600052603260045260246000fd5b60200260200101516116a49190614f7f565b9150836001600160a01b031663f5298aca89838151811061377757634e487b7160e01b600052603260045260246000fd5b602002602001015188606001518a85815181106137a457634e487b7160e01b600052603260045260246000fd5b60209081029190910101516040516001600160e01b031960e086901b1681526001600160a01b03909316600484015267ffffffffffffffff90911660248301526044820152606401600060405180830381600087803b15801561380657600080fd5b505af115801561381a573d6000803e3d6000fd5b50505050836001600160a01b031663f5298aca89838151811061384d57634e487b7160e01b600052603260045260246000fd5b60209081029190910101516040808a015190516001600160e01b031960e085901b1681526001600160a01b03909216600483015267ffffffffffffffff16602482015260448101859052606401600060405180830381600087803b1580156138b457600080fd5b505af11580156138c8573d6000803e3d6000fd5b505050505b6138d8600182614f7f565b9050613615565b5050505050505050565b60008115613b7b576000806001600160a01b03888116141561390e5760129150613982565b876001600160a01b031663313ce5676040518163ffffffff1660e01b815260040160206040518083038186803b15801561394757600080fd5b505afa15801561395b573d6000803e3d6000fd5b505050506040513d601f19601f8201168201806040525081019061397f9190614c3d565b91505b6001600160a01b03878116141561399b57506012613a0f565b866001600160a01b031663313ce5676040518163ffffffff1660e01b815260040160206040518083038186803b1580156139d457600080fd5b505afa1580156139e8573d6000803e3d6000fd5b505050506040513d601f19601f82011682018060405250810190613a0c9190614c3d565b90505b600086613a2060ff8416600a614ffd565b613a2a90886150cb565b613a349190614f97565b6005546040517f721adea70000000000000000000000000000000000000000000000000000000081526001600160a01b038c811660048301528b8116602483015260ff871660448301529293506000929091169063721adea79060640160206040518083038186803b158015613aa957600080fd5b505afa158015613abd573d6000803e3d6000fd5b505050506040513d601f19601f82011682018060405250810190613ae19190614bed565b90506000818311613afb57613af683836150ea565b613b05565b613b0582846150ea565b9050600282613b156064846150cb565b613b1f9190614f97565b106040518060400160405280600381526020017f313239000000000000000000000000000000000000000000000000000000000081525090613b745760405162461bcd60e51b815260040161042f9190614daf565b5050505050505b600654604080517fad5c464800000000000000000000000000000000000000000000000000000000815290516000926001600160a01b03169163ad5c4648916004808301926020929190829003018186803b158015613bd957600080fd5b505afa158015613bed573d6000803e3d6000fd5b505050506040513d601f19601f82011682018060405250810190613c1191906148c8565b90506060806001600160a01b038981161415613d665760408051600280825260608201835290916020830190803683370190505091508282600081518110613c6957634e487b7160e01b600052603260045260246000fd5b60200260200101906001600160a01b031690816001600160a01b0316815250508782600181518110613cab57634e487b7160e01b600052603260045260246000fd5b6001600160a01b0392831660209182029290920101526006546040517ffb3bdb4100000000000000000000000000000000000000000000000000000000815291169063fb3bdb41908890613d09908b90879030904290600401614edd565b6000604051808303818588803b158015613d2257600080fd5b505af1158015613d36573d6000803e3d6000fd5b50505050506040513d6000823e601f3d908101601f19168201604052613d5f9190810190614a88565b9050614155565b6001600160a01b038881161415613eca5760408051600280825260608201835290916020830190803683370190505091508882600081518110613db957634e487b7160e01b600052603260045260246000fd5b60200260200101906001600160a01b031690816001600160a01b0316815250508282600181518110613dfb57634e487b7160e01b600052603260045260246000fd5b6001600160a01b039283166020918202929092010152600654613e23918b811691168861430b565b6006546040517f4a25d94a0000000000000000000000000000000000000000000000000000000081526001600160a01b0390911690634a25d94a90613e74908a908a90879030904290600401614f12565b600060405180830381600087803b158015613e8e57600080fd5b505af1158015613ea2573d6000803e3d6000fd5b505050506040513d6000823e601f3d908101601f19168201604052613d5f9190810190614a88565b826001600160a01b0316896001600160a01b03161480613efb5750826001600160a01b0316886001600160a01b0316145b15613fa95760408051600280825260608201835290916020830190803683370190505091508882600081518110613f4257634e487b7160e01b600052603260045260246000fd5b60200260200101906001600160a01b031690816001600160a01b0316815250508782600181518110613f8457634e487b7160e01b600052603260045260246000fd5b60200260200101906001600160a01b031690816001600160a01b031681525050614091565b6040805160038082526080820190925290602082016060803683370190505091508882600081518110613fec57634e487b7160e01b600052603260045260246000fd5b60200260200101906001600160a01b031690816001600160a01b031681525050828260018151811061402e57634e487b7160e01b600052603260045260246000fd5b60200260200101906001600160a01b031690816001600160a01b031681525050878260028151811061407057634e487b7160e01b600052603260045260246000fd5b60200260200101906001600160a01b031690816001600160a01b0316815250505b6006546140ab906001600160a01b038b811691168861430b565b6006546040517f8803dbee0000000000000000000000000000000000000000000000000000000081526001600160a01b0390911690638803dbee906140fc908a908a90879030904290600401614f12565b600060405180830381600087803b15801561411657600080fd5b505af115801561412a573d6000803e3d6000fd5b505050506040513d6000823e601f3d908101601f191682016040526141529190810190614a88565b90505b8060008151811061417657634e487b7160e01b600052603260045260246000fd5b60200260200101518661418991906150ea565b9998505050505050505050565b8015614267576141a58361443c565b15614253576000826001600160a01b03168260405160006040518083038185875af1925050503d80600081146141f7576040519150601f19603f3d011682016040523d82523d6000602084013e6141fc565b606091505b505090508061424d5760405162461bcd60e51b815260206004820152601360248201527f4661696c656420746f2073656e64204156415800000000000000000000000000604482015260640161042f565b50614267565b6142676001600160a01b0384168383614462565b505050565b6040516001600160a01b03808516602483015283166044820152606481018290526143059085907f23b872dd00000000000000000000000000000000000000000000000000000000906084015b60408051601f198184030181529190526020810180517bffffffffffffffffffffffffffffffffffffffffffffffffffffffff166001600160e01b0319909316929092179091526144ab565b50505050565b6143148361443c565b156143615760405162461bcd60e51b815260206004820152601660248201527f417070726f76652063616c6c6564206f6e204156415800000000000000000000604482015260640161042f565b806143805761437b6001600160a01b038416836000614590565b614267565b604051636eb1769f60e11b81523060048201526001600160a01b0383811660248301526000919085169063dd62ed3e9060440160206040518083038186803b1580156143cb57600080fd5b505afa1580156143df573d6000803e3d6000fd5b505050506040513d601f19601f820116820180604052508101906144039190614bed565b905081811015614305578015614428576144286001600160a01b038516846000614590565b6143056001600160a01b0385168484614590565b60006001600160a01b038216158061445c57506001600160a01b03828116145b92915050565b6040516001600160a01b0383166024820152604481018290526142679084907fa9059cbb00000000000000000000000000000000000000000000000000000000906064016142b9565b6000614500826040518060400160405280602081526020017f5361666545524332303a206c6f772d6c6576656c2063616c6c206661696c6564815250856001600160a01b03166146d49092919063ffffffff16565b805190915015614267578080602001905181019061451e9190614b2f565b6142675760405162461bcd60e51b815260206004820152602a60248201527f5361666545524332303a204552433230206f7065726174696f6e20646964206e60448201527f6f74207375636365656400000000000000000000000000000000000000000000606482015260840161042f565b8015806146195750604051636eb1769f60e11b81523060048201526001600160a01b03838116602483015284169063dd62ed3e9060440160206040518083038186803b1580156145df57600080fd5b505afa1580156145f3573d6000803e3d6000fd5b505050506040513d601f19601f820116820180604052508101906146179190614bed565b155b61468b5760405162461bcd60e51b815260206004820152603660248201527f5361666545524332303a20617070726f76652066726f6d206e6f6e2d7a65726f60448201527f20746f206e6f6e2d7a65726f20616c6c6f77616e636500000000000000000000606482015260840161042f565b6040516001600160a01b0383166024820152604481018290526142679084907f095ea7b300000000000000000000000000000000000000000000000000000000906064016142b9565b60606146e384846000856146eb565b949350505050565b6060824710156147635760405162461bcd60e51b815260206004820152602660248201527f416464726573733a20696e73756666696369656e742062616c616e636520666f60448201527f722063616c6c0000000000000000000000000000000000000000000000000000606482015260840161042f565b843b6147b15760405162461bcd60e51b815260206004820152601d60248201527f416464726573733a2063616c6c20746f206e6f6e2d636f6e7472616374000000604482015260640161042f565b600080866001600160a01b031685876040516147cd9190614ced565b60006040518083038185875af1925050503d806000811461480a576040519150601f19603f3d011682016040523d82523d6000602084013e61480f565b606091505b509150915061481f82828661482a565b979650505050505050565b60608315614839575081613608565b8251156148495782518084602001fd5b8160405162461bcd60e51b815260040161042f9190614daf565b60008083601f840112614874578182fd5b50813567ffffffffffffffff81111561488b578182fd5b60208301915083602080830285010111156148a557600080fd5b9250929050565b6000602082840312156148bd578081fd5b813561360881615159565b6000602082840312156148d9578081fd5b815161360881615159565b600080600080608085870312156148f9578283fd5b843561490481615159565b9350602085013561491481615159565b93969395505050506040820135916060013590565b60008060006040848603121561493d578283fd5b833567ffffffffffffffff811115614953578384fd5b61495f86828701614863565b909450925050602084013561497381615159565b809150509250925092565b60008060008060608587031215614993578384fd5b843567ffffffffffffffff8111156149a9578485fd5b6149b587828801614863565b90955093505060208501356149c981615159565b915060408501356149d981615187565b939692955090935050565b60008060008060008060008060c0898b0312156149ff578384fd5b883567ffffffffffffffff80821115614a16578586fd5b614a228c838d01614863565b909a50985060208b0135915080821115614a3a578586fd5b50614a478b828c01614863565b9097509550506040890135614a5b81615159565b93506060890135614a6b81615159565b979a969950949793969295929450505060808201359160a0013590565b60006020808385031215614a9a578182fd5b825167ffffffffffffffff80821115614ab1578384fd5b818501915085601f830112614ac4578384fd5b815181811115614ad657614ad6615143565b8381029150614ae6848301614f4e565b8181528481019084860184860187018a1015614b00578788fd5b8795505b83861015614b22578051835260019590950194918601918601614b04565b5098975050505050505050565b600060208284031215614b40578081fd5b81518015158114613608578182fd5b600080600060608486031215614b63578081fd5b833592506020840135614b7581615159565b9150604084013561497381615187565b600060808284031215614b96578081fd5b614ba06080614f4e565b8251614bab81615159565b81526020830151614bbb81615159565b60208201526040830151614bce81615171565b60408201526060830151614be181615171565b60608201529392505050565b600060208284031215614bfe578081fd5b5051919050565b60008060408385031215614c17578182fd5b8235614c2281615171565b91506020830135614c3281615171565b809150509250929050565b600060208284031215614c4e578081fd5b815161360881615187565b6000815180845260208085019450808401835b83811015614c915781516001600160a01b031687529582019590820190600101614c6c565b509495945050505050565b6000815180845260208085019450808401835b83811015614c9157815187529582019590820190600101614caf565b60038110614ce957634e487b7160e01b600052602160045260246000fd5b9052565b60008251614cff818460208701615101565b9190910192915050565b6040808252810183905260008460608301825b86811015614d4c578235614d2f81615159565b6001600160a01b0316825260209283019290910190600101614d1c565b5060209390930193909352509392505050565b600060408252614d726040830185614c59565b8281036020840152614d848185614c9c565b95945050505050565b600060408252614da06040830185614c59565b90508260208301529392505050565b6000602082528251806020840152614dce816040850160208701615101565b601f01601f19169190910160400192915050565b600060408252614df6604083018551614ccb565b60208401516001600160a01b0381166060840152506040840151608083015260608401516001600160a01b03811660a08401525060808401516001600160a01b03811660c08401525060a08401516101208060e0850152614e5b610160850183614c59565b915060c0860151610100603f198685030181870152614e7a8483614c9c565b935060e08801519150614e97838701836001600160a01b03169052565b8701516001600160a01b0381166101408701529150614eb39050565b5060ff841660208401529050613608565b6000838252604060208301526146e36040830184614c59565b600085825260806020830152614ef66080830186614c59565b6001600160a01b03949094166040830152506060015292915050565b600086825285602083015260a06040830152614f3160a0830186614c59565b6001600160a01b0394909416606083015250608001529392505050565b604051601f8201601f1916810167ffffffffffffffff81118282101715614f7757614f77615143565b604052919050565b60008219821115614f9257614f9261512d565b500190565b600082614fb257634e487b7160e01b81526012600452602481fd5b500490565b80825b6001808611614fc95750614ff4565b818704821115614fdb57614fdb61512d565b80861615614fe857918102915b9490941c938002614fba565b94509492505050565b6000613608600019848460008261501657506001613608565b8161502357506000613608565b8160018114615039576002811461504357615070565b6001915050613608565b60ff8411156150545761505461512d565b6001841b91508482111561506a5761506a61512d565b50613608565b5060208310610133831016604e8410600b84101617156150a3575081810a8381111561509e5761509e61512d565b613608565b6150b08484846001614fb7565b8086048211156150c2576150c261512d565b02949350505050565b60008160001904831182151516156150e5576150e561512d565b500290565b6000828210156150fc576150fc61512d565b500390565b60005b8381101561511c578181015183820152602001615104565b838111156143055750506000910152565b634e487b7160e01b600052601160045260246000fd5b634e487b7160e01b600052604160045260246000fd5b6001600160a01b038116811461516e57600080fd5b50565b67ffffffffffffffff8116811461516e57600080fd5b60ff8116811461516e57600080fdfea264697066735822122038b13cbdf1baf2a802faf4d28331d1528b5ffc973894bf4d41045d1e3dc28f0864736f6c63430008020033",
  "linkReferences": {},
  "deployedLinkReferences": {}
}