{
  "_format": "hh-sol-artifact-1",
  "contractName": "FujiERC1155",
  "sourceName": "contracts/FujiERC1155.sol",
  "abi": [
    {
      "anonymous": false,
      "inputs": [
        {
          "indexed": true,
          "internalType": "address",
          "name": "account",
          "type": "address"
        },
        {
          "indexed": true,
          "internalType": "address",
          "name": "operator",
          "type": "address"
        },
        {
          "indexed": false,
          "internalType": "bool",
          "name": "approved",
          "type": "bool"
        }
      ],
      "name": "ApprovalForAll",
      "type": "event"
    },
    {
      "anonymous": false,
      "inputs": [
        {
          "indexed": true,
          "internalType": "address",
          "name": "owner",
          "type": "address"
        }
      ],
      "name": "NewPendingOwner",
      "type": "event"
    },
    {
      "anonymous": false,
      "inputs": [
        {
          "indexed": true,
          "internalType": "address",
          "name": "previousOwner",
          "type": "address"
        },
        {
          "indexed": true,
          "internalType": "address",
          "name": "newOwner",
          "type": "address"
        }
      ],
      "name": "OwnershipTransferred",
      "type": "event"
    },
    {
      "anonymous": false,
      "inputs": [
        {
          "indexed": false,
          "internalType": "address",
          "name": "vaultAddress",
          "type": "address"
        },
        {
          "indexed": false,
          "internalType": "bool",
          "name": "newPermit",
          "type": "bool"
        }
      ],
      "name": "PermitChanged",
      "type": "event"
    },
    {
      "anonymous": false,
      "inputs": [
        {
          "indexed": true,
          "internalType": "address",
          "name": "operator",
          "type": "address"
        },
        {
          "indexed": true,
          "internalType": "address",
          "name": "from",
          "type": "address"
        },
        {
          "indexed": true,
          "internalType": "address",
          "name": "to",
          "type": "address"
        },
        {
          "indexed": false,
          "internalType": "uint256[]",
          "name": "ids",
          "type": "uint256[]"
        },
        {
          "indexed": false,
          "internalType": "uint256[]",
          "name": "values",
          "type": "uint256[]"
        }
      ],
      "name": "TransferBatch",
      "type": "event"
    },
    {
      "anonymous": false,
      "inputs": [
        {
          "indexed": true,
          "internalType": "address",
          "name": "operator",
          "type": "address"
        },
        {
          "indexed": true,
          "internalType": "address",
          "name": "from",
          "type": "address"
        },
        {
          "indexed": true,
          "internalType": "address",
          "name": "to",
          "type": "address"
        },
        {
          "indexed": false,
          "internalType": "uint256",
          "name": "id",
          "type": "uint256"
        },
        {
          "indexed": false,
          "internalType": "uint256",
          "name": "value",
          "type": "uint256"
        }
      ],
      "name": "TransferSingle",
      "type": "event"
    },
    {
      "anonymous": false,
      "inputs": [
        {
          "indexed": false,
          "internalType": "string",
          "name": "value",
          "type": "string"
        },
        {
          "indexed": true,
          "internalType": "uint256",
          "name": "id",
          "type": "uint256"
        }
      ],
      "name": "URI",
      "type": "event"
    },
    {
      "anonymous": false,
      "inputs": [
        {
          "indexed": false,
          "internalType": "string",
          "name": "newUri",
          "type": "string"
        }
      ],
      "name": "URIGlobalChanged",
      "type": "event"
    },
    {
      "inputs": [
        {
          "internalType": "enum IFujiERC1155.AssetType",
          "name": "_type",
          "type": "uint8"
        },
        {
          "internalType": "address",
          "name": "_addr",
          "type": "address"
        }
      ],
      "name": "addInitializeAsset",
      "outputs": [
        {
          "internalType": "uint64",
          "name": "",
          "type": "uint64"
        }
      ],
      "stateMutability": "nonpayable",
      "type": "function"
    },
    {
      "inputs": [
        {
          "internalType": "address",
          "name": "",
          "type": "address"
        }
      ],
      "name": "addrPermit",
      "outputs": [
        {
          "internalType": "bool",
          "name": "",
          "type": "bool"
        }
      ],
      "stateMutability": "view",
      "type": "function"
    },
    {
      "inputs": [
        {
          "internalType": "enum IFujiERC1155.AssetType",
          "name": "",
          "type": "uint8"
        },
        {
          "internalType": "address",
          "name": "",
          "type": "address"
        }
      ],
      "name": "assetIDs",
      "outputs": [
        {
          "internalType": "uint256",
          "name": "",
          "type": "uint256"
        }
      ],
      "stateMutability": "view",
      "type": "function"
    },
    {
      "inputs": [
        {
          "internalType": "uint256",
          "name": "",
          "type": "uint256"
        }
      ],
      "name": "assetIDtype",
      "outputs": [
        {
          "internalType": "enum IFujiERC1155.AssetType",
          "name": "",
          "type": "uint8"
        }
      ],
      "stateMutability": "view",
      "type": "function"
    },
    {
      "inputs": [
        {
          "internalType": "address",
          "name": "_account",
          "type": "address"
        },
        {
          "internalType": "uint256",
          "name": "_assetID",
          "type": "uint256"
        }
      ],
      "name": "balanceOf",
      "outputs": [
        {
          "internalType": "uint256",
          "name": "",
          "type": "uint256"
        }
      ],
      "stateMutability": "view",
      "type": "function"
    },
    {
      "inputs": [
        {
          "internalType": "address[]",
          "name": "accounts",
          "type": "address[]"
        },
        {
          "internalType": "uint256[]",
          "name": "ids",
          "type": "uint256[]"
        }
      ],
      "name": "balanceOfBatch",
      "outputs": [
        {
          "internalType": "uint256[]",
          "name": "",
          "type": "uint256[]"
        }
      ],
      "stateMutability": "view",
      "type": "function"
    },
    {
      "inputs": [
        {
          "internalType": "address",
          "name": "_account",
          "type": "address"
        },
        {
          "internalType": "uint256",
          "name": "_id",
          "type": "uint256"
        },
        {
          "internalType": "uint256",
          "name": "_amount",
          "type": "uint256"
        }
      ],
      "name": "burn",
      "outputs": [],
      "stateMutability": "nonpayable",
      "type": "function"
    },
    {
      "inputs": [
        {
          "internalType": "address",
          "name": "_account",
          "type": "address"
        },
        {
          "internalType": "uint256[]",
          "name": "_ids",
          "type": "uint256[]"
        },
        {
          "internalType": "uint256[]",
          "name": "_amounts",
          "type": "uint256[]"
        }
      ],
      "name": "burnBatch",
      "outputs": [],
      "stateMutability": "nonpayable",
      "type": "function"
    },
    {
      "inputs": [],
      "name": "cancelTransferOwnership",
      "outputs": [],
      "stateMutability": "nonpayable",
      "type": "function"
    },
    {
      "inputs": [],
      "name": "claimOwnership",
      "outputs": [],
      "stateMutability": "nonpayable",
      "type": "function"
    },
    {
      "inputs": [
        {
          "internalType": "enum IFujiERC1155.AssetType",
          "name": "_type",
          "type": "uint8"
        },
        {
          "internalType": "address",
          "name": "_addr",
          "type": "address"
        }
      ],
      "name": "getAssetID",
      "outputs": [
        {
          "internalType": "uint256",
          "name": "id",
          "type": "uint256"
        }
      ],
      "stateMutability": "view",
      "type": "function"
    },
    {
      "inputs": [
        {
          "internalType": "uint256",
          "name": "",
          "type": "uint256"
        }
      ],
      "name": "indexes",
      "outputs": [
        {
          "internalType": "uint256",
          "name": "",
          "type": "uint256"
        }
      ],
      "stateMutability": "view",
      "type": "function"
    },
    {
      "inputs": [],
      "name": "initialize",
      "outputs": [],
      "stateMutability": "nonpayable",
      "type": "function"
    },
    {
      "inputs": [
        {
          "internalType": "address",
          "name": "account",
          "type": "address"
        },
        {
          "internalType": "address",
          "name": "operator",
          "type": "address"
        }
      ],
      "name": "isApprovedForAll",
      "outputs": [
        {
          "internalType": "bool",
          "name": "",
          "type": "bool"
        }
      ],
      "stateMutability": "view",
      "type": "function"
    },
    {
      "inputs": [
        {
          "internalType": "address",
          "name": "_account",
          "type": "address"
        },
        {
          "internalType": "uint256",
          "name": "_id",
          "type": "uint256"
        },
        {
          "internalType": "uint256",
          "name": "_amount",
          "type": "uint256"
        }
      ],
      "name": "mint",
      "outputs": [],
      "stateMutability": "nonpayable",
      "type": "function"
    },
    {
      "inputs": [
        {
          "internalType": "address",
          "name": "_to",
          "type": "address"
        },
        {
          "internalType": "uint256[]",
          "name": "_ids",
          "type": "uint256[]"
        },
        {
          "internalType": "uint256[]",
          "name": "_amounts",
          "type": "uint256[]"
        }
      ],
      "name": "mintBatch",
      "outputs": [],
      "stateMutability": "nonpayable",
      "type": "function"
    },
    {
      "inputs": [],
      "name": "owner",
      "outputs": [
        {
          "internalType": "address",
          "name": "",
          "type": "address"
        }
      ],
      "stateMutability": "view",
      "type": "function"
    },
    {
      "inputs": [],
      "name": "pendingOwner",
      "outputs": [
        {
          "internalType": "address",
          "name": "",
          "type": "address"
        }
      ],
      "stateMutability": "view",
      "type": "function"
    },
    {
      "inputs": [],
      "name": "qtyOfManagedAssets",
      "outputs": [
        {
          "internalType": "uint64",
          "name": "",
          "type": "uint64"
        }
      ],
      "stateMutability": "view",
      "type": "function"
    },
    {
      "inputs": [],
      "name": "renounceOwnership",
      "outputs": [],
      "stateMutability": "nonpayable",
      "type": "function"
    },
    {
      "inputs": [
        {
          "internalType": "address",
          "name": "",
          "type": "address"
        },
        {
          "internalType": "address",
          "name": "",
          "type": "address"
        },
        {
          "internalType": "uint256[]",
          "name": "",
          "type": "uint256[]"
        },
        {
          "internalType": "uint256[]",
          "name": "",
          "type": "uint256[]"
        },
        {
          "internalType": "bytes",
          "name": "",
          "type": "bytes"
        }
      ],
      "name": "safeBatchTransferFrom",
      "outputs": [],
      "stateMutability": "nonpayable",
      "type": "function"
    },
    {
      "inputs": [
        {
          "internalType": "address",
          "name": "",
          "type": "address"
        },
        {
          "internalType": "address",
          "name": "",
          "type": "address"
        },
        {
          "internalType": "uint256",
          "name": "",
          "type": "uint256"
        },
        {
          "internalType": "uint256",
          "name": "",
          "type": "uint256"
        },
        {
          "internalType": "bytes",
          "name": "",
          "type": "bytes"
        }
      ],
      "name": "safeTransferFrom",
      "outputs": [],
      "stateMutability": "nonpayable",
      "type": "function"
    },
    {
      "inputs": [
        {
          "internalType": "address",
          "name": "_account",
          "type": "address"
        },
        {
          "internalType": "uint256",
          "name": "_assetID",
          "type": "uint256"
        }
      ],
      "name": "scaledBalanceOf",
      "outputs": [
        {
          "internalType": "uint256",
          "name": "",
          "type": "uint256"
        }
      ],
      "stateMutability": "view",
      "type": "function"
    },
    {
      "inputs": [
        {
          "internalType": "uint256",
          "name": "_assetID",
          "type": "uint256"
        }
      ],
      "name": "scaledTotalSupply",
      "outputs": [
        {
          "internalType": "uint256",
          "name": "",
          "type": "uint256"
        }
      ],
      "stateMutability": "view",
      "type": "function"
    },
    {
      "inputs": [
        {
          "internalType": "address",
          "name": "operator",
          "type": "address"
        },
        {
          "internalType": "bool",
          "name": "approved",
          "type": "bool"
        }
      ],
      "name": "setApprovalForAll",
      "outputs": [],
      "stateMutability": "nonpayable",
      "type": "function"
    },
    {
      "inputs": [
        {
          "internalType": "address",
          "name": "_address",
          "type": "address"
        },
        {
          "internalType": "bool",
          "name": "_permit",
          "type": "bool"
        }
      ],
      "name": "setPermit",
      "outputs": [],
      "stateMutability": "nonpayable",
      "type": "function"
    },
    {
      "inputs": [
        {
          "internalType": "string",
          "name": "_newUri",
          "type": "string"
        }
      ],
      "name": "setURI",
      "outputs": [],
      "stateMutability": "nonpayable",
      "type": "function"
    },
    {
      "inputs": [
        {
          "internalType": "bytes4",
          "name": "interfaceId",
          "type": "bytes4"
        }
      ],
      "name": "supportsInterface",
      "outputs": [
        {
          "internalType": "bool",
          "name": "",
          "type": "bool"
        }
      ],
      "stateMutability": "view",
      "type": "function"
    },
    {
      "inputs": [
        {
          "internalType": "uint256",
          "name": "_assetID",
          "type": "uint256"
        }
      ],
      "name": "totalSupply",
      "outputs": [
        {
          "internalType": "uint256",
          "name": "",
          "type": "uint256"
        }
      ],
      "stateMutability": "view",
      "type": "function"
    },
    {
      "inputs": [
        {
          "internalType": "address",
          "name": "newOwner",
          "type": "address"
        }
      ],
      "name": "transferOwnership",
      "outputs": [],
      "stateMutability": "nonpayable",
      "type": "function"
    },
    {
      "inputs": [
        {
          "internalType": "uint256",
          "name": "_assetID",
          "type": "uint256"
        },
        {
          "internalType": "uint256",
          "name": "newBalance",
          "type": "uint256"
        }
      ],
      "name": "updateState",
      "outputs": [],
      "stateMutability": "nonpayable",
      "type": "function"
    },
    {
      "inputs": [
        {
          "internalType": "uint256",
          "name": "",
          "type": "uint256"
        }
      ],
      "name": "uri",
      "outputs": [
        {
          "internalType": "string",
          "name": "",
          "type": "string"
        }
      ],
      "stateMutability": "view",
      "type": "function"
    }
  ],
  "bytecode": "0x608060405234801561001057600080fd5b50612793806100206000396000f3fe608060405234801561001057600080fd5b50600436106101ee5760003560e01c80638da5cb5b1161010f578063bd85b039116100a2578063e985e9c511610071578063e985e9c514610498578063f242432a146104d4578063f2fde38b146104e2578063f5298aca146104f5576101ee565b8063bd85b0391461044c578063ccf252611461045f578063d81d0a1514610472578063e30c397814610485576101ee565b80639d763d57116100de5780639d763d57146103d8578063a22cb465146103eb578063a6d2823c146103fe578063aa39404b14610429576101ee565b80638da5cb5b146103785780639270891a1461039d57806392f8eb94146103b057806392fede00146103d0576101ee565b806330e2d1ed116101875780636b20c454116101565780636b20c45414610342578063715018a61461035557806377e3d4b61461035d5780638129fc1c14610370576101ee565b806330e2d1ed146102f45780634e1273f4146103075780634e71e0c8146103275780635eb62f631461032f576101ee565b80630ac77c32116101c35780630ac77c321461027e5780630e89341c146102ae578063156e29f6146102ce5780632eb2c2d6146102e1576101ee565b8062bf8e7b146101f3578062fdd58e1461022557806301ffc9a71461024657806302fe530514610269575b600080fd5b606e546102079067ffffffffffffffff1681565b60405167ffffffffffffffff90911681526020015b60405180910390f35b6102386102333660046122f1565b610508565b60405190815260200161021c565b61025961025436600461240a565b61054a565b604051901515815260200161021c565b61027c610277366004612452565b6105e9565b005b6102a161028c366004612498565b606d6020526000908152604090205460ff1681565b60405161021c919061254c565b6102c16102bc366004612498565b610696565b60405161021c9190612574565b61027c6102dc36600461231a565b61072a565b61027c6102ef36600461213d565b61082c565b610207610302366004612432565b610877565b61031a61031536600461234c565b610adb565b60405161021c919061250b565b61027c610c1a565b61027c61033d3660046124b0565b610cb4565b61027c610350366004612246565b610d95565b61027c610f46565b61027c61036b3660046122b7565b610ffb565b61027c611115565b6069546001600160a01b03165b6040516001600160a01b03909116815260200161021c565b6102386103ab366004612498565b6111e9565b6102386103be366004612498565b606f6020526000908152604090205481565b61027c6111fd565b6102386103e63660046122f1565b6112a9565b61027c6103f93660046122b7565b6112b5565b61023861040c366004612432565b606c60209081526000928352604080842090915290825290205481565b6102596104373660046120f1565b606b6020526000908152604090205460ff1681565b61023861045a366004612498565b611373565b61023861046d366004612432565b611396565b61027c610480366004612246565b61146d565b606a54610385906001600160a01b031681565b6102596104a636600461210b565b6001600160a01b03918216600090815260666020908152604080832093909416825291909152205460ff1690565b61027c6102ef3660046121e3565b61027c6104f03660046120f1565b61160e565b61027c61050336600461231a565b611761565b6000806105158484611857565b905080610526576000915050610544565b6000838152606f60205260409020546105409082906118c4565b9150505b92915050565b60006001600160e01b031982167fd9b67a260000000000000000000000000000000000000000000000000000000014806105ad57506001600160e01b031982167f0e89341c00000000000000000000000000000000000000000000000000000000145b806105e157507f01ffc9a7000000000000000000000000000000000000000000000000000000006001600160e01b03198316145b90505b919050565b6069546001600160a01b031633146106485760405162461bcd60e51b815260206004820181905260248201527f4f776e61626c653a2063616c6c6572206973206e6f7420746865206f776e657260448201526064015b60405180910390fd5b805161065b906068906020840190611f5e565b507f7eb8ce65e7a65c28e89649d326c8b821d560f405d49d2ad6d0c25073756fb68f8160405161068b9190612574565b60405180910390a150565b6060606880546106a5906126b3565b80601f01602080910402602001604051908101604052809291908181526020018280546106d1906126b3565b801561071e5780601f106106f35761010080835404028352916020019161071e565b820191906000526020600020905b81548152906001019060200180831161070157829003601f168201915b50505050509050919050565b336000908152606b602052604090205460ff168061075257506069546001600160a01b031633145b6040518060400160405280600381526020016231313160e81b8152509061078c5760405162461bcd60e51b815260040161063f9190612574565b5060408051808201909152600381526218989b60e91b60208201526001600160a01b0384166107ce5760405162461bcd60e51b815260040161063f9190612574565b506107da838383611980565b604080518381526020810183905233916001600160a01b0386169160009184917fc3d58168c5ae7397731d063d5bbf3d657854427343f4c083240f7aacaa2d0f6291015b60405180910390a450505050565b604080518082018252600381527f31323800000000000000000000000000000000000000000000000000000000006020820152905162461bcd60e51b815261063f9190600401612574565b336000908152606b602052604081205460ff168061089f57506069546001600160a01b031633145b6040518060400160405280600381526020016231313160e81b815250906108d95760405162461bcd60e51b815260040161063f9190612574565b50606c60008460018111156108fe57634e487b7160e01b600052602160045260246000fd5b600181111561091d57634e487b7160e01b600052602160045260246000fd5b81526020019081526020016000206000836001600160a01b03166001600160a01b03168152602001908152602001600020546000146040518060400160405280600381526020017f3131350000000000000000000000000000000000000000000000000000000000815250906109a65760405162461bcd60e51b815260040161063f9190612574565b50606e5467ffffffffffffffff16606c60008560018111156109d857634e487b7160e01b600052602160045260246000fd5b60018111156109f757634e487b7160e01b600052602160045260246000fd5b8152602080820192909252604090810160009081206001600160a01b0387168252835281812093909355606e5467ffffffffffffffff168352606d9091529020805484919060ff191660018381811115610a6157634e487b7160e01b600052602160045260246000fd5b02179055506b033b2e3c9fd0803ce8000000606e805467ffffffffffffffff9081166000908152606f602052604081209390935581541691610aa283612709565b82546101009290920a67ffffffffffffffff818102199093169183160217909155606e54610ad492506001911661268a565b9392505050565b60608151835114604051806040016040528060038152602001620c4c4d60ea1b81525090610b1c5760405162461bcd60e51b815260040161063f9190612574565b506000835167ffffffffffffffff811115610b4757634e487b7160e01b600052604160045260246000fd5b604051908082528060200260200182016040528015610b70578160200160208202803683370190505b50905060005b8451811015610c1257610bd7858281518110610ba257634e487b7160e01b600052603260045260246000fd5b6020026020010151858381518110610bca57634e487b7160e01b600052603260045260246000fd5b6020026020010151610508565b828281518110610bf757634e487b7160e01b600052603260045260246000fd5b6020908102919091010152610c0b816126ee565b9050610b76565b509392505050565b606a546001600160a01b0316336001600160a01b031614610c3a57600080fd5b606a546001600160a01b0316610c586069546001600160a01b031690565b6001600160a01b03167f8be0079c531659141344cd1fd0a4f28419497f9722a3daafe3b4186f6b6457e060405160405180910390a3606a8054606980546001600160a01b03199081166001600160a01b03841617909155169055565b336000908152606b602052604090205460ff1680610cdc57506069546001600160a01b031633145b6040518060400160405280600381526020016231313160e81b81525090610d165760405162461bcd60e51b815260040161063f9190612574565b506000610d2283611373565b9050600082118015610d345750600081115b8015610d3f57508082115b15610d90576000838152606f60205260408120548290610d60908590612654565b610d6a9190612634565b6000858152606f602052604090206fffffffffffffffffffffffffffffffff9091169055505b505050565b336000908152606b602052604090205460ff1680610dbd57506069546001600160a01b031633145b6040518060400160405280600381526020016231313160e81b81525090610df75760405162461bcd60e51b815260040161063f9190612574565b5060408051808201909152600381526218989b60e91b60208201526001600160a01b038416610e395760405162461bcd60e51b815260040161063f9190612574565b508051825114604051806040016040528060038152602001620c4c4d60ea1b81525090610e795760405162461bcd60e51b815260040161063f9190612574565b5060005b8251811015610ef157610edf84848381518110610eaa57634e487b7160e01b600052603260045260246000fd5b6020026020010151848481518110610ed257634e487b7160e01b600052603260045260246000fd5b6020026020010151611a6c565b80610ee9816126ee565b915050610e7d565b5060006001600160a01b038416336001600160a01b03167f4a39dc06d4c0dbc64b70af90fd698a233a518aa5d07e595d983b8c0526c8f7fb8585604051610f3992919061251e565b60405180910390a4505050565b6069546001600160a01b03163314610fa05760405162461bcd60e51b815260206004820181905260248201527f4f776e61626c653a2063616c6c6572206973206e6f7420746865206f776e6572604482015260640161063f565b6000610fb46069546001600160a01b031690565b6001600160a01b03167f8be0079c531659141344cd1fd0a4f28419497f9722a3daafe3b4186f6b6457e060405160405180910390a3606980546001600160a01b0319169055565b6069546001600160a01b031633146110555760405162461bcd60e51b815260206004820181905260248201527f4f776e61626c653a2063616c6c6572206973206e6f7420746865206f776e6572604482015260640161063f565b60408051808201909152600381527f313137000000000000000000000000000000000000000000000000000000000060208201526001600160a01b0383163b6110b15760405162461bcd60e51b815260040161063f9190612574565b506001600160a01b0382166000818152606b6020908152604091829020805460ff19168515159081179091558251938452908301527f1bb1af8fda8d24128266d17b7b824b3d981624837b8b35e2e67c455f59bab9aa910160405180910390a15050565b600054610100900460ff168061112e575060005460ff16155b6111915760405162461bcd60e51b815260206004820152602e60248201527f496e697469616c697a61626c653a20636f6e747261637420697320616c72656160448201526d191e481a5b9a5d1a585b1a5e995960921b606482015260840161063f565b600054610100900460ff161580156111bc576000805460ff1961ff0019909116610100171660011790555b6111c4611b4e565b6111cc611b4e565b6111d4611bfd565b80156111e6576000805461ff00191690555b50565b6000818152606760205260408120546105e1565b6069546001600160a01b031633146112575760405162461bcd60e51b815260206004820181905260248201527f4f776e61626c653a2063616c6c6572206973206e6f7420746865206f776e6572604482015260640161063f565b606a546001600160a01b031661126c57600080fd5b606a80546001600160a01b03191690556040516000907f69737d41162474a7ca514809b07d7becaecf72eae8c23bceb071f0e09af93ffc908290a2565b6000610ad48383611857565b6040805180820190915260038152620c4c4d60ea1b6020820152336001600160a01b03841614156112f95760405162461bcd60e51b815260040161063f9190612574565b503360008181526066602090815260408083206001600160a01b0387168085529252909120805460ff1916841515179055906001600160a01b03167f17307eab39ab6107e8899845ad3d59bd9653f200f220920489ca2b5937696c3183604051611367911515815260200190565b60405180910390a35050565b6000818152606f602090815260408083205460679092528220546105e1916118c4565b6000606c60008460018111156113bc57634e487b7160e01b600052602160045260246000fd5b60018111156113db57634e487b7160e01b600052602160045260246000fd5b8152602080820192909252604090810160009081206001600160a01b0386168252835281902054606e548251808401909352600383527f31313800000000000000000000000000000000000000000000000000000000009383019390935292509067ffffffffffffffff168211156114665760405162461bcd60e51b815260040161063f9190612574565b5092915050565b336000908152606b602052604090205460ff168061149557506069546001600160a01b031633145b6040518060400160405280600381526020016231313160e81b815250906114cf5760405162461bcd60e51b815260040161063f9190612574565b5060408051808201909152600381526218989b60e91b60208201526001600160a01b0384166115115760405162461bcd60e51b815260040161063f9190612574565b508051825114604051806040016040528060038152602001620c4c4d60ea1b815250906115515760405162461bcd60e51b815260040161063f9190612574565b5060005b82518110156115c9576115b78484838151811061158257634e487b7160e01b600052603260045260246000fd5b60200260200101518484815181106115aa57634e487b7160e01b600052603260045260246000fd5b6020026020010151611980565b806115c1816126ee565b915050611555565b5060405133906001600160a01b0385169060009083907f4a39dc06d4c0dbc64b70af90fd698a233a518aa5d07e595d983b8c0526c8f7fb9061081e908890889061251e565b6069546001600160a01b031633146116685760405162461bcd60e51b815260206004820181905260248201527f4f776e61626c653a2063616c6c6572206973206e6f7420746865206f776e6572604482015260640161063f565b6001600160a01b0381166116be5760405162461bcd60e51b815260206004820152601960248201527f43616e6e6f742070617373207a65726f20616464726573732100000000000000604482015260640161063f565b606a546001600160a01b0316156117175760405162461bcd60e51b815260206004820152601960248201527f546865726520697320612070656e64696e67206f776e65722100000000000000604482015260640161063f565b606a80546001600160a01b0319166001600160a01b0383169081179091556040517f69737d41162474a7ca514809b07d7becaecf72eae8c23bceb071f0e09af93ffc90600090a250565b336000908152606b602052604090205460ff168061178957506069546001600160a01b031633145b6040518060400160405280600381526020016231313160e81b815250906117c35760405162461bcd60e51b815260040161063f9190612574565b5060408051808201909152600381526218989b60e91b60208201526001600160a01b0384166118055760405162461bcd60e51b815260040161063f9190612574565b50611811838383611a6c565b60408051838152602081018390526000916001600160a01b0386169133917fc3d58168c5ae7397731d063d5bbf3d657854427343f4c083240f7aacaa2d0f629101610f39565b60408051808201909152600381526218989b60e91b60208201526000906001600160a01b03841661189b5760405162461bcd60e51b815260040161063f9190612574565b505060009081526065602090815260408083206001600160a01b03949094168352929052205490565b60008215806118d1575081155b156118de57506000610544565b816118f660026b033b2e3c9fd0803ce8000000612634565b61190290600019612673565b61190c9190612634565b8311156040518060400160405280600381526020016232303360e81b815250906119495760405162461bcd60e51b815260040161063f9190612574565b506b033b2e3c9fd0803ce8000000611962600282612634565b61196c8486612654565b611976919061261c565b610ad49190612634565b60008281526065602090815260408083206001600160a01b03871684528252808320548584526067835281842054606f909352908320549092906119c5908590611cb4565b60408051808201909152600381527f3130310000000000000000000000000000000000000000000000000000000000602082015290915081611a1a5760405162461bcd60e51b815260040161063f9190612574565b50611a25818461261c565b60008681526065602090815260408083206001600160a01b038b168452909152902055611a52818361261c565b600095865260676020526040909520949094555050505050565b60008281526065602090815260408083206001600160a01b03871684528252808320548584526067835281842054606f90935290832054909290611ab1908590611cb4565b90508015801590611ac25750808310155b6040518060400160405280600381526020017f313032000000000000000000000000000000000000000000000000000000000081525090611b165760405162461bcd60e51b815260040161063f9190612574565b50611b218184612673565b60008681526065602090815260408083206001600160a01b038b168452909152902055611a528183612673565b600054610100900460ff1680611b67575060005460ff16155b611bca5760405162461bcd60e51b815260206004820152602e60248201527f496e697469616c697a61626c653a20636f6e747261637420697320616c72656160448201526d191e481a5b9a5d1a585b1a5e995960921b606482015260840161063f565b600054610100900460ff16158015611bf5576000805460ff1961ff0019909116610100171660011790555b6111d4611da6565b600054610100900460ff1680611c16575060005460ff16155b611c795760405162461bcd60e51b815260206004820152602e60248201527f496e697469616c697a61626c653a20636f6e747261637420697320616c72656160448201526d191e481a5b9a5d1a585b1a5e995960921b606482015260840161063f565b600054610100900460ff16158015611ca4576000805460ff1961ff0019909116610100171660011790555b611cac611da6565b6111d4611e60565b60408051808201909152600381527f3230310000000000000000000000000000000000000000000000000000000000602082015260009082611d095760405162461bcd60e51b815260040161063f9190612574565b506000611d17600284612634565b90506b033b2e3c9fd0803ce8000000611d3282600019612673565b611d3c9190612634565b8411156040518060400160405280600381526020016232303360e81b81525090611d795760405162461bcd60e51b815260040161063f9190612574565b508281611d926b033b2e3c9fd0803ce800000087612654565b611d9c919061261c565b6105409190612634565b600054610100900460ff1680611dbf575060005460ff16155b611e225760405162461bcd60e51b815260206004820152602e60248201527f496e697469616c697a61626c653a20636f6e747261637420697320616c72656160448201526d191e481a5b9a5d1a585b1a5e995960921b606482015260840161063f565b600054610100900460ff161580156111d4576000805460ff1961ff00199091166101001716600117905580156111e6576000805461ff001916905550565b600054610100900460ff1680611e79575060005460ff16155b611edc5760405162461bcd60e51b815260206004820152602e60248201527f496e697469616c697a61626c653a20636f6e747261637420697320616c72656160448201526d191e481a5b9a5d1a585b1a5e995960921b606482015260840161063f565b600054610100900460ff16158015611f07576000805460ff1961ff0019909116610100171660011790555b606980546001600160a01b0319163390811790915560405181906000907f8be0079c531659141344cd1fd0a4f28419497f9722a3daafe3b4186f6b6457e0908290a35080156111e6576000805461ff001916905550565b828054611f6a906126b3565b90600052602060002090601f016020900481019282611f8c5760008555611fd2565b82601f10611fa557805160ff1916838001178555611fd2565b82800160010185558215611fd2579182015b82811115611fd2578251825591602001919060010190611fb7565b50611fde929150611fe2565b5090565b5b80821115611fde5760008155600101611fe3565b600067ffffffffffffffff83111561201157612011612747565b612024601f8401601f19166020016125c7565b905082815283838301111561203857600080fd5b828260208301376000602084830101529392505050565b80356001600160a01b03811681146105e457600080fd5b600082601f830112612076578081fd5b8135602061208b612086836125f8565b6125c7565b82815281810190858301838502870184018810156120a7578586fd5b855b858110156120c5578135845292840192908401906001016120a9565b5090979650505050505050565b600082601f8301126120e2578081fd5b610ad483833560208501611ff7565b600060208284031215612102578081fd5b610ad48261204f565b6000806040838503121561211d578081fd5b6121268361204f565b91506121346020840161204f565b90509250929050565b600080600080600060a08688031215612154578081fd5b61215d8661204f565b945061216b6020870161204f565b9350604086013567ffffffffffffffff80821115612187578283fd5b61219389838a01612066565b945060608801359150808211156121a8578283fd5b6121b489838a01612066565b935060808801359150808211156121c9578283fd5b506121d6888289016120d2565b9150509295509295909350565b600080600080600060a086880312156121fa578081fd5b6122038661204f565b94506122116020870161204f565b93506040860135925060608601359150608086013567ffffffffffffffff81111561223a578182fd5b6121d6888289016120d2565b60008060006060848603121561225a578283fd5b6122638461204f565b9250602084013567ffffffffffffffff8082111561227f578384fd5b61228b87838801612066565b935060408601359150808211156122a0578283fd5b506122ad86828701612066565b9150509250925092565b600080604083850312156122c9578182fd5b6122d28361204f565b9150602083013580151581146122e6578182fd5b809150509250929050565b60008060408385031215612303578182fd5b61230c8361204f565b946020939093013593505050565b60008060006060848603121561232e578081fd5b6123378461204f565b95602085013595506040909401359392505050565b6000806040838503121561235e578182fd5b823567ffffffffffffffff80821115612375578384fd5b818501915085601f830112612388578384fd5b81356020612398612086836125f8565b82815281810190858301838502870184018b10156123b4578889fd5b8896505b848710156123dd576123c98161204f565b8352600196909601959183019183016123b8565b50965050860135925050808211156123f3578283fd5b5061240085828601612066565b9150509250929050565b60006020828403121561241b578081fd5b81356001600160e01b031981168114610ad4578182fd5b60008060408385031215612444578182fd5b823560028110612126578283fd5b600060208284031215612463578081fd5b813567ffffffffffffffff811115612479578182fd5b8201601f81018413612489578182fd5b61054084823560208401611ff7565b6000602082840312156124a9578081fd5b5035919050565b600080604083850312156124c2578182fd5b50508035926020909101359150565b6000815180845260208085019450808401835b83811015612500578151875295820195908201906001016124e4565b509495945050505050565b600060208252610ad460208301846124d1565b60006040825261253160408301856124d1565b828103602084015261254381856124d1565b95945050505050565b602081016002831061256e57634e487b7160e01b600052602160045260246000fd5b91905290565b6000602080835283518082850152825b818110156125a057858101830151858201604001528201612584565b818111156125b15783604083870101525b50601f01601f1916929092016040019392505050565b604051601f8201601f1916810167ffffffffffffffff811182821017156125f0576125f0612747565b604052919050565b600067ffffffffffffffff82111561261257612612612747565b5060209081020190565b6000821982111561262f5761262f612731565b500190565b60008261264f57634e487b7160e01b81526012600452602481fd5b500490565b600081600019048311821515161561266e5761266e612731565b500290565b60008282101561268557612685612731565b500390565b600067ffffffffffffffff838116908316818110156126ab576126ab612731565b039392505050565b6002810460018216806126c757607f821691505b602082108114156126e857634e487b7160e01b600052602260045260246000fd5b50919050565b600060001982141561270257612702612731565b5060010190565b600067ffffffffffffffff8083168181141561272757612727612731565b6001019392505050565b634e487b7160e01b600052601160045260246000fd5b634e487b7160e01b600052604160045260246000fdfea264697066735822122027dd2b7d5689167686af156c3b8dd2392ea249e399d29bd49eefb266500029cd64736f6c63430008020033",
  "linkReferences": {},
  "deployedLinkReferences": {}
}