{
  "_format": "hh-sol-artifact-1",
  "contractName": "FujiAdmin",
  "sourceName": "contracts/FujiAdmin.sol",
  "abi": [
    {
      "anonymous": false,
      "inputs": [
        {
          "indexed": false,
          "internalType": "address",
          "name": "newController",
          "type": "address"
        }
      ],
      "name": "ControllerChanged",
      "type": "event"
    },
    {
      "anonymous": false,
      "inputs": [
        {
          "indexed": false,
          "internalType": "address",
          "name": "newFlasher",
          "type": "address"
        }
      ],
      "name": "FlasherChanged",
      "type": "event"
    },
    {
      "anonymous": false,
      "inputs": [
        {
          "indexed": false,
          "internalType": "address",
          "name": "newFliquidator",
          "type": "address"
        }
      ],
      "name": "FliquidatorChanged",
      "type": "event"
    },
    {
      "anonymous": false,
      "inputs": [
        {
          "indexed": true,
          "internalType": "address",
          "name": "previousOwner",
          "type": "address"
        },
        {
          "indexed": true,
          "internalType": "address",
          "name": "newOwner",
          "type": "address"
        }
      ],
      "name": "OwnershipTransferred",
      "type": "event"
    },
    {
      "anonymous": false,
      "inputs": [
        {
          "indexed": false,
          "internalType": "address",
          "name": "newSwapper",
          "type": "address"
        }
      ],
      "name": "SwapperChanged",
      "type": "event"
    },
    {
      "anonymous": false,
      "inputs": [
        {
          "indexed": false,
          "internalType": "address",
          "name": "newTreasury",
          "type": "address"
        }
      ],
      "name": "TreasuryChanged",
      "type": "event"
    },
    {
      "anonymous": false,
      "inputs": [
        {
          "indexed": false,
          "internalType": "address",
          "name": "newHarvester",
          "type": "address"
        }
      ],
      "name": "VaultHarvesterChanged",
      "type": "event"
    },
    {
      "anonymous": false,
      "inputs": [
        {
          "indexed": false,
          "internalType": "address",
          "name": "vaultAddress",
          "type": "address"
        },
        {
          "indexed": false,
          "internalType": "bool",
          "name": "newPermit",
          "type": "bool"
        }
      ],
      "name": "VaultPermitChanged",
      "type": "event"
    },
    {
      "inputs": [
        {
          "internalType": "address",
          "name": "_vaultAddr",
          "type": "address"
        },
        {
          "internalType": "bool",
          "name": "_permission",
          "type": "bool"
        }
      ],
      "name": "allowVault",
      "outputs": [],
      "stateMutability": "nonpayable",
      "type": "function"
    },
    {
      "inputs": [],
      "name": "getController",
      "outputs": [
        {
          "internalType": "address",
          "name": "",
          "type": "address"
        }
      ],
      "stateMutability": "view",
      "type": "function"
    },
    {
      "inputs": [],
      "name": "getFlasher",
      "outputs": [
        {
          "internalType": "address",
          "name": "",
          "type": "address"
        }
      ],
      "stateMutability": "view",
      "type": "function"
    },
    {
      "inputs": [],
      "name": "getFliquidator",
      "outputs": [
        {
          "internalType": "address",
          "name": "",
          "type": "address"
        }
      ],
      "stateMutability": "view",
      "type": "function"
    },
    {
      "inputs": [],
      "name": "getSwapper",
      "outputs": [
        {
          "internalType": "address",
          "name": "",
          "type": "address"
        }
      ],
      "stateMutability": "view",
      "type": "function"
    },
    {
      "inputs": [],
      "name": "getTreasury",
      "outputs": [
        {
          "internalType": "address payable",
          "name": "",
          "type": "address"
        }
      ],
      "stateMutability": "view",
      "type": "function"
    },
    {
      "inputs": [],
      "name": "getVaultHarvester",
      "outputs": [
        {
          "internalType": "address",
          "name": "",
          "type": "address"
        }
      ],
      "stateMutability": "view",
      "type": "function"
    },
    {
      "inputs": [],
      "name": "initialize",
      "outputs": [],
      "stateMutability": "nonpayable",
      "type": "function"
    },
    {
      "inputs": [],
      "name": "owner",
      "outputs": [
        {
          "internalType": "address",
          "name": "",
          "type": "address"
        }
      ],
      "stateMutability": "view",
      "type": "function"
    },
    {
      "inputs": [],
      "name": "renounceOwnership",
      "outputs": [],
      "stateMutability": "nonpayable",
      "type": "function"
    },
    {
      "inputs": [
        {
          "internalType": "address",
          "name": "_newController",
          "type": "address"
        }
      ],
      "name": "setController",
      "outputs": [],
      "stateMutability": "nonpayable",
      "type": "function"
    },
    {
      "inputs": [
        {
          "internalType": "address",
          "name": "_newFlasher",
          "type": "address"
        }
      ],
      "name": "setFlasher",
      "outputs": [],
      "stateMutability": "nonpayable",
      "type": "function"
    },
    {
      "inputs": [
        {
          "internalType": "address",
          "name": "_newFliquidator",
          "type": "address"
        }
      ],
      "name": "setFliquidator",
      "outputs": [],
      "stateMutability": "nonpayable",
      "type": "function"
    },
    {
      "inputs": [
        {
          "internalType": "address",
          "name": "_newSwapper",
          "type": "address"
        }
      ],
      "name": "setSwapper",
      "outputs": [],
      "stateMutability": "nonpayable",
      "type": "function"
    },
    {
      "inputs": [
        {
          "internalType": "address payable",
          "name": "_newTreasury",
          "type": "address"
        }
      ],
      "name": "setTreasury",
      "outputs": [],
      "stateMutability": "nonpayable",
      "type": "function"
    },
    {
      "inputs": [
        {
          "internalType": "address",
          "name": "_newVaultHarverster",
          "type": "address"
        }
      ],
      "name": "setVaultHarvester",
      "outputs": [],
      "stateMutability": "nonpayable",
      "type": "function"
    },
    {
      "inputs": [
        {
          "internalType": "address",
          "name": "newOwner",
          "type": "address"
        }
      ],
      "name": "transferOwnership",
      "outputs": [],
      "stateMutability": "nonpayable",
      "type": "function"
    },
    {
      "inputs": [
        {
          "internalType": "address",
          "name": "",
          "type": "address"
        }
      ],
      "name": "validVault",
      "outputs": [
        {
          "internalType": "bool",
          "name": "",
          "type": "bool"
        }
      ],
      "stateMutability": "view",
      "type": "function"
    }
  ],
  "bytecode": "0x608060405234801561001057600080fd5b50610e62806100206000396000f3fe608060405234801561001057600080fd5b50600436106101365760003560e01c80638129fc1c116100b2578063b8491a8411610081578063f018467d11610066578063f018467d1461026f578063f0f4426014610282578063f2fde38b1461029557610136565b8063b8491a841461024b578063e43fa4111461025c57610136565b80638129fc1c1461020c5780638da5cb5b1461021457806392eefe9b146102255780639c82f2a41461023857610136565b806343ad12af1161010957806368f1ecc3116100ee57806368f1ecc3146101e2578063715018a6146101f35780637fabc90b146101fb57610136565b806343ad12af146101be578063536fcd1b146101cf57610136565b80630f6ec81f1461013b5780632c793d45146101735780633018205f146101885780633b19e84a146101ad575b600080fd5b61015e610149366004610d65565b606a6020526000908152604090205460ff1681565b60405190151581526020015b60405180910390f35b610186610181366004610d88565b6102a8565b005b6068546001600160a01b03165b6040516001600160a01b03909116815260200161016a565b6067546001600160a01b0316610195565b606b546001600160a01b0316610195565b6101866101dd366004610d65565b61036a565b6069546001600160a01b0316610195565b61018661045b565b6065546001600160a01b0316610195565b6101866104c1565b6033546001600160a01b0316610195565b610186610233366004610d65565b610585565b610186610246366004610d65565b61066f565b6066546001600160a01b0316610195565b61018661026a366004610d65565b610759565b61018661027d366004610d65565b610843565b610186610290366004610d65565b61092d565b6101866102a3366004610d65565b610a17565b6033546001600160a01b031633146103075760405162461bcd60e51b815260206004820181905260248201527f4f776e61626c653a2063616c6c6572206973206e6f7420746865206f776e657260448201526064015b60405180910390fd5b6001600160a01b0382166000818152606a6020908152604091829020805460ff19168515159081179091558251938452908301527f9c92488c659b13cbb3e0600afb1df9042159ec8fa9546359943715e2507755d0910160405180910390a15050565b6033546001600160a01b031633146103c45760405162461bcd60e51b815260206004820181905260248201527f4f776e61626c653a2063616c6c6572206973206e6f7420746865206f776e657260448201526064016102fe565b60408051808201909152600381526203133360ec1b60208201526001600160a01b0382166104055760405162461bcd60e51b81526004016102fe9190610dc4565b50606580546001600160a01b0319166001600160a01b0383169081179091556040519081527f290e059869c3a3e6512ac842647deee76d05c5b08eff1b232007b26effbd169a906020015b60405180910390a150565b6033546001600160a01b031633146104b55760405162461bcd60e51b815260206004820181905260248201527f4f776e61626c653a2063616c6c6572206973206e6f7420746865206f776e657260448201526064016102fe565b6104bf6000610af2565b565b600054610100900460ff16806104da575060005460ff16155b61053d5760405162461bcd60e51b815260206004820152602e60248201527f496e697469616c697a61626c653a20636f6e747261637420697320616c72656160448201526d191e481a5b9a5d1a585b1a5e995960921b60648201526084016102fe565b600054610100900460ff16158015610568576000805460ff1961ff0019909116610100171660011790555b610570610b44565b8015610582576000805461ff00191690555b50565b6033546001600160a01b031633146105df5760405162461bcd60e51b815260206004820181905260248201527f4f776e61626c653a2063616c6c6572206973206e6f7420746865206f776e657260448201526064016102fe565b60408051808201909152600381526203133360ec1b60208201526001600160a01b0382166106205760405162461bcd60e51b81526004016102fe9190610dc4565b50606880546001600160a01b0319166001600160a01b0383169081179091556040519081527f027c3e080ed9215f564a9455a666f7e459b3edc0bb6e02a1bf842fde4d0ccfc190602001610450565b6033546001600160a01b031633146106c95760405162461bcd60e51b815260206004820181905260248201527f4f776e61626c653a2063616c6c6572206973206e6f7420746865206f776e657260448201526064016102fe565b60408051808201909152600381526203133360ec1b60208201526001600160a01b03821661070a5760405162461bcd60e51b81526004016102fe9190610dc4565b50606b80546001600160a01b0319166001600160a01b0383169081179091556040519081527f7d7719313229e558c5a3893cad2eb86a86a049156d1d9ebd5c63a8eedefd1c0390602001610450565b6033546001600160a01b031633146107b35760405162461bcd60e51b815260206004820181905260248201527f4f776e61626c653a2063616c6c6572206973206e6f7420746865206f776e657260448201526064016102fe565b60408051808201909152600381526203133360ec1b60208201526001600160a01b0382166107f45760405162461bcd60e51b81526004016102fe9190610dc4565b50606980546001600160a01b0319166001600160a01b0383169081179091556040519081527fff5030de1581ffc9706cd990b1ea4b5957539ba65782993b894222ebd703699190602001610450565b6033546001600160a01b0316331461089d5760405162461bcd60e51b815260206004820181905260248201527f4f776e61626c653a2063616c6c6572206973206e6f7420746865206f776e657260448201526064016102fe565b60408051808201909152600381526203133360ec1b60208201526001600160a01b0382166108de5760405162461bcd60e51b81526004016102fe9190610dc4565b50606680546001600160a01b0319166001600160a01b0383169081179091556040519081527fcab2bb37e9dce07fa503ee538d390c02b3cc1b83a0fdcc7572f9923e8039bcca90602001610450565b6033546001600160a01b031633146109875760405162461bcd60e51b815260206004820181905260248201527f4f776e61626c653a2063616c6c6572206973206e6f7420746865206f776e657260448201526064016102fe565b60408051808201909152600381526203133360ec1b60208201526001600160a01b0382166109c85760405162461bcd60e51b81526004016102fe9190610dc4565b50606780546001600160a01b0319166001600160a01b0383169081179091556040519081527fc714d22a2f08b695f81e7c707058db484aa5b4d6b4c9fd64beb10fe85832f60890602001610450565b6033546001600160a01b03163314610a715760405162461bcd60e51b815260206004820181905260248201527f4f776e61626c653a2063616c6c6572206973206e6f7420746865206f776e657260448201526064016102fe565b6001600160a01b038116610aed5760405162461bcd60e51b815260206004820152602660248201527f4f776e61626c653a206e6577206f776e657220697320746865207a65726f206160448201527f646472657373000000000000000000000000000000000000000000000000000060648201526084016102fe565b610582815b603380546001600160a01b038381166001600160a01b0319831681179093556040519116919082907f8be0079c531659141344cd1fd0a4f28419497f9722a3daafe3b4186f6b6457e090600090a35050565b600054610100900460ff1680610b5d575060005460ff16155b610bc05760405162461bcd60e51b815260206004820152602e60248201527f496e697469616c697a61626c653a20636f6e747261637420697320616c72656160448201526d191e481a5b9a5d1a585b1a5e995960921b60648201526084016102fe565b600054610100900460ff16158015610beb576000805460ff1961ff0019909116610100171660011790555b610bf3610bfb565b610570610cb5565b600054610100900460ff1680610c14575060005460ff16155b610c775760405162461bcd60e51b815260206004820152602e60248201527f496e697469616c697a61626c653a20636f6e747261637420697320616c72656160448201526d191e481a5b9a5d1a585b1a5e995960921b60648201526084016102fe565b600054610100900460ff16158015610570576000805460ff1961ff0019909116610100171660011790558015610582576000805461ff001916905550565b600054610100900460ff1680610cce575060005460ff16155b610d315760405162461bcd60e51b815260206004820152602e60248201527f496e697469616c697a61626c653a20636f6e747261637420697320616c72656160448201526d191e481a5b9a5d1a585b1a5e995960921b60648201526084016102fe565b600054610100900460ff16158015610d5c576000805460ff1961ff0019909116610100171660011790555b61057033610af2565b600060208284031215610d76578081fd5b8135610d8181610e17565b9392505050565b60008060408385031215610d9a578081fd5b8235610da581610e17565b915060208301358015158114610db9578182fd5b809150509250929050565b6000602080835283518082850152825b81811015610df057858101830151858201604001528201610dd4565b81811115610e015783604083870101525b50601f01601f1916929092016040019392505050565b6001600160a01b038116811461058257600080fdfea2646970667358221220256c14e8218b709adda5081c170c18cc1699e417e29cf81b094b531de7b2d7be64736f6c63430008020033",
  "linkReferences": {},
  "deployedLinkReferences": {}
}