{
  "_format": "hh-sol-artifact-1",
  "contractName": "FujiOracle",
  "sourceName": "contracts/FujiOracle.sol",
  "abi": [
    {
      "inputs": [
        {
          "internalType": "address[]",
          "name": "_assets",
          "type": "address[]"
        },
        {
          "internalType": "address[]",
          "name": "_priceFeeds",
          "type": "address[]"
        }
      ],
      "stateMutability": "nonpayable",
      "type": "constructor"
    },
    {
      "anonymous": false,
      "inputs": [
        {
          "indexed": false,
          "internalType": "address",
          "name": "asset",
          "type": "address"
        },
        {
          "indexed": false,
          "internalType": "address",
          "name": "newPriceFeedAddress",
          "type": "address"
        }
      ],
      "name": "AssetPriceFeedChanged",
      "type": "event"
    },
    {
      "anonymous": false,
      "inputs": [
        {
          "indexed": true,
          "internalType": "address",
          "name": "owner",
          "type": "address"
        }
      ],
      "name": "NewPendingOwner",
      "type": "event"
    },
    {
      "anonymous": false,
      "inputs": [
        {
          "indexed": true,
          "internalType": "address",
          "name": "previousOwner",
          "type": "address"
        },
        {
          "indexed": true,
          "internalType": "address",
          "name": "newOwner",
          "type": "address"
        }
      ],
      "name": "OwnershipTransferred",
      "type": "event"
    },
    {
      "inputs": [],
      "name": "cancelTransferOwnership",
      "outputs": [],
      "stateMutability": "nonpayable",
      "type": "function"
    },
    {
      "inputs": [],
      "name": "claimOwnership",
      "outputs": [],
      "stateMutability": "nonpayable",
      "type": "function"
    },
    {
      "inputs": [
        {
          "internalType": "address",
          "name": "_collateralAsset",
          "type": "address"
        },
        {
          "internalType": "address",
          "name": "_borrowAsset",
          "type": "address"
        },
        {
          "internalType": "uint8",
          "name": "_decimals",
          "type": "uint8"
        }
      ],
      "name": "getPriceOf",
      "outputs": [
        {
          "internalType": "uint256",
          "name": "price",
          "type": "uint256"
        }
      ],
      "stateMutability": "view",
      "type": "function"
    },
    {
      "inputs": [],
      "name": "owner",
      "outputs": [
        {
          "internalType": "address",
          "name": "",
          "type": "address"
        }
      ],
      "stateMutability": "view",
      "type": "function"
    },
    {
      "inputs": [],
      "name": "pendingOwner",
      "outputs": [
        {
          "internalType": "address",
          "name": "",
          "type": "address"
        }
      ],
      "stateMutability": "view",
      "type": "function"
    },
    {
      "inputs": [],
      "name": "renounceOwnership",
      "outputs": [],
      "stateMutability": "nonpayable",
      "type": "function"
    },
    {
      "inputs": [
        {
          "internalType": "address",
          "name": "_asset",
          "type": "address"
        },
        {
          "internalType": "address",
          "name": "_priceFeed",
          "type": "address"
        }
      ],
      "name": "setPriceFeed",
      "outputs": [],
      "stateMutability": "nonpayable",
      "type": "function"
    },
    {
      "inputs": [
        {
          "internalType": "address",
          "name": "newOwner",
          "type": "address"
        }
      ],
      "name": "transferOwnership",
      "outputs": [],
      "stateMutability": "nonpayable",
      "type": "function"
    },
    {
      "inputs": [
        {
          "internalType": "address",
          "name": "",
          "type": "address"
        }
      ],
      "name": "usdPriceFeeds",
      "outputs": [
        {
          "internalType": "address",
          "name": "",
          "type": "address"
        }
      ],
      "stateMutability": "view",
      "type": "function"
    }
  ],
  "bytecode": "0x60806040523480156200001157600080fd5b5060405162000ded38038062000ded833981016040819052620000349162000253565b600080546001600160a01b031916339081178255604051909182917f8be0079c531659141344cd1fd0a4f28419497f9722a3daafe3b4186f6b6457e0908290a35080518251146040518060400160405280600381526020016235303160e81b81525090620000c05760405162461bcd60e51b8152600401620000b79190620002ba565b60405180910390fd5b5060005b82518110156200017e57818181518110620000ef57634e487b7160e01b600052603260045260246000fd5b6020026020010151600260008584815181106200011c57634e487b7160e01b600052603260045260246000fd5b60200260200101516001600160a01b03166001600160a01b0316815260200190815260200160002060006101000a8154816001600160a01b0302191690836001600160a01b031602179055508080620001759062000310565b915050620000c4565b5050506200034e565b80516001600160a01b03811681146200019f57600080fd5b919050565b600082601f830112620001b5578081fd5b815160206001600160401b0380831115620001d457620001d462000338565b818302604051601f19603f83011681018181108482111715620001fb57620001fb62000338565b604052848152838101925086840182880185018910156200021a578687fd5b8692505b858310156200024757620002328162000187565b8452928401926001929092019184016200021e565b50979650505050505050565b6000806040838503121562000266578182fd5b82516001600160401b03808211156200027d578384fd5b6200028b86838701620001a4565b93506020850151915080821115620002a1578283fd5b50620002b085828601620001a4565b9150509250929050565b6000602080835283518082850152825b81811015620002e857858101830151858201604001528201620002ca565b81811115620002fa5783604083870101525b50601f01601f1916929092016040019392505050565b60006000198214156200033157634e487b7160e01b81526011600452602481fd5b5060010190565b634e487b7160e01b600052604160045260246000fd5b610a8f806200035e6000396000f3fe608060405234801561001057600080fd5b50600436106100a35760003560e01c80638da5cb5b11610076578063e30c39781161005b578063e30c397814610120578063f0e0626f14610133578063f2fde38b1461015c576100a3565b80638da5cb5b146100f357806392fede0014610118576100a3565b80634e71e0c8146100a8578063715018a6146100b2578063721adea7146100ba57806376e11286146100e0575b600080fd5b6100b061016f565b005b6100b0610209565b6100cd6100c8366004610803565b6102b2565b6040519081526020015b60405180910390f35b6100b06100ee3660046107d1565b61033f565b6000546001600160a01b03165b6040516001600160a01b0390911681526020016100d7565b6100b0610460565b600154610100906001600160a01b031681565b6101006101413660046107b7565b6002602052600090815260409020546001600160a01b031681565b6100b061016a3660046107b7565b61050c565b6001546001600160a01b0316336001600160a01b03161461018f57600080fd5b6001546001600160a01b03166101ad6000546001600160a01b031690565b6001600160a01b03167f8be0079c531659141344cd1fd0a4f28419497f9722a3daafe3b4186f6b6457e060405160405180910390a360018054600080546001600160a01b03199081166001600160a01b03841617909155169055565b6000546001600160a01b031633146102685760405162461bcd60e51b815260206004820181905260248201527f4f776e61626c653a2063616c6c6572206973206e6f7420746865206f776e657260448201526064015b60405180910390fd5b600080546040516001600160a01b03909116907f8be0079c531659141344cd1fd0a4f28419497f9722a3daafe3b4186f6b6457e0908390a3600080546001600160a01b0319169055565b60006102c260ff8316600a610956565b90506001600160a01b038316156102ed576102dc8361065f565b6102e69082610a24565b90506102fe565b6102fb816305f5e100610a24565b90505b6001600160a01b03841615610327576103168461065f565b61032090826108f0565b9050610338565b6103356305f5e100826108f0565b90505b9392505050565b6000546001600160a01b031633146103995760405162461bcd60e51b815260206004820181905260248201527f4f776e61626c653a2063616c6c6572206973206e6f7420746865206f776e6572604482015260640161025f565b60408051808201909152600381527f313330000000000000000000000000000000000000000000000000000000000060208201526001600160a01b0382166103f45760405162461bcd60e51b815260040161025f919061089d565b506001600160a01b0382811660008181526002602090815260409182902080546001600160a01b031916948616948517905581519283528201929092527f08263b6cb7360c1319d30f9e03ddceac6d81e2ff3a9db6804d63dfc67ef8fb69910160405180910390a15050565b6000546001600160a01b031633146104ba5760405162461bcd60e51b815260206004820181905260248201527f4f776e61626c653a2063616c6c6572206973206e6f7420746865206f776e6572604482015260640161025f565b6001546001600160a01b03166104cf57600080fd5b600180546001600160a01b03191690556040516000907f69737d41162474a7ca514809b07d7becaecf72eae8c23bceb071f0e09af93ffc908290a2565b6000546001600160a01b031633146105665760405162461bcd60e51b815260206004820181905260248201527f4f776e61626c653a2063616c6c6572206973206e6f7420746865206f776e6572604482015260640161025f565b6001600160a01b0381166105bc5760405162461bcd60e51b815260206004820152601960248201527f43616e6e6f742070617373207a65726f20616464726573732100000000000000604482015260640161025f565b6001546001600160a01b0316156106155760405162461bcd60e51b815260206004820152601960248201527f546865726520697320612070656e64696e67206f776e65722100000000000000604482015260640161025f565b600180546001600160a01b0319166001600160a01b0383169081179091556040517f69737d41162474a7ca514809b07d7becaecf72eae8c23bceb071f0e09af93ffc90600090a250565b6001600160a01b038181166000908152600260209081526040808320548151808301909252600382527f3530320000000000000000000000000000000000000000000000000000000000928201929092529192166106d05760405162461bcd60e51b815260040161025f919061089d565b506001600160a01b038083166000908152600260205260408082205481517ffeaf968c00000000000000000000000000000000000000000000000000000000815291519293169163feaf968c9160048082019260a092909190829003018186803b15801561073d57600080fd5b505afa158015610751573d6000803e3d6000fd5b505050506040513d601f19601f82011682018060405250810190610775919061084e565b50919695505050505050565b80356001600160a01b038116811461079857600080fd5b919050565b805169ffffffffffffffffffff8116811461079857600080fd5b6000602082840312156107c8578081fd5b61033882610781565b600080604083850312156107e3578081fd5b6107ec83610781565b91506107fa60208401610781565b90509250929050565b600080600060608486031215610817578081fd5b61082084610781565b925061082e60208501610781565b9150604084013560ff81168114610843578182fd5b809150509250925092565b600080600080600060a08688031215610865578081fd5b61086e8661079d565b94506020860151935060408601519250606086015191506108916080870161079d565b90509295509295909350565b6000602080835283518082850152825b818110156108c9578581018301518582016040015282016108ad565b818111156108da5783604083870101525b50601f01601f1916929092016040019392505050565b60008261090b57634e487b7160e01b81526012600452602481fd5b500490565b80825b6001808611610922575061094d565b81870482111561093457610934610a43565b8086161561094157918102915b9490941c938002610913565b94509492505050565b6000610338600019848460008261096f57506001610338565b8161097c57506000610338565b8160018114610992576002811461099c576109c9565b6001915050610338565b60ff8411156109ad576109ad610a43565b6001841b9150848211156109c3576109c3610a43565b50610338565b5060208310610133831016604e8410600b84101617156109fc575081810a838111156109f7576109f7610a43565b610338565b610a098484846001610910565b808604821115610a1b57610a1b610a43565b02949350505050565b6000816000190483118215151615610a3e57610a3e610a43565b500290565b634e487b7160e01b600052601160045260246000fdfea2646970667358221220eb64a3985fc9efa5cdccb85a26d270d6d7ab8d617814f369f5b7a4ee0fa2b14564736f6c63430008020033",
  "linkReferences": {},
  "deployedLinkReferences": {}
}