{
  "_format": "hh-sol-artifact-1",
  "contractName": "FujiMapping",
  "sourceName": "contracts/FujiMapping.sol",
  "abi": [
    {
      "anonymous": false,
      "inputs": [
        {
          "indexed": false,
          "internalType": "address",
          "name": "keyAddress",
          "type": "address"
        },
        {
          "indexed": false,
          "internalType": "address",
          "name": "mappedAddress",
          "type": "address"
        }
      ],
      "name": "MappingChanged",
      "type": "event"
    },
    {
      "anonymous": false,
      "inputs": [
        {
          "indexed": true,
          "internalType": "address",
          "name": "owner",
          "type": "address"
        }
      ],
      "name": "NewPendingOwner",
      "type": "event"
    },
    {
      "anonymous": false,
      "inputs": [
        {
          "indexed": true,
          "internalType": "address",
          "name": "previousOwner",
          "type": "address"
        },
        {
          "indexed": true,
          "internalType": "address",
          "name": "newOwner",
          "type": "address"
        }
      ],
      "name": "OwnershipTransferred",
      "type": "event"
    },
    {
      "anonymous": false,
      "inputs": [
        {
          "indexed": false,
          "internalType": "string",
          "name": "newUri",
          "type": "string"
        }
      ],
      "name": "UriChanged",
      "type": "event"
    },
    {
      "inputs": [
        {
          "internalType": "address",
          "name": "",
          "type": "address"
        }
      ],
      "name": "addressMapping",
      "outputs": [
        {
          "internalType": "address",
          "name": "",
          "type": "address"
        }
      ],
      "stateMutability": "view",
      "type": "function"
    },
    {
      "inputs": [],
      "name": "cancelTransferOwnership",
      "outputs": [],
      "stateMutability": "nonpayable",
      "type": "function"
    },
    {
      "inputs": [],
      "name": "claimOwnership",
      "outputs": [],
      "stateMutability": "nonpayable",
      "type": "function"
    },
    {
      "inputs": [],
      "name": "owner",
      "outputs": [
        {
          "internalType": "address",
          "name": "",
          "type": "address"
        }
      ],
      "stateMutability": "view",
      "type": "function"
    },
    {
      "inputs": [],
      "name": "pendingOwner",
      "outputs": [
        {
          "internalType": "address",
          "name": "",
          "type": "address"
        }
      ],
      "stateMutability": "view",
      "type": "function"
    },
    {
      "inputs": [],
      "name": "renounceOwnership",
      "outputs": [],
      "stateMutability": "nonpayable",
      "type": "function"
    },
    {
      "inputs": [
        {
          "internalType": "address",
          "name": "_addr1",
          "type": "address"
        },
        {
          "internalType": "address",
          "name": "_addr2",
          "type": "address"
        }
      ],
      "name": "setMapping",
      "outputs": [],
      "stateMutability": "nonpayable",
      "type": "function"
    },
    {
      "inputs": [
        {
          "internalType": "string",
          "name": "newUri",
          "type": "string"
        }
      ],
      "name": "setURI",
      "outputs": [],
      "stateMutability": "nonpayable",
      "type": "function"
    },
    {
      "inputs": [
        {
          "internalType": "address",
          "name": "newOwner",
          "type": "address"
        }
      ],
      "name": "transferOwnership",
      "outputs": [],
      "stateMutability": "nonpayable",
      "type": "function"
    },
    {
      "inputs": [],
      "name": "uri",
      "outputs": [
        {
          "internalType": "string",
          "name": "",
          "type": "string"
        }
      ],
      "stateMutability": "view",
      "type": "function"
    }
  ],
  "bytecode": "0x608060405234801561001057600080fd5b50600080546001600160a01b031916339081178255604051909182917f8be0079c531659141344cd1fd0a4f28419497f9722a3daafe3b4186f6b6457e0908290a35061095e806100616000396000f3fe608060405234801561001057600080fd5b50600436106100be5760003560e01c80638da5cb5b11610076578063e30c39781161005b578063e30c39781461015a578063eac989f81461016d578063f2fde38b14610182576100be565b80638da5cb5b1461014157806392fede0014610152576100be565b80631a545b30116100a75780631a545b301461011e5780634e71e0c814610131578063715018a614610139576100be565b806302fe5305146100c35780630494cd9a146100d8575b600080fd5b6100d66100d13660046107da565b610195565b005b6101016100e6366004610787565b6002602052600090815260409020546001600160a01b031681565b6040516001600160a01b0390911681526020015b60405180910390f35b6100d661012c3660046107a8565b610242565b6100d6610307565b6100d66103a1565b6000546001600160a01b0316610101565b6100d6610445565b600154610101906001600160a01b031681565b6101756104f1565b6040516101159190610884565b6100d6610190366004610787565b61057f565b6000546001600160a01b031633146101f45760405162461bcd60e51b815260206004820181905260248201527f4f776e61626c653a2063616c6c6572206973206e6f7420746865206f776e657260448201526064015b60405180910390fd5b80516102079060039060208401906106d2565b507fb1bf12e17db588c31e8fb2afdd2b3bc1ed822d68c560856fcbc75ae303fc5d14816040516102379190610884565b60405180910390a150565b6000546001600160a01b0316331461029c5760405162461bcd60e51b815260206004820181905260248201527f4f776e61626c653a2063616c6c6572206973206e6f7420746865206f776e657260448201526064016101eb565b6001600160a01b0382811660008181526002602090815260409182902080546001600160a01b031916948616948517905581519283528201929092527f10d653d381c89de72b219edaadbf8081d1b032cfb8bbe69165d5ad20d0769091910160405180910390a15050565b6001546001600160a01b0316336001600160a01b03161461032757600080fd5b6001546001600160a01b03166103456000546001600160a01b031690565b6001600160a01b03167f8be0079c531659141344cd1fd0a4f28419497f9722a3daafe3b4186f6b6457e060405160405180910390a360018054600080546001600160a01b03199081166001600160a01b03841617909155169055565b6000546001600160a01b031633146103fb5760405162461bcd60e51b815260206004820181905260248201527f4f776e61626c653a2063616c6c6572206973206e6f7420746865206f776e657260448201526064016101eb565b600080546040516001600160a01b03909116907f8be0079c531659141344cd1fd0a4f28419497f9722a3daafe3b4186f6b6457e0908390a3600080546001600160a01b0319169055565b6000546001600160a01b0316331461049f5760405162461bcd60e51b815260206004820181905260248201527f4f776e61626c653a2063616c6c6572206973206e6f7420746865206f776e657260448201526064016101eb565b6001546001600160a01b03166104b457600080fd5b600180546001600160a01b03191690556040516000907f69737d41162474a7ca514809b07d7becaecf72eae8c23bceb071f0e09af93ffc908290a2565b600380546104fe906108d7565b80601f016020809104026020016040519081016040528092919081815260200182805461052a906108d7565b80156105775780601f1061054c57610100808354040283529160200191610577565b820191906000526020600020905b81548152906001019060200180831161055a57829003601f168201915b505050505081565b6000546001600160a01b031633146105d95760405162461bcd60e51b815260206004820181905260248201527f4f776e61626c653a2063616c6c6572206973206e6f7420746865206f776e657260448201526064016101eb565b6001600160a01b03811661062f5760405162461bcd60e51b815260206004820152601960248201527f43616e6e6f742070617373207a65726f2061646472657373210000000000000060448201526064016101eb565b6001546001600160a01b0316156106885760405162461bcd60e51b815260206004820152601960248201527f546865726520697320612070656e64696e67206f776e6572210000000000000060448201526064016101eb565b600180546001600160a01b0319166001600160a01b0383169081179091556040517f69737d41162474a7ca514809b07d7becaecf72eae8c23bceb071f0e09af93ffc90600090a250565b8280546106de906108d7565b90600052602060002090601f0160209004810192826107005760008555610746565b82601f1061071957805160ff1916838001178555610746565b82800160010185558215610746579182015b8281111561074657825182559160200191906001019061072b565b50610752929150610756565b5090565b5b808211156107525760008155600101610757565b80356001600160a01b038116811461078257600080fd5b919050565b600060208284031215610798578081fd5b6107a18261076b565b9392505050565b600080604083850312156107ba578081fd5b6107c38361076b565b91506107d16020840161076b565b90509250929050565b6000602082840312156107eb578081fd5b813567ffffffffffffffff80821115610802578283fd5b818401915084601f830112610815578283fd5b81358181111561082757610827610912565b604051601f8201601f19908116603f0116810190838211818310171561084f5761084f610912565b81604052828152876020848701011115610867578586fd5b826020860160208301379182016020019490945295945050505050565b6000602080835283518082850152825b818110156108b057858101830151858201604001528201610894565b818111156108c15783604083870101525b50601f01601f1916929092016040019392505050565b6002810460018216806108eb57607f821691505b6020821081141561090c57634e487b7160e01b600052602260045260246000fd5b50919050565b634e487b7160e01b600052604160045260246000fdfea2646970667358221220f132883723df9711356e98668c886b329b267aeb4bbf9578576c6072e75a94e964736f6c63430008020033",
  "linkReferences": {},
  "deployedLinkReferences": {}
}