{
  "_format": "hh-sol-artifact-1",
  "contractName": "FujiVaultAVAX",
  "sourceName": "contracts/fuji/FujiVaultAVAX.sol",
  "abi": [
    {
      "anonymous": false,
      "inputs": [
        {
          "indexed": true,
          "internalType": "address",
          "name": "userAddrs",
          "type": "address"
        },
        {
          "indexed": true,
          "internalType": "address",
          "name": "asset",
          "type": "address"
        },
        {
          "indexed": false,
          "internalType": "uint256",
          "name": "amount",
          "type": "uint256"
        }
      ],
      "name": "Borrow",
      "type": "event"
    },
    {
      "anonymous": false,
      "inputs": [
        {
          "indexed": true,
          "internalType": "address",
          "name": "userAddrs",
          "type": "address"
        },
        {
          "indexed": true,
          "internalType": "address",
          "name": "asset",
          "type": "address"
        },
        {
          "indexed": false,
          "internalType": "uint256",
          "name": "amount",
          "type": "uint256"
        }
      ],
      "name": "Deposit",
      "type": "event"
    },
    {
      "anonymous": false,
      "inputs": [
        {
          "indexed": false,
          "internalType": "address",
          "name": "newF1155Address",
          "type": "address"
        }
      ],
      "name": "F1155Changed",
      "type": "event"
    },
    {
      "anonymous": false,
      "inputs": [
        {
          "indexed": false,
          "internalType": "enum IVault.FactorType",
          "name": "factorType",
          "type": "uint8"
        },
        {
          "indexed": false,
          "internalType": "uint64",
          "name": "newFactorA",
          "type": "uint64"
        },
        {
          "indexed": false,
          "internalType": "uint64",
          "name": "newFactorB",
          "type": "uint64"
        }
      ],
      "name": "FactorChanged",
      "type": "event"
    },
    {
      "anonymous": false,
      "inputs": [
        {
          "indexed": false,
          "internalType": "address",
          "name": "newFujiAdmin",
          "type": "address"
        }
      ],
      "name": "FujiAdminChanged",
      "type": "event"
    },
    {
      "anonymous": false,
      "inputs": [
        {
          "indexed": false,
          "internalType": "address",
          "name": "newOracle",
          "type": "address"
        }
      ],
      "name": "OracleChanged",
      "type": "event"
    },
    {
      "anonymous": false,
      "inputs": [
        {
          "indexed": true,
          "internalType": "address",
          "name": "previousOwner",
          "type": "address"
        },
        {
          "indexed": true,
          "internalType": "address",
          "name": "newOwner",
          "type": "address"
        }
      ],
      "name": "OwnershipTransferred",
      "type": "event"
    },
    {
      "anonymous": false,
      "inputs": [
        {
          "indexed": false,
          "internalType": "address",
          "name": "account",
          "type": "address"
        }
      ],
      "name": "Paused",
      "type": "event"
    },
    {
      "anonymous": false,
      "inputs": [
        {
          "indexed": true,
          "internalType": "address",
          "name": "userAddrs",
          "type": "address"
        },
        {
          "indexed": true,
          "internalType": "address",
          "name": "asset",
          "type": "address"
        },
        {
          "indexed": false,
          "internalType": "uint256",
          "name": "amount",
          "type": "uint256"
        }
      ],
      "name": "Payback",
      "type": "event"
    },
    {
      "anonymous": false,
      "inputs": [
        {
          "indexed": false,
          "internalType": "address[]",
          "name": "newProviderArray",
          "type": "address[]"
        }
      ],
      "name": "ProvidersChanged",
      "type": "event"
    },
    {
      "anonymous": false,
      "inputs": [
        {
          "indexed": false,
          "internalType": "address",
          "name": "newActiveProviderAddress",
          "type": "address"
        }
      ],
      "name": "SetActiveProvider",
      "type": "event"
    },
    {
      "anonymous": false,
      "inputs": [
        {
          "indexed": false,
          "internalType": "address",
          "name": "fromProviderAddrs",
          "type": "address"
        },
        {
          "indexed": false,
          "internalType": "address",
          "name": "toProviderAddr",
          "type": "address"
        },
        {
          "indexed": false,
          "internalType": "uint256",
          "name": "debtamount",
          "type": "uint256"
        },
        {
          "indexed": false,
          "internalType": "uint256",
          "name": "collattamount",
          "type": "uint256"
        }
      ],
      "name": "Switch",
      "type": "event"
    },
    {
      "anonymous": false,
      "inputs": [
        {
          "indexed": false,
          "internalType": "address",
          "name": "account",
          "type": "address"
        }
      ],
      "name": "Unpaused",
      "type": "event"
    },
    {
      "anonymous": false,
      "inputs": [
        {
          "indexed": true,
          "internalType": "address",
          "name": "userAddrs",
          "type": "address"
        },
        {
          "indexed": true,
          "internalType": "address",
          "name": "asset",
          "type": "address"
        },
        {
          "indexed": false,
          "internalType": "uint256",
          "name": "amount",
          "type": "uint256"
        }
      ],
      "name": "Withdraw",
      "type": "event"
    },
    {
      "inputs": [],
      "name": "AVAX",
      "outputs": [
        {
          "internalType": "address",
          "name": "",
          "type": "address"
        }
      ],
      "stateMutability": "view",
      "type": "function"
    },
    {
      "inputs": [],
      "name": "ONE_YEAR",
      "outputs": [
        {
          "internalType": "uint256",
          "name": "",
          "type": "uint256"
        }
      ],
      "stateMutability": "view",
      "type": "function"
    },
    {
      "inputs": [],
      "name": "activeProvider",
      "outputs": [
        {
          "internalType": "address",
          "name": "",
          "type": "address"
        }
      ],
      "stateMutability": "view",
      "type": "function"
    },
    {
      "inputs": [],
      "name": "bonusLiqF",
      "outputs": [
        {
          "internalType": "uint64",
          "name": "a",
          "type": "uint64"
        },
        {
          "internalType": "uint64",
          "name": "b",
          "type": "uint64"
        }
      ],
      "stateMutability": "view",
      "type": "function"
    },
    {
      "inputs": [
        {
          "internalType": "uint256",
          "name": "_borrowAmount",
          "type": "uint256"
        }
      ],
      "name": "borrow",
      "outputs": [],
      "stateMutability": "nonpayable",
      "type": "function"
    },
    {
      "inputs": [
        {
          "internalType": "address",
          "name": "_provider",
          "type": "address"
        }
      ],
      "name": "borrowBalance",
      "outputs": [
        {
          "internalType": "uint256",
          "name": "",
          "type": "uint256"
        }
      ],
      "stateMutability": "view",
      "type": "function"
    },
    {
      "inputs": [],
      "name": "collatF",
      "outputs": [
        {
          "internalType": "uint64",
          "name": "a",
          "type": "uint64"
        },
        {
          "internalType": "uint64",
          "name": "b",
          "type": "uint64"
        }
      ],
      "stateMutability": "view",
      "type": "function"
    },
    {
      "inputs": [
        {
          "internalType": "uint256",
          "name": "_collateralAmount",
          "type": "uint256"
        }
      ],
      "name": "deposit",
      "outputs": [],
      "stateMutability": "payable",
      "type": "function"
    },
    {
      "inputs": [
        {
          "internalType": "uint256",
          "name": "_collateralAmount",
          "type": "uint256"
        },
        {
          "internalType": "uint256",
          "name": "_borrowAmount",
          "type": "uint256"
        }
      ],
      "name": "depositAndBorrow",
      "outputs": [],
      "stateMutability": "payable",
      "type": "function"
    },
    {
      "inputs": [
        {
          "internalType": "address",
          "name": "_provider",
          "type": "address"
        }
      ],
      "name": "depositBalance",
      "outputs": [
        {
          "internalType": "uint256",
          "name": "",
          "type": "uint256"
        }
      ],
      "stateMutability": "view",
      "type": "function"
    },
    {
      "inputs": [
        {
          "internalType": "address",
          "name": "_newProvider",
          "type": "address"
        },
        {
          "internalType": "uint256",
          "name": "_flashLoanAmount",
          "type": "uint256"
        },
        {
          "internalType": "uint256",
          "name": "_fee",
          "type": "uint256"
        }
      ],
      "name": "executeSwitch",
      "outputs": [],
      "stateMutability": "payable",
      "type": "function"
    },
    {
      "inputs": [],
      "name": "fujiERC1155",
      "outputs": [
        {
          "internalType": "address",
          "name": "",
          "type": "address"
        }
      ],
      "stateMutability": "view",
      "type": "function"
    },
    {
      "inputs": [
        {
          "internalType": "uint256",
          "name": "_amount",
          "type": "uint256"
        }
      ],
      "name": "getLiquidationBonusFor",
      "outputs": [
        {
          "internalType": "uint256",
          "name": "",
          "type": "uint256"
        }
      ],
      "stateMutability": "view",
      "type": "function"
    },
    {
      "inputs": [
        {
          "internalType": "uint256",
          "name": "_amount",
          "type": "uint256"
        },
        {
          "internalType": "bool",
          "name": "_withFactors",
          "type": "bool"
        }
      ],
      "name": "getNeededCollateralFor",
      "outputs": [
        {
          "internalType": "uint256",
          "name": "",
          "type": "uint256"
        }
      ],
      "stateMutability": "view",
      "type": "function"
    },
    {
      "inputs": [],
      "name": "getProviders",
      "outputs": [
        {
          "internalType": "address[]",
          "name": "",
          "type": "address[]"
        }
      ],
      "stateMutability": "view",
      "type": "function"
    },
    {
      "inputs": [
        {
          "internalType": "uint256",
          "name": "_farmProtocolNum",
          "type": "uint256"
        },
        {
          "internalType": "bytes",
          "name": "_data",
          "type": "bytes"
        }
      ],
      "name": "harvestRewards",
      "outputs": [],
      "stateMutability": "nonpayable",
      "type": "function"
    },
    {
      "inputs": [
        {
          "internalType": "address",
          "name": "_fujiadmin",
          "type": "address"
        },
        {
          "internalType": "address",
          "name": "_oracle",
          "type": "address"
        },
        {
          "internalType": "address",
          "name": "_collateralAsset",
          "type": "address"
        },
        {
          "internalType": "address",
          "name": "_borrowAsset",
          "type": "address"
        }
      ],
      "name": "initialize",
      "outputs": [],
      "stateMutability": "nonpayable",
      "type": "function"
    },
    {
      "inputs": [],
      "name": "name",
      "outputs": [
        {
          "internalType": "string",
          "name": "",
          "type": "string"
        }
      ],
      "stateMutability": "view",
      "type": "function"
    },
    {
      "inputs": [],
      "name": "oracle",
      "outputs": [
        {
          "internalType": "contract IFujiOracle",
          "name": "",
          "type": "address"
        }
      ],
      "stateMutability": "view",
      "type": "function"
    },
    {
      "inputs": [],
      "name": "owner",
      "outputs": [
        {
          "internalType": "address",
          "name": "",
          "type": "address"
        }
      ],
      "stateMutability": "view",
      "type": "function"
    },
    {
      "inputs": [],
      "name": "pause",
      "outputs": [],
      "stateMutability": "nonpayable",
      "type": "function"
    },
    {
      "inputs": [],
      "name": "paused",
      "outputs": [
        {
          "internalType": "bool",
          "name": "",
          "type": "bool"
        }
      ],
      "stateMutability": "view",
      "type": "function"
    },
    {
      "inputs": [
        {
          "internalType": "int256",
          "name": "_repayAmount",
          "type": "int256"
        }
      ],
      "name": "payback",
      "outputs": [],
      "stateMutability": "payable",
      "type": "function"
    },
    {
      "inputs": [
        {
          "internalType": "int256",
          "name": "_paybackAmount",
          "type": "int256"
        },
        {
          "internalType": "int256",
          "name": "_collateralAmount",
          "type": "int256"
        }
      ],
      "name": "paybackAndWithdraw",
      "outputs": [],
      "stateMutability": "payable",
      "type": "function"
    },
    {
      "inputs": [
        {
          "internalType": "address[]",
          "name": "_users",
          "type": "address[]"
        },
        {
          "internalType": "uint256",
          "name": "_repayAmount",
          "type": "uint256"
        }
      ],
      "name": "paybackLiq",
      "outputs": [],
      "stateMutability": "payable",
      "type": "function"
    },
    {
      "inputs": [],
      "name": "protocolFee",
      "outputs": [
        {
          "internalType": "uint64",
          "name": "a",
          "type": "uint64"
        },
        {
          "internalType": "uint64",
          "name": "b",
          "type": "uint64"
        }
      ],
      "stateMutability": "view",
      "type": "function"
    },
    {
      "inputs": [
        {
          "internalType": "uint256",
          "name": "",
          "type": "uint256"
        }
      ],
      "name": "providers",
      "outputs": [
        {
          "internalType": "address",
          "name": "",
          "type": "address"
        }
      ],
      "stateMutability": "view",
      "type": "function"
    },
    {
      "inputs": [],
      "name": "remainingProtocolFee",
      "outputs": [
        {
          "internalType": "uint256",
          "name": "",
          "type": "uint256"
        }
      ],
      "stateMutability": "view",
      "type": "function"
    },
    {
      "inputs": [],
      "name": "renounceOwnership",
      "outputs": [],
      "stateMutability": "nonpayable",
      "type": "function"
    },
    {
      "inputs": [],
      "name": "safetyF",
      "outputs": [
        {
          "internalType": "uint64",
          "name": "a",
          "type": "uint64"
        },
        {
          "internalType": "uint64",
          "name": "b",
          "type": "uint64"
        }
      ],
      "stateMutability": "view",
      "type": "function"
    },
    {
      "inputs": [
        {
          "internalType": "address",
          "name": "_provider",
          "type": "address"
        }
      ],
      "name": "setActiveProvider",
      "outputs": [],
      "stateMutability": "nonpayable",
      "type": "function"
    },
    {
      "inputs": [
        {
          "internalType": "uint64",
          "name": "_newFactorA",
          "type": "uint64"
        },
        {
          "internalType": "uint64",
          "name": "_newFactorB",
          "type": "uint64"
        },
        {
          "internalType": "enum IVault.FactorType",
          "name": "_type",
          "type": "uint8"
        }
      ],
      "name": "setFactor",
      "outputs": [],
      "stateMutability": "nonpayable",
      "type": "function"
    },
    {
      "inputs": [
        {
          "internalType": "address",
          "name": "_newFujiAdmin",
          "type": "address"
        }
      ],
      "name": "setFujiAdmin",
      "outputs": [],
      "stateMutability": "nonpayable",
      "type": "function"
    },
    {
      "inputs": [
        {
          "internalType": "address",
          "name": "_fujiERC1155",
          "type": "address"
        }
      ],
      "name": "setFujiERC1155",
      "outputs": [],
      "stateMutability": "nonpayable",
      "type": "function"
    },
    {
      "inputs": [
        {
          "internalType": "address",
          "name": "_oracle",
          "type": "address"
        }
      ],
      "name": "setOracle",
      "outputs": [],
      "stateMutability": "nonpayable",
      "type": "function"
    },
    {
      "inputs": [
        {
          "internalType": "address[]",
          "name": "_providers",
          "type": "address[]"
        }
      ],
      "name": "setProviders",
      "outputs": [],
      "stateMutability": "nonpayable",
      "type": "function"
    },
    {
      "inputs": [
        {
          "internalType": "address",
          "name": "newOwner",
          "type": "address"
        }
      ],
      "name": "transferOwnership",
      "outputs": [],
      "stateMutability": "nonpayable",
      "type": "function"
    },
    {
      "inputs": [],
      "name": "unpause",
      "outputs": [],
      "stateMutability": "nonpayable",
      "type": "function"
    },
    {
      "inputs": [],
      "name": "updateF1155Balances",
      "outputs": [],
      "stateMutability": "nonpayable",
      "type": "function"
    },
    {
      "inputs": [
        {
          "internalType": "address",
          "name": "_user",
          "type": "address"
        }
      ],
      "name": "userDebtBalance",
      "outputs": [
        {
          "internalType": "uint256",
          "name": "",
          "type": "uint256"
        }
      ],
      "stateMutability": "view",
      "type": "function"
    },
    {
      "inputs": [
        {
          "internalType": "address",
          "name": "_user",
          "type": "address"
        }
      ],
      "name": "userDepositBalance",
      "outputs": [
        {
          "internalType": "uint256",
          "name": "",
          "type": "uint256"
        }
      ],
      "stateMutability": "view",
      "type": "function"
    },
    {
      "inputs": [
        {
          "internalType": "address",
          "name": "_user",
          "type": "address"
        }
      ],
      "name": "userProtocolFee",
      "outputs": [
        {
          "internalType": "uint256",
          "name": "",
          "type": "uint256"
        }
      ],
      "stateMutability": "view",
      "type": "function"
    },
    {
      "inputs": [],
      "name": "vAssets",
      "outputs": [
        {
          "internalType": "address",
          "name": "collateralAsset",
          "type": "address"
        },
        {
          "internalType": "address",
          "name": "borrowAsset",
          "type": "address"
        },
        {
          "internalType": "uint64",
          "name": "collateralID",
          "type": "uint64"
        },
        {
          "internalType": "uint64",
          "name": "borrowID",
          "type": "uint64"
        }
      ],
      "stateMutability": "view",
      "type": "function"
    },
    {
      "inputs": [
        {
          "internalType": "int256",
          "name": "_withdrawAmount",
          "type": "int256"
        }
      ],
      "name": "withdraw",
      "outputs": [],
      "stateMutability": "nonpayable",
      "type": "function"
    },
    {
      "inputs": [
        {
          "internalType": "int256",
          "name": "_withdrawAmount",
          "type": "int256"
        }
      ],
      "name": "withdrawLiq",
      "outputs": [],
      "stateMutability": "nonpayable",
      "type": "function"
    },
    {
      "inputs": [],
      "name": "withdrawProtocolFee",
      "outputs": [],
      "stateMutability": "nonpayable",
      "type": "function"
    },
    {
      "stateMutability": "payable",
      "type": "receive"
    }
  ],
  "bytecode": "0x608060405234801561001057600080fd5b50615b7a80620000216000396000f3fe6080604052600436106103005760003560e01c80638456cb591161018f578063b59f091e116100e1578063df6360a61161008a578063edc922a911610064578063edc922a9146108b2578063f2fde38b146108d4578063f8c8765e146108f457610307565b8063df6360a61461085f578063e5aa6d051461087f578063e897effb1461089257610307565b8063c5ebeaec116100bb578063c5ebeaec146107af578063cf4f4458146107cf578063d8df4ce7146107e257610307565b8063b59f091e1461076e578063b6b55f2514610789578063b75061bb1461079c57610307565b8063956501bb11610143578063acb2d4101161011d578063acb2d41014610702578063aef15ac014610722578063b0e21e8a1461074257610307565b8063956501bb146106a257806397f75dd9146106c2578063a0add934146106e257610307565b80638da5cb5b116101745780638da5cb5b1461064457806390d7bfae1461066257806391c154321461068257610307565b80638456cb59146106035780638b66aceb1461061857610307565b806359d8da921161025357806371e11430116101fc5780637dc0d1d0116101d65780637dc0d1d0146105b05780637e62eab8146105d05780637ec09f9d146105f057610307565b806371e11430146105505780637adbf973146105705780637c802ff21461059057610307565b8063685a46051161022d578063685a4605146105055780636f1ed6f71461051b578063715018a61461053b57610307565b806359d8da92146104b85780635c975abb146104cd57806367ac280a146104f057610307565b80631b98f6ac116102b55780634d73e9ba1161028f5780634d73e9ba1461043457806350f3fc81146104545780635564f53d1461048c57610307565b80631b98f6ac146103b25780631c1fc2cc146103d25780633f4ba83a1461041f57610307565b806316d3bfbb116102e657806316d3bfbb146103595780631714decd1461037f57806319e6e4151461039f57610307565b8062197ac71461030c57806306fdde031461032e57610307565b3661030757005b600080fd5b34801561031857600080fd5b5061032c610327366004615449565b610914565b005b34801561033a57600080fd5b50610343610a8c565b6040516103509190615840565b60405180910390f35b34801561036557600080fd5b506103716301e1338081565b604051908152602001610350565b34801561038b57600080fd5b5061037161039a3660046151aa565b610b1a565b61032c6103ad366004615449565b610c2e565b3480156103be57600080fd5b5061032c6103cd366004615305565b610c42565b3480156103de57600080fd5b5060cd546103fe9067ffffffffffffffff80821691600160401b90041682565b6040805167ffffffffffffffff938416815292909116602083015201610350565b34801561042b57600080fd5b5061032c610e11565b34801561044057600080fd5b5061037161044f3660046151aa565b610e75565b34801561046057600080fd5b5061047461046f366004615449565b610efb565b6040516001600160a01b039091168152602001610350565b34801561049857600080fd5b5060cc546103fe9067ffffffffffffffff80821691600160401b90041682565b3480156104c457600080fd5b5061032c610f25565b3480156104d957600080fd5b5060655460ff166040519015158152602001610350565b3480156104fc57600080fd5b5061032c611036565b34801561051157600080fd5b5061037160d85481565b34801561052757600080fd5b5061032c61053636600461559a565b611234565b34801561054757600080fd5b5061032c611746565b34801561055c57600080fd5b5061032c61056b3660046151aa565b6117aa565b34801561057c57600080fd5b5061032c61058b3660046151aa565b61192b565b34801561059c57600080fd5b506103716105ab3660046151aa565b611aa5565b3480156105bc57600080fd5b5060d454610474906001600160a01b031681565b3480156105dc57600080fd5b5061032c6105eb366004615449565b611af3565b61032c6105fe366004615461565b611b5c565b34801561060f57600080fd5b5061032c611b7a565b34801561062457600080fd5b5060cf546103fe9067ffffffffffffffff80821691600160401b90041682565b34801561065057600080fd5b506033546001600160a01b0316610474565b34801561066e57600080fd5b5061037161067d36600461556b565b611bdc565b34801561068e57600080fd5b5061032c61069d3660046151aa565b611d25565b3480156106ae57600080fd5b506103716106bd3660046151aa565b611e0f565b3480156106ce57600080fd5b5060d154610474906001600160a01b031681565b3480156106ee57600080fd5b5061032c6106fd3660046151aa565b611e43565b34801561070e57600080fd5b5060d354610474906001600160a01b031681565b34801561072e57600080fd5b5061032c61073d366004615635565b612120565b34801561074e57600080fd5b5060ce546103fe9067ffffffffffffffff80821691600160401b90041682565b34801561077a57600080fd5b506104746001600160a01b0381565b61032c610797366004615449565b612591565b61032c6107aa366004615461565b6125a2565b3480156107bb57600080fd5b5061032c6107ca366004615449565b6125bc565b61032c6107dd3660046152d1565b612625565b3480156107ee57600080fd5b50609754609854609954610824926001600160a01b03908116929081169167ffffffffffffffff600160a01b9092048216911684565b604080516001600160a01b03958616815294909316602085015267ffffffffffffffff91821692840192909252166060820152608001610350565b34801561086b57600080fd5b5061037161087a3660046151aa565b612a07565b61032c61088d366004615374565b612aac565b34801561089e57600080fd5b506103716108ad366004615449565b612d87565b3480156108be57600080fd5b506108c7612db5565b6040516103509190615794565b3480156108e057600080fd5b5061032c6108ef3660046151aa565b612e17565b34801561090057600080fd5b5061032c61090f3660046151e2565b612ef6565b6002609a54141561096c5760405162461bcd60e51b815260206004820152601f60248201527f5265656e7472616e637947756172643a207265656e7472616e742063616c6c0060448201526064015b60405180910390fd5b6002609a5560d254604080517fb8491a8400000000000000000000000000000000000000000000000000000000815290516001600160a01b039092169163b8491a8491600480820192602092909190829003018186803b1580156109cf57600080fd5b505afa1580156109e3573d6000803e3d6000fd5b505050506040513d601f19601f82011682018060405250810190610a0791906151c6565b6001600160a01b0316336001600160a01b0316146040518060400160405280600381526020016231313160e81b81525090610a555760405162461bcd60e51b81526004016109639190615840565b5060d154610a6d9082906001600160a01b03166133cc565b609754610a84906001600160a01b0316338361343e565b506001609a55565b60d58054610a9990615a73565b80601f0160208091040260200160405190810160405280929190818152602001828054610ac590615a73565b8015610b125780601f10610ae757610100808354040283529160200191610b12565b820191906000526020600020905b815481529060010190602001808311610af557829003601f168201915b505050505081565b60d354609954604051627eeac760e11b81526001600160a01b03848116600483015267ffffffffffffffff90921660248201526000928392169062fdd58e9060440160206040518083038186803b158015610b7457600080fd5b505afa158015610b88573d6000803e3d6000fd5b505050506040513d601f19601f82011682018060405250810190610bac9190615553565b60ce546001600160a01b038516600090815260d76020526040812054929350916301e133809167ffffffffffffffff600160401b8204811692911690610bf29042615a30565b610bfc9086615a11565b610c069190615a11565b610c1091906158dd565b610c1a91906158dd565b9050610c2681836158c5565b949350505050565b610c36611036565b610c3f81613514565b50565b6033546001600160a01b0316331480610cf1575060d260009054906101000a90046001600160a01b03166001600160a01b0316633018205f6040518163ffffffff1660e01b815260040160206040518083038186803b158015610ca457600080fd5b505afa158015610cb8573d6000803e3d6000fd5b505050506040513d601f19601f82011682018060405250810190610cdc91906151c6565b6001600160a01b0316336001600160a01b0316145b6040518060400160405280600381526020016231313160e81b81525090610d2b5760405162461bcd60e51b81526004016109639190615840565b5060005b81811015610dc6576000838383818110610d5957634e487b7160e01b600052603260045260246000fd5b9050602002016020810190610d6e91906151aa565b6001600160a01b031614156040518060400160405280600381526020016203133360ec1b81525090610db35760405162461bcd60e51b81526004016109639190615840565b5080610dbe81615aae565b915050610d2f565b50610dd360d0838361506a565b507f32e7fb34fed79bbb365c7c067731ee80348d07c9bb4a54d399d3c389c2fa9a2f8282604051610e05929190615746565b60405180910390a15050565b6033546001600160a01b03163314610e6b5760405162461bcd60e51b815260206004820181905260248201527f4f776e61626c653a2063616c6c6572206973206e6f7420746865206f776e65726044820152606401610963565b610e736138af565b565b609854604051637d6af07960e01b81526001600160a01b039182166004820152600091831690637d6af079906024015b60206040518083038186803b158015610ebd57600080fd5b505afa158015610ed1573d6000803e3d6000fd5b505050506040513d601f19601f82011682018060405250810190610ef59190615553565b92915050565b60d08181548110610f0b57600080fd5b6000918252602090912001546001600160a01b0316905081565b6002609a541415610f785760405162461bcd60e51b815260206004820152601f60248201527f5265656e7472616e637947756172643a207265656e7472616e742063616c6c006044820152606401610963565b6002609a5560d254604080517f3b19e84a000000000000000000000000000000000000000000000000000000008152905161102a926001600160a01b031691633b19e84a916004808301926020929190829003018186803b158015610fdc57600080fd5b505afa158015610ff0573d6000803e3d6000fd5b505050506040513d601f19601f8201168201806040525081019061101491906151c6565b60d8546098546001600160a01b0316919061343e565b600060d8556001609a55565b60d35460995460d154609854604051637d6af07960e01b81526001600160a01b03918216600482015293811693635eb62f639367ffffffffffffffff16929190911690637d6af0799060240160206040518083038186803b15801561109a57600080fd5b505afa1580156110ae573d6000803e3d6000fd5b505050506040513d601f19601f820116820180604052508101906110d29190615553565b6040516001600160e01b031960e085901b16815267ffffffffffffffff90921660048301526024820152604401600060405180830381600087803b15801561111957600080fd5b505af115801561112d573d6000803e3d6000fd5b505060d35460985460d154609754604051631da0b5cf60e31b81526001600160a01b0391821660048201529381169550635eb62f639450600160a01b90920467ffffffffffffffff169291169063ed05ae789060240160206040518083038186803b15801561119b57600080fd5b505afa1580156111af573d6000803e3d6000fd5b505050506040513d601f19601f820116820180604052508101906111d39190615553565b6040516001600160e01b031960e085901b16815267ffffffffffffffff90921660048301526024820152604401600060405180830381600087803b15801561121a57600080fd5b505af115801561122e573d6000803e3d6000fd5b50505050565b6033546001600160a01b0316331461128e5760405162461bcd60e51b815260206004820181905260248201527f4f776e61626c653a2063616c6c6572206973206e6f7420746865206f776e65726044820152606401610963565b60008060d260009054906101000a90046001600160a01b03166001600160a01b03166368f1ecc36040518163ffffffff1660e01b815260040160206040518083038186803b1580156112df57600080fd5b505afa1580156112f3573d6000803e3d6000fd5b505050506040513d601f19601f8201168201806040525081019061131791906151c6565b6001600160a01b0316635e7361e585856040518363ffffffff1660e01b8152600401611344929190615853565b600060405180830381600087803b15801561135e57600080fd5b505af1158015611372573d6000803e3d6000fd5b505050506040513d6000823e601f3d908101601f1916820160405261139a919081019061523d565b91509150600081600001516001600160a01b031682602001516040516113c091906156cf565b6000604051808303816000865af19150503d80600081146113fd576040519150601f19603f3d011682016040523d82523d6000602084013e611402565b606091505b50509050806114535760405162461bcd60e51b815260206004820152601960248201527f6661696c656420746f20686172766573742072657761726473000000000000006044820152606401610963565b6001600160a01b0383161561173f5760006114776001600160a01b0385163061394b565b90506001600160a01b038416158015906114915750600081115b6040518060400160405280600381526020017f3132360000000000000000000000000000000000000000000000000000000000815250906114e55760405162461bcd60e51b81526004016109639190615840565b5060d254604080517f43ad12af00000000000000000000000000000000000000000000000000000000815290516000926001600160a01b0316916343ad12af916004808301926020929190829003018186803b15801561154457600080fd5b505afa158015611558573d6000803e3d6000fd5b505050506040513d601f19601f8201168201806040525081019061157c91906151c6565b6097546040517fdcab1c030000000000000000000000000000000000000000000000000000000081526001600160a01b03888116600483015291821660248201526044810185905291169063dcab1c0390606401600060405180830381600087803b1580156115ea57600080fd5b505af11580156115fe573d6000803e3d6000fd5b505050506040513d6000823e601f3d908101601f1916820160405261162691908101906154c8565b90506001600160a01b038581161461164f57805161164f906001600160a01b0387169084613a05565b80600001516001600160a01b03168160400151826020015160405161167491906156cf565b60006040518083038185875af1925050503d80600081146116b1576040519150601f19603f3d011682016040523d82523d6000602084013e6116b6565b606091505b505080935050826117095760405162461bcd60e51b815260206004820152601660248201527f6661696c656420746f20737761702072657761726473000000000000000000006044820152606401610963565b60975461173490611723906001600160a01b03163061394b565b60d1546001600160a01b0316613b36565b61173c611036565b50505b5050505050565b6033546001600160a01b031633146117a05760405162461bcd60e51b815260206004820181905260248201527f4f776e61626c653a2063616c6c6572206973206e6f7420746865206f776e65726044820152606401610963565b610e736000613ba8565b6033546001600160a01b0316331480611859575060d260009054906101000a90046001600160a01b03166001600160a01b0316633018205f6040518163ffffffff1660e01b815260040160206040518083038186803b15801561180c57600080fd5b505afa158015611820573d6000803e3d6000fd5b505050506040513d601f19601f8201168201806040525081019061184491906151c6565b6001600160a01b0316336001600160a01b0316145b6040518060400160405280600381526020016231313160e81b815250906118935760405162461bcd60e51b81526004016109639190615840565b5060408051808201909152600381526203133360ec1b60208201526001600160a01b0382166118d55760405162461bcd60e51b81526004016109639190615840565b5060d180546001600160a01b0319166001600160a01b0383169081179091556040519081527f623e52a82ff2bab02a51be01f76b0b3178bbafcbe15c455b7ca4c9615b8da598906020015b60405180910390a150565b6033546001600160a01b03163314806119da575060d260009054906101000a90046001600160a01b03166001600160a01b0316633018205f6040518163ffffffff1660e01b815260040160206040518083038186803b15801561198d57600080fd5b505afa1580156119a1573d6000803e3d6000fd5b505050506040513d601f19601f820116820180604052508101906119c591906151c6565b6001600160a01b0316336001600160a01b0316145b6040518060400160405280600381526020016231313160e81b81525090611a145760405162461bcd60e51b81526004016109639190615840565b5060408051808201909152600381526203133360ec1b60208201526001600160a01b038216611a565760405162461bcd60e51b81526004016109639190615840565b5060d480546001600160a01b0319166001600160a01b0383169081179091556040519081527f0e05ae75e8b926552cf6fcd744d19f422561e3ced1e426868730852702dbe41890602001611920565b60d354609854604051627eeac760e11b81526001600160a01b038481166004830152600160a01b90920467ffffffffffffffff166024820152600092919091169062fdd58e90604401610ea5565b6002609a541415611b465760405162461bcd60e51b815260206004820152601f60248201527f5265656e7472616e637947756172643a207265656e7472616e742063616c6c006044820152606401610963565b6002609a55611b53611036565b610a8481613bfa565b611b64611036565b611b6d82613514565b611b7681613bfa565b5050565b6033546001600160a01b03163314611bd45760405162461bcd60e51b815260206004820181905260248201527f4f776e61626c653a2063616c6c6572206973206e6f7420746865206f776e65726044820152606401610963565b610e73613f14565b60d45460975460985460d6546040517f721adea70000000000000000000000000000000000000000000000000000000081526001600160a01b039384166004820152918316602483015260ff1660448201526000928392169063721adea79060640160206040518083038186803b158015611c5657600080fd5b505afa158015611c6a573d6000803e3d6000fd5b505050506040513d601f19601f82011682018060405250810190611c8e9190615553565b60d654909150600090611caa90610100900460ff16600a615943565b611cb48387615a11565b611cbe91906158dd565b90508315611d1c5760cc5460cd5467ffffffffffffffff600160401b80840482169390830482169290821691611cf5911685615a11565b611cff9190615a11565b611d0991906158dd565b611d1391906158dd565b92505050610ef5565b9150610ef59050565b6033546001600160a01b03163314611d7f5760405162461bcd60e51b815260206004820181905260248201527f4f776e61626c653a2063616c6c6572206973206e6f7420746865206f776e65726044820152606401610963565b60408051808201909152600381526203133360ec1b60208201526001600160a01b038216611dc05760405162461bcd60e51b81526004016109639190615840565b5060d280546001600160a01b0319166001600160a01b0383169081179091556040519081527fa05e64ea7e34b372177317c71229808e25bdbfe5dc3e6bc4fc7ca66c97d9327690602001611920565b609754604051631da0b5cf60e31b81526001600160a01b03918216600482015260009183169063ed05ae7890602401610ea5565b6033546001600160a01b0316331480611ef2575060d260009054906101000a90046001600160a01b03166001600160a01b0316633018205f6040518163ffffffff1660e01b815260040160206040518083038186803b158015611ea557600080fd5b505afa158015611eb9573d6000803e3d6000fd5b505050506040513d601f19601f82011682018060405250810190611edd91906151c6565b6001600160a01b0316336001600160a01b0316145b6040518060400160405280600381526020016231313160e81b81525090611f2c5760405162461bcd60e51b81526004016109639190615840565b5060408051808201909152600381526203133360ec1b60208201526001600160a01b038216611f6e5760405162461bcd60e51b81526004016109639190615840565b5060d380546001600160a01b0319166001600160a01b0383169081179091556040516330e2d1ed60e01b81526330e2d1ed90611fb19060009030906004016157e1565b602060405180830381600087803b158015611fcb57600080fd5b505af1158015611fdf573d6000803e3d6000fd5b505050506040513d601f19601f820116820180604052508101906120039190615619565b6098805467ffffffffffffffff92909216600160a01b027fffffffff0000000000000000ffffffffffffffffffffffffffffffffffffffff9092169190911790556040516330e2d1ed60e01b81526001600160a01b038216906330e2d1ed906120739060019030906004016157e1565b602060405180830381600087803b15801561208d57600080fd5b505af11580156120a1573d6000803e3d6000fd5b505050506040513d601f19601f820116820180604052508101906120c59190615619565b6099805467ffffffffffffffff191667ffffffffffffffff929092169190911790556040516001600160a01b03821681527fb89c4162816fee2afc84abac7e339928e379cd5d1d61acadaa52a39ce2650b6b90602001611920565b6033546001600160a01b03163314806121cf575060d260009054906101000a90046001600160a01b03166001600160a01b0316633018205f6040518163ffffffff1660e01b815260040160206040518083038186803b15801561218257600080fd5b505afa158015612196573d6000803e3d6000fd5b505050506040513d601f19601f820116820180604052508101906121ba91906151c6565b6001600160a01b0316336001600160a01b0316145b6040518060400160405280600381526020016231313160e81b815250906122095760405162461bcd60e51b81526004016109639190615840565b50600081600381111561222c57634e487b7160e01b600052602160045260246000fd5b14156122c9578167ffffffffffffffff168367ffffffffffffffff16116040518060400160405280600381526020016233303160e81b815250906122835760405162461bcd60e51b81526004016109639190615840565b5060cc805467ffffffffffffffff848116600160401b026fffffffffffffffff00000000000000001991871667ffffffffffffffff199093169290921716179055612551565b60018160038111156122eb57634e487b7160e01b600052602160045260246000fd5b1415612388578167ffffffffffffffff168367ffffffffffffffff16116040518060400160405280600381526020016233303160e81b815250906123425760405162461bcd60e51b81526004016109639190615840565b5060cd805467ffffffffffffffff848116600160401b026fffffffffffffffff00000000000000001991871667ffffffffffffffff199093169290921716179055612551565b60028160038111156123aa57634e487b7160e01b600052602160045260246000fd5b1415612447578167ffffffffffffffff168367ffffffffffffffff16106040518060400160405280600381526020016233303160e81b815250906124015760405162461bcd60e51b81526004016109639190615840565b5060ce805467ffffffffffffffff848116600160401b026fffffffffffffffff00000000000000001991871667ffffffffffffffff199093169290921716179055612551565b600381600381111561246957634e487b7160e01b600052602160045260246000fd5b1415612506578167ffffffffffffffff168367ffffffffffffffff16106040518060400160405280600381526020016233303160e81b815250906124c05760405162461bcd60e51b81526004016109639190615840565b5060cf805467ffffffffffffffff848116600160401b026fffffffffffffffff00000000000000001991871667ffffffffffffffff199093169290921716179055612551565b604080518082018252600381527f31333400000000000000000000000000000000000000000000000000000000006020820152905162461bcd60e51b81526109639190600401615840565b7f684344b55402a828ac72dba82a6cdde8094ee32955d4c34d290d43d1a70361228184846040516125849392919061580d565b60405180910390a1505050565b612599611036565b610c3f81613f8f565b6125aa611036565b6125b382613f8f565b611b768161411e565b6002609a54141561260f5760405162461bcd60e51b815260206004820152601f60248201527f5265656e7472616e637947756172643a207265656e7472616e742063616c6c006044820152606401610963565b6002609a5561261c611036565b610a848161411e565b60d260009054906101000a90046001600160a01b03166001600160a01b0316637fabc90b6040518163ffffffff1660e01b815260040160206040518083038186803b15801561267357600080fd5b505afa158015612687573d6000803e3d6000fd5b505050506040513d601f19601f820116820180604052508101906126ab91906151c6565b6001600160a01b0316336001600160a01b0316146040518060400160405280600381526020016231313160e81b815250906126f95760405162461bcd60e51b81526004016109639190615840565b5060655460ff16156127405760405162461bcd60e51b815260206004820152601060248201526f14185d5cd8589b194e881c185d5cd95960821b6044820152606401610963565b6000805b60d0548110156127a55760d0818154811061276f57634e487b7160e01b600052603260045260246000fd5b6000918252602090912001546001600160a01b038681169116141561279357600191505b8061279d81615aae565b915050612744565b50806127f657604080518082018252600381527f31333500000000000000000000000000000000000000000000000000000000006020820152905162461bcd60e51b81526109639190600401615840565b60d154609854604051637d6af07960e01b81526001600160a01b0391821660048201526000929190911690637d6af0799060240160206040518083038186803b15801561284257600080fd5b505afa158015612856573d6000803e3d6000fd5b505050506040513d601f19601f8201168201806040525081019061287a9190615553565b61288c85670de0b6b3a7640000615a11565b61289691906158dd565b60d1549091506128b09085906001600160a01b0316614483565b60d154609754604051631da0b5cf60e31b81526001600160a01b039182166004820152600092670de0b6b3a764000092859291169063ed05ae789060240160206040518083038186803b15801561290657600080fd5b505afa15801561291a573d6000803e3d6000fd5b505050506040513d601f19601f8201168201806040525081019061293e9190615553565b6129489190615a11565b61295291906158dd565b60d15490915061296c9082906001600160a01b03166133cc565b6129768187613b36565b61298961298385876158c5565b876144f5565b6129aa3361299786886158c5565b6098546001600160a01b0316919061343e565b60d154604080516001600160a01b03928316815291881660208301528101869052606081018290527f06792f8797628d4ae9a2a9ec4ff047ef0d1f3fca2c413ec76165fd8c5b125bd99060800160405180910390a1505050505050565b60d354609954604051627eeac760e11b81526001600160a01b03848116600483015267ffffffffffffffff90921660248201526000928392169062fdd58e9060440160206040518083038186803b158015612a6157600080fd5b505afa158015612a75573d6000803e3d6000fd5b505050506040513d601f19601f82011682018060405250810190612a999190615553565b9050612aa58382614567565b9392505050565b60d260009054906101000a90046001600160a01b03166001600160a01b031663b8491a846040518163ffffffff1660e01b815260040160206040518083038186803b158015612afa57600080fd5b505afa158015612b0e573d6000803e3d6000fd5b505050506040513d601f19601f82011682018060405250810190612b3291906151c6565b6001600160a01b0316336001600160a01b0316146040518060400160405280600381526020016231313160e81b81525090612b805760405162461bcd60e51b81526004016109639190615840565b506000805b8351811015612d4c5760006001600160a01b0316848281518110612bb957634e487b7160e01b600052603260045260246000fd5b60200260200101516001600160a01b031614612d3a574260d76000868481518110612bf457634e487b7160e01b600052603260045260246000fd5b60200260200101516001600160a01b03166001600160a01b0316815260200190815260200160002081905550600060d360009054906101000a90046001600160a01b03166001600160a01b031662fdd58e868481518110612c6557634e487b7160e01b600052603260045260246000fd5b602090810291909101015160995460405160e084901b6001600160e01b03191681526001600160a01b03909216600483015267ffffffffffffffff16602482015260440160206040518083038186803b158015612cc157600080fd5b505afa158015612cd5573d6000803e3d6000fd5b505050506040513d601f19601f82011682018060405250810190612cf99190615553565b9050612d2c858381518110612d1e57634e487b7160e01b600052603260045260246000fd5b602002602001015182614567565b612d3690846158c5565b9250505b80612d4481615aae565b915050612b85565b50612d6b612d5a8284615a30565b60d1546001600160a01b0316614483565b8060d86000828254612d7d91906158c5565b9091555050505050565b60cf5460009067ffffffffffffffff600160401b8204811691612dab911684615a11565b610ef591906158dd565b606060d0805480602002602001604051908101604052809291908181526020018280548015612e0d57602002820191906000526020600020905b81546001600160a01b03168152600190910190602001808311612def575b5050505050905090565b6033546001600160a01b03163314612e715760405162461bcd60e51b815260206004820181905260248201527f4f776e61626c653a2063616c6c6572206973206e6f7420746865206f776e65726044820152606401610963565b6001600160a01b038116612eed5760405162461bcd60e51b815260206004820152602660248201527f4f776e61626c653a206e6577206f776e657220697320746865207a65726f206160448201527f64647265737300000000000000000000000000000000000000000000000000006064820152608401610963565b610c3f81613ba8565b600054610100900460ff1680612f0f575060005460ff16155b612f725760405162461bcd60e51b815260206004820152602e60248201527f496e697469616c697a61626c653a20636f6e747261637420697320616c72656160448201526d191e481a5b9a5d1a585b1a5e995960921b6064820152608401610963565b600054610100900460ff16158015612f9d576000805460ff1961ff0019909116610100171660011790555b6001600160a01b03851615801590612fbd57506001600160a01b03841615155b8015612fd157506001600160a01b03831615155b8015612fe557506001600160a01b03821615155b6040518060400160405280600381526020016203133360ec1b8152509061301f5760405162461bcd60e51b81526004016109639190615840565b506130286145d2565b61303061469d565b613038614754565b60d280546001600160a01b038088166001600160a01b03199283161790925560d4805487841690831617905560978054868416908316811790915560988054868516931692909217909155606091829114156130bd57604080518082019091526004815263082ac82b60e31b602082015260d6805460ff1916601217905591506131ba565b846001600160a01b03166395d89b416040518163ffffffff1660e01b815260040160006040518083038186803b1580156130f657600080fd5b505afa15801561310a573d6000803e3d6000fd5b505050506040513d6000823e601f3d908101601f191682016040526131329190810190615482565b9150846001600160a01b031663313ce5676040518163ffffffff1660e01b815260040160206040518083038186803b15801561316d57600080fd5b505afa158015613181573d6000803e3d6000fd5b505050506040513d601f19601f820116820180604052508101906131a59190615682565b60d6805460ff191660ff929092169190911790555b6001600160a01b0384811614156131fb5750604080518082019091526004815263082ac82b60e31b602082015260d6805461ff0019166112001790556132fe565b836001600160a01b03166395d89b416040518163ffffffff1660e01b815260040160006040518083038186803b15801561323457600080fd5b505afa158015613248573d6000803e3d6000fd5b505050506040513d6000823e601f3d908101601f191682016040526132709190810190615482565b9050836001600160a01b031663313ce5676040518163ffffffff1660e01b815260040160206040518083038186803b1580156132ab57600080fd5b505afa1580156132bf573d6000803e3d6000fd5b505050506040513d601f19601f820116820180604052508101906132e39190615682565b60d660016101000a81548160ff021916908360ff1602179055505b81816040516020016133119291906156eb565b60405160208183030381529060405260d590805190602001906133359291906150cd565b505060cc8054681400000000000000006fffffffffffffffff00000000000000001967ffffffffffffffff199283166015178116821790935560cd8054683f0000000000000000908416605017851617905560cf8054831660019081178516909217905560ce80546903e80000000000000000931690911790921617905550801561173f576000805461ff00191690555050505050565b6097546040516001600160a01b0390911660248201526044810183905260009060640160408051601f198184030181529190526020810180516001600160e01b03167ff3fef3a300000000000000000000000000000000000000000000000000000000179052905061122e8282614803565b801561350f5761344d83614957565b156134fb576000826001600160a01b03168260405160006040518083038185875af1925050503d806000811461349f576040519150601f19603f3d011682016040523d82523d6000602084013e6134a4565b606091505b50509050806134f55760405162461bcd60e51b815260206004820152601360248201527f4661696c656420746f2073656e642041564158000000000000000000000000006044820152606401610963565b5061350f565b61350f6001600160a01b038416838361497a565b505050565b60d354609954604051627eeac760e11b815233600482015267ffffffffffffffff90911660248201526000916001600160a01b03169062fdd58e9060440160206040518083038186803b15801561356a57600080fd5b505afa15801561357e573d6000803e3d6000fd5b505050506040513d601f19601f820116820180604052508101906135a29190615553565b905060006135b03383614567565b905080831180156135c15750600082115b6040518060400160405280600381526020017f3130360000000000000000000000000000000000000000000000000000000000815250906136155760405162461bcd60e51b81526004016109639190615840565b506000808412613625578361362f565b61362f82846158c5565b6098549091506001600160a01b0390811614156136a057803410156040518060400160405280600381526020016231303360e81b815250906136845760405162461bcd60e51b81526004016109639190615840565b508034111561369b5761369b336129978334615a30565b613790565b609854604051636eb1769f60e11b815233600482015230602482015282916001600160a01b03169063dd62ed3e9060440160206040518083038186803b1580156136e957600080fd5b505afa1580156136fd573d6000803e3d6000fd5b505050506040513d601f19601f820116820180604052508101906137219190615553565b10156040518060400160405280600381526020017f3130370000000000000000000000000000000000000000000000000000000000815250906137775760405162461bcd60e51b81526004016109639190615840565b50609854613790906001600160a01b03163330846149f6565b61379d612d5a8383615a30565b60d3546099546001600160a01b039091169063f5298aca90339067ffffffffffffffff166137cb8686615a30565b6040516001600160e01b031960e086901b1681526001600160a01b03909316600484015267ffffffffffffffff90911660248301526044820152606401600060405180830381600087803b15801561382257600080fd5b505af1158015613836573d6000803e3d6000fd5b505033600090815260d76020526040812042905560d8805486945090925061385f9084906158c5565b90915550506098546040518481526001600160a01b039091169033907ffc2d2b4b3ad857c1c0893799f86b421efff822709b26de93df5709671f4841ca906020015b60405180910390a350505050565b60655460ff166139015760405162461bcd60e51b815260206004820152601460248201527f5061757361626c653a206e6f74207061757365640000000000000000000000006044820152606401610963565b6065805460ff191690557f5db9ee0a495bf2e6ff9c91a7834c1ba4fdd244a5e8aa4e537bd38aeae4b073aa335b6040516001600160a01b03909116815260200160405180910390a1565b600061395683614957565b1561396c57506001600160a01b03811631610ef5565b6040517f70a082310000000000000000000000000000000000000000000000000000000081526001600160a01b0383811660048301528416906370a082319060240160206040518083038186803b1580156139c657600080fd5b505afa1580156139da573d6000803e3d6000fd5b505050506040513d601f19601f820116820180604052508101906139fe9190615553565b9050610ef5565b613a0e83614957565b15613a5b5760405162461bcd60e51b815260206004820152601660248201527f417070726f76652063616c6c6564206f6e2041564158000000000000000000006044820152606401610963565b80613a7a57613a756001600160a01b038416836000614a47565b61350f565b604051636eb1769f60e11b81523060048201526001600160a01b0383811660248301526000919085169063dd62ed3e9060440160206040518083038186803b158015613ac557600080fd5b505afa158015613ad9573d6000803e3d6000fd5b505050506040513d601f19601f82011682018060405250810190613afd9190615553565b90508181101561122e578015613b2257613b226001600160a01b038516846000614a47565b61122e6001600160a01b0385168484614a47565b6097546040516001600160a01b0390911660248201526044810183905260009060640160408051601f198184030181529190526020810180516001600160e01b03167f47e7ef2400000000000000000000000000000000000000000000000000000000179052905061122e8282614803565b603380546001600160a01b038381166001600160a01b0319831681179093556040519116919082907f8be0079c531659141344cd1fd0a4f28419497f9722a3daafe3b4186f6b6457e090600090a35050565b60d354609854604051627eeac760e11b8152336004820152600160a01b90910467ffffffffffffffff1660248201526000916001600160a01b03169062fdd58e9060440160206040518083038186803b158015613c5657600080fd5b505afa158015613c6a573d6000803e3d6000fd5b505050506040513d601f19601f82011682018060405250810190613c8e9190615553565b9050600081116040518060400160405280600381526020017f313132000000000000000000000000000000000000000000000000000000000081525090613ce85760405162461bcd60e51b81526004016109639190615840565b5060d354609954604051627eeac760e11b815233600482015267ffffffffffffffff9091166024820152600091613d84916001600160a01b039091169062fdd58e9060440160206040518083038186803b158015613d4557600080fd5b505afa158015613d59573d6000803e3d6000fd5b505050506040513d601f19601f82011682018060405250810190613d7d9190615553565b6001611bdc565b90506000808412613d955783613d9f565b613d9f8284615a30565b90508015801590613db9575081613db68285615a30565b10155b6040518060400160405280600381526020017f313034000000000000000000000000000000000000000000000000000000000081525090613e0d5760405162461bcd60e51b81526004016109639190615840565b5060d3546098546040517ff5298aca000000000000000000000000000000000000000000000000000000008152336004820152600160a01b90910467ffffffffffffffff166024820152604481018390526001600160a01b039091169063f5298aca90606401600060405180830381600087803b158015613e8d57600080fd5b505af1158015613ea1573d6000803e3d6000fd5b505060d154613ebc92508391506001600160a01b03166133cc565b609754613ed3906001600160a01b0316338361343e565b6097546040518281526001600160a01b039091169033907f9b1bfa7fa9ee420a16e124f794c35ac9f90472acc99140eb2f6447c714cad8eb906020016138a1565b60655460ff1615613f5a5760405162461bcd60e51b815260206004820152601060248201526f14185d5cd8589b194e881c185d5cd95960821b6044820152606401610963565b6065805460ff191660011790557f62e78cea01bee320cd4e420270b5ea74000d11b0c9f74754ebdbfc544b05a25861392e3390565b6097546001600160a01b039081161415613ff1578034148015613fb157508015155b6040518060400160405280600381526020016231303360e81b81525090613feb5760405162461bcd60e51b81526004016109639190615840565b50614042565b60408051808201909152600381526231303360e81b6020820152816140295760405162461bcd60e51b81526004016109639190615840565b50609754614042906001600160a01b03163330846149f6565b60d1546140599082906001600160a01b0316613b36565b60d354609854604051630ab714fb60e11b8152336004820152600160a01b90910467ffffffffffffffff166024820152604481018390526001600160a01b039091169063156e29f690606401600060405180830381600087803b1580156140bf57600080fd5b505af11580156140d3573d6000803e3d6000fd5b50506097546040518481526001600160a01b0390911692503391507f5548c837ab068cf56a2c2479df0882a4922fd203edb7517321831d95078c5f629060200160405180910390a350565b60d354609854604051627eeac760e11b8152336004820152600160a01b90910467ffffffffffffffff1660248201526000916001600160a01b03169062fdd58e9060440160206040518083038186803b15801561417a57600080fd5b505afa15801561418e573d6000803e3d6000fd5b505050506040513d601f19601f820116820180604052508101906141b29190615553565b60d354609954604051627eeac760e11b815233600482015267ffffffffffffffff90911660248201529192506000916001600160a01b039091169062fdd58e9060440160206040518083038186803b15801561420d57600080fd5b505afa158015614221573d6000803e3d6000fd5b505050506040513d601f19601f820116820180604052508101906142459190615553565b9050600061425382856158c5565b90506000614262826001611bdc565b9050841580159061427257508084115b6040518060400160405280600381526020017f3130350000000000000000000000000000000000000000000000000000000000815250906142c65760405162461bcd60e51b81526004016109639190615840565b5060ce5433600090815260d7602052604081205490916301e133809167ffffffffffffffff600160401b830481169216906143019042615a30565b61430b9088615a11565b6143159190615a11565b61431f91906158dd565b61432991906158dd565b60ce54909150839067ffffffffffffffff600160401b8204811691166143536301e1338085615a11565b61435d9190615a11565b61436791906158dd565b61437191906158dd565b61437b9042615a30565b33600081815260d76020526040908190209290925560d3546099549251630ab714fb60e11b8152600481019290925267ffffffffffffffff9092166024820152604481018890526001600160a01b039091169063156e29f690606401600060405180830381600087803b1580156143f157600080fd5b505af1158015614405573d6000803e3d6000fd5b505060d15461442092508891506001600160a01b03166144f5565b609854614437906001600160a01b0316338861343e565b6098546040518781526001600160a01b039091169033907f312a5e5e1079f5dda4e95dbbd0b908b291fd5b992ef22073643ab691572c5b529060200160405180910390a3505050505050565b6098546040516001600160a01b0390911660248201526044810183905260009060640160408051601f198184030181529190526020810180516001600160e01b03167f35ed8ab800000000000000000000000000000000000000000000000000000000179052905061122e8282614803565b6098546040516001600160a01b0390911660248201526044810183905260009060640160408051601f198184030181529190526020810180516001600160e01b03167f4b8a352900000000000000000000000000000000000000000000000000000000179052905061122e8282614803565b60ce546001600160a01b038316600090815260d7602052604081205490916301e133809167ffffffffffffffff600160401b830481169216906145aa9042615a30565b6145b49086615a11565b6145be9190615a11565b6145c891906158dd565b612aa591906158dd565b600054610100900460ff16806145eb575060005460ff16155b61464e5760405162461bcd60e51b815260206004820152602e60248201527f496e697469616c697a61626c653a20636f6e747261637420697320616c72656160448201526d191e481a5b9a5d1a585b1a5e995960921b6064820152608401610963565b600054610100900460ff16158015614679576000805460ff1961ff0019909116610100171660011790555b614681614b8b565b614689614c45565b8015610c3f576000805461ff001916905550565b600054610100900460ff16806146b6575060005460ff16155b6147195760405162461bcd60e51b815260206004820152602e60248201527f496e697469616c697a61626c653a20636f6e747261637420697320616c72656160448201526d191e481a5b9a5d1a585b1a5e995960921b6064820152608401610963565b600054610100900460ff16158015614744576000805460ff1961ff0019909116610100171660011790555b61474c614b8b565b614689614cf5565b600054610100900460ff168061476d575060005460ff16155b6147d05760405162461bcd60e51b815260206004820152602e60248201527f496e697469616c697a61626c653a20636f6e747261637420697320616c72656160448201526d191e481a5b9a5d1a585b1a5e995960921b6064820152608401610963565b600054610100900460ff161580156147fb576000805460ff1961ff0019909116610100171660011790555b614689614dba565b606061481160655460ff1690565b156148515760405162461bcd60e51b815260206004820152601060248201526f14185d5cd8589b194e881c185d5cd95960821b6044820152606401610963565b60408051808201909152600381527f313137000000000000000000000000000000000000000000000000000000000060208201526001600160a01b0384163b6148ad5760405162461bcd60e51b81526004016109639190615840565b50600080846001600160a01b0316846040516148c991906156cf565b600060405180830381855af49150503d8060008114614904576040519150601f19603f3d011682016040523d82523d6000602084013e614909565b606091505b509150915061494e82826040518060400160405280602081526020017f64656c65676174652063616c6c20746f2070726f7669646572206661696c6564815250614e7a565b95945050505050565b60006001600160a01b0382161580610ef55750506001600160a01b039081161490565b6040516001600160a01b03831660248201526044810182905261350f9084907fa9059cbb00000000000000000000000000000000000000000000000000000000906064015b60408051601f198184030181529190526020810180516001600160e01b03166001600160e01b031990931692909217909152614eb3565b6040516001600160a01b038085166024830152831660448201526064810182905261122e9085907f23b872dd00000000000000000000000000000000000000000000000000000000906084016149bf565b801580614ad05750604051636eb1769f60e11b81523060048201526001600160a01b03838116602483015284169063dd62ed3e9060440160206040518083038186803b158015614a9657600080fd5b505afa158015614aaa573d6000803e3d6000fd5b505050506040513d601f19601f82011682018060405250810190614ace9190615553565b155b614b425760405162461bcd60e51b815260206004820152603660248201527f5361666545524332303a20617070726f76652066726f6d206e6f6e2d7a65726f60448201527f20746f206e6f6e2d7a65726f20616c6c6f77616e6365000000000000000000006064820152608401610963565b6040516001600160a01b03831660248201526044810182905261350f9084907f095ea7b300000000000000000000000000000000000000000000000000000000906064016149bf565b600054610100900460ff1680614ba4575060005460ff16155b614c075760405162461bcd60e51b815260206004820152602e60248201527f496e697469616c697a61626c653a20636f6e747261637420697320616c72656160448201526d191e481a5b9a5d1a585b1a5e995960921b6064820152608401610963565b600054610100900460ff16158015614689576000805460ff1961ff0019909116610100171660011790558015610c3f576000805461ff001916905550565b600054610100900460ff1680614c5e575060005460ff16155b614cc15760405162461bcd60e51b815260206004820152602e60248201527f496e697469616c697a61626c653a20636f6e747261637420697320616c72656160448201526d191e481a5b9a5d1a585b1a5e995960921b6064820152608401610963565b600054610100900460ff16158015614cec576000805460ff1961ff0019909116610100171660011790555b61468933613ba8565b600054610100900460ff1680614d0e575060005460ff16155b614d715760405162461bcd60e51b815260206004820152602e60248201527f496e697469616c697a61626c653a20636f6e747261637420697320616c72656160448201526d191e481a5b9a5d1a585b1a5e995960921b6064820152608401610963565b600054610100900460ff16158015614d9c576000805460ff1961ff0019909116610100171660011790555b6065805460ff191690558015610c3f576000805461ff001916905550565b600054610100900460ff1680614dd3575060005460ff16155b614e365760405162461bcd60e51b815260206004820152602e60248201527f496e697469616c697a61626c653a20636f6e747261637420697320616c72656160448201526d191e481a5b9a5d1a585b1a5e995960921b6064820152608401610963565b600054610100900460ff16158015614e61576000805460ff1961ff0019909116610100171660011790555b6001609a558015610c3f576000805461ff001916905550565b60608315614e89575081612aa5565b825115614e995782518084602001fd5b8160405162461bcd60e51b81526004016109639190615840565b6000614f08826040518060400160405280602081526020017f5361666545524332303a206c6f772d6c6576656c2063616c6c206661696c6564815250856001600160a01b0316614f989092919063ffffffff16565b80519091501561350f5780806020019051810190614f26919061542d565b61350f5760405162461bcd60e51b815260206004820152602a60248201527f5361666545524332303a204552433230206f7065726174696f6e20646964206e60448201527f6f742073756363656564000000000000000000000000000000000000000000006064820152608401610963565b6060610c26848460008585843b614ff15760405162461bcd60e51b815260206004820152601d60248201527f416464726573733a2063616c6c20746f206e6f6e2d636f6e74726163740000006044820152606401610963565b600080866001600160a01b0316858760405161500d91906156cf565b60006040518083038185875af1925050503d806000811461504a576040519150601f19603f3d011682016040523d82523d6000602084013e61504f565b606091505b509150915061505f828286614e7a565b979650505050505050565b8280548282559060005260206000209081019282156150bd579160200282015b828111156150bd5781546001600160a01b0319166001600160a01b0384351617825560209092019160019091019061508a565b506150c9929150615141565b5090565b8280546150d990615a73565b90600052602060002090601f0160209004810192826150fb57600085556150bd565b82601f1061511457805160ff19168380011785556150bd565b828001600101855582156150bd579182015b828111156150bd578251825591602001919060010190615126565b5b808211156150c95760008155600101615142565b60006151696151648461589d565b61586c565b905082815283838301111561517d57600080fd5b612aa5836020830184615a47565b600082601f83011261519b578081fd5b612aa583835160208501615156565b6000602082840312156151bb578081fd5b8135612aa581615b0b565b6000602082840312156151d7578081fd5b8151612aa581615b0b565b600080600080608085870312156151f7578283fd5b843561520281615b0b565b9350602085013561521281615b0b565b9250604085013561522281615b0b565b9150606085013561523281615b0b565b939692955090935050565b6000806040838503121561524f578081fd5b825161525a81615b0b565b602084015190925067ffffffffffffffff80821115615277578283fd5b908401906040828703121561528a578283fd5b615294604061586c565b825161529f81615b0b565b81526020830151828111156152b2578485fd5b6152be8882860161518b565b6020830152508093505050509250929050565b6000806000606084860312156152e5578081fd5b83356152f081615b0b565b95602085013595506040909401359392505050565b60008060208385031215615317578182fd5b823567ffffffffffffffff8082111561532e578384fd5b818501915085601f830112615341578384fd5b81358181111561534f578485fd5b8660208083028501011115615362578485fd5b60209290920196919550909350505050565b60008060408385031215615386578182fd5b823567ffffffffffffffff8082111561539d578384fd5b818501915085601f8301126153b0578384fd5b81356020828211156153c4576153c4615af5565b80820292506153d481840161586c565b8281528181019085830185870184018b10156153ee578889fd5b8896505b8487101561541c578035955061540786615b0b565b858352600196909601959183019183016153f2565b509997909101359750505050505050565b60006020828403121561543e578081fd5b8151612aa581615b20565b60006020828403121561545a578081fd5b5035919050565b60008060408385031215615473578182fd5b50508035926020909101359150565b600060208284031215615493578081fd5b815167ffffffffffffffff8111156154a9578182fd5b8201601f810184136154b9578182fd5b610c2684825160208401615156565b6000602082840312156154d9578081fd5b815167ffffffffffffffff808211156154f0578283fd5b9083019060608286031215615503578283fd5b61550d606061586c565b825161551881615b0b565b815260208301518281111561552b578485fd5b6155378782860161518b565b6020830152506040830151604082015280935050505092915050565b600060208284031215615564578081fd5b5051919050565b6000806040838503121561557d578182fd5b82359150602083013561558f81615b20565b809150509250929050565b600080604083850312156155ac578182fd5b82359150602083013567ffffffffffffffff8111156155c9578182fd5b8301601f810185136155d9578182fd5b80356155e76151648261589d565b8181528660208385010111156155fb578384fd5b81602084016020830137908101602001929092525090939092509050565b60006020828403121561562a578081fd5b8151612aa581615b2e565b600080600060608486031215615649578081fd5b833561565481615b2e565b9250602084013561566481615b2e565b9150604084013560048110615677578182fd5b809150509250925092565b600060208284031215615693578081fd5b815160ff81168114612aa5578182fd5b600081518084526156bb816020860160208601615a47565b601f01601f19169290920160200192915050565b600082516156e1818460208701615a47565b9190910192915050565b60007f5661756c7400000000000000000000000000000000000000000000000000000082528351615723816005850160208801615a47565b83519083019061573a816005840160208801615a47565b01600501949350505050565b60208082528181018390526000908460408401835b8681101561578957823561576e81615b0b565b6001600160a01b03168252918301919083019060010161575b565b509695505050505050565b6020808252825182820181905260009190848201906040850190845b818110156157d55783516001600160a01b0316835292840192918401916001016157b0565b50909695505050505050565b60408101600284106157f5576157f5615adf565b9281526001600160a01b039190911660209091015290565b606081016004851061582157615821615adf565b93815267ffffffffffffffff9283166020820152911660409091015290565b600060208252612aa560208301846156a3565b600083825260406020830152610c2660408301846156a3565b604051601f8201601f1916810167ffffffffffffffff8111828210171561589557615895615af5565b604052919050565b600067ffffffffffffffff8211156158b7576158b7615af5565b50601f01601f191660200190565b600082198211156158d8576158d8615ac9565b500190565b6000826158f857634e487b7160e01b81526012600452602481fd5b500490565b80825b600180861161590f575061593a565b81870482111561592157615921615ac9565b8086161561592e57918102915b9490941c938002615900565b94509492505050565b6000612aa5600019848460008261595c57506001612aa5565b8161596957506000612aa5565b816001811461597f5760028114615989576159b6565b6001915050612aa5565b60ff84111561599a5761599a615ac9565b6001841b9150848211156159b0576159b0615ac9565b50612aa5565b5060208310610133831016604e8410600b84101617156159e9575081810a838111156159e4576159e4615ac9565b612aa5565b6159f684848460016158fd565b808604821115615a0857615a08615ac9565b02949350505050565b6000816000190483118215151615615a2b57615a2b615ac9565b500290565b600082821015615a4257615a42615ac9565b500390565b60005b83811015615a62578181015183820152602001615a4a565b8381111561122e5750506000910152565b600281046001821680615a8757607f821691505b60208210811415615aa857634e487b7160e01b600052602260045260246000fd5b50919050565b6000600019821415615ac257615ac2615ac9565b5060010190565b634e487b7160e01b600052601160045260246000fd5b634e487b7160e01b600052602160045260246000fd5b634e487b7160e01b600052604160045260246000fd5b6001600160a01b0381168114610c3f57600080fd5b8015158114610c3f57600080fd5b67ffffffffffffffff81168114610c3f57600080fdfea26469706673582212208f9794df7035a375957c140c8ecee57a0aed8c2e98556c44c8518492d5d1ca3864736f6c63430008020033",
  "linkReferences": {},
  "deployedLinkReferences": {}
}