{
  "_format": "hh-sol-artifact-1",
  "contractName": "ProviderBenqi",
  "sourceName": "contracts/fuji/providers/ProviderBenqi.sol",
  "abi": [
    {
      "inputs": [],
      "name": "AVAX",
      "outputs": [
        {
          "internalType": "address",
          "name": "",
          "type": "address"
        }
      ],
      "stateMutability": "view",
      "type": "function"
    },
    {
      "inputs": [],
      "name": "WAVAX",
      "outputs": [
        {
          "internalType": "address",
          "name": "",
          "type": "address"
        }
      ],
      "stateMutability": "view",
      "type": "function"
    },
    {
      "inputs": [
        {
          "internalType": "address",
          "name": "_asset",
          "type": "address"
        },
        {
          "internalType": "uint256",
          "name": "_amount",
          "type": "uint256"
        }
      ],
      "name": "borrow",
      "outputs": [],
      "stateMutability": "payable",
      "type": "function"
    },
    {
      "inputs": [
        {
          "internalType": "address",
          "name": "_asset",
          "type": "address"
        },
        {
          "internalType": "uint256",
          "name": "_amount",
          "type": "uint256"
        }
      ],
      "name": "deposit",
      "outputs": [],
      "stateMutability": "payable",
      "type": "function"
    },
    {
      "inputs": [
        {
          "internalType": "address",
          "name": "_asset",
          "type": "address"
        }
      ],
      "name": "getBorrowBalance",
      "outputs": [
        {
          "internalType": "uint256",
          "name": "",
          "type": "uint256"
        }
      ],
      "stateMutability": "view",
      "type": "function"
    },
    {
      "inputs": [
        {
          "internalType": "address",
          "name": "_asset",
          "type": "address"
        },
        {
          "internalType": "address",
          "name": "_who",
          "type": "address"
        }
      ],
      "name": "getBorrowBalanceOf",
      "outputs": [
        {
          "internalType": "uint256",
          "name": "",
          "type": "uint256"
        }
      ],
      "stateMutability": "nonpayable",
      "type": "function"
    },
    {
      "inputs": [
        {
          "internalType": "address",
          "name": "_asset",
          "type": "address"
        }
      ],
      "name": "getBorrowRateFor",
      "outputs": [
        {
          "internalType": "uint256",
          "name": "",
          "type": "uint256"
        }
      ],
      "stateMutability": "view",
      "type": "function"
    },
    {
      "inputs": [
        {
          "internalType": "address",
          "name": "_asset",
          "type": "address"
        }
      ],
      "name": "getDepositBalance",
      "outputs": [
        {
          "internalType": "uint256",
          "name": "",
          "type": "uint256"
        }
      ],
      "stateMutability": "view",
      "type": "function"
    },
    {
      "inputs": [
        {
          "internalType": "address",
          "name": "_asset",
          "type": "address"
        },
        {
          "internalType": "uint256",
          "name": "_amount",
          "type": "uint256"
        }
      ],
      "name": "payback",
      "outputs": [],
      "stateMutability": "payable",
      "type": "function"
    },
    {
      "inputs": [
        {
          "internalType": "address",
          "name": "_asset",
          "type": "address"
        },
        {
          "internalType": "uint256",
          "name": "_amount",
          "type": "uint256"
        }
      ],
      "name": "withdraw",
      "outputs": [],
      "stateMutability": "payable",
      "type": "function"
    }
  ],
  "bytecode": "0x608060405234801561001057600080fd5b50611a99806100206000396000f3fe6080604052600436106100b15760003560e01c80637d6af07911610069578063ed05ae781161004e578063ed05ae781461019f578063f17cca4a146101bf578063f3fef3a3146101df576100b1565b80637d6af07914610164578063b59f091e14610184576100b1565b80634b8a35291161009a5780634b8a3529146100de57806351724377146100f157806373b295c214610124576100b1565b806335ed8ab8146100b657806347e7ef24146100cb575b600080fd5b6100c96100c4366004611800565b6101f2565b005b6100c96100d9366004611800565b610493565b6100c96100ec366004611800565b610784565b3480156100fd57600080fd5b5061011161010c3660046117c8565b6109b8565b6040519081526020015b60405180910390f35b34801561013057600080fd5b5061014c73d00ae08403b9bbb9124bb305c09058e32c39a48c81565b6040516001600160a01b03909116815260200161011b565b34801561017057600080fd5b5061011161017f366004611790565b610aeb565b34801561019057600080fd5b5061014c6001600160a01b0381565b3480156101ab57600080fd5b506101116101ba366004611790565b610c18565b3480156101cb57600080fd5b506101116101da366004611790565b610dc5565b6100c96101ed366004611800565b610f0a565b6000731eede44b91750933c96d2125b6757c4f89e63e2060405163024a66cd60e11b81526001600160a01b0385811660048301529190911690630494cd9a9060240160206040518083038186803b15801561024c57600080fd5b505afa158015610260573d6000803e3d6000fd5b505050506040513d601f19601f8201168201806040525081019061028491906117ac565b905061028f83611081565b156103145773d00ae08403b9bbb9124bb305c09058e32c39a48c6001600160a01b031663d0e30db0836040518263ffffffff1660e01b81526004016000604051808303818588803b1580156102e357600080fd5b505af11580156102f7573d6000803e3d6000fd5b505050505073d00ae08403b9bbb9124bb305c09058e32c39a48c92505b6040516370a0823160e01b81523060048201528390829084906001600160a01b038416906370a082319060240160206040518083038186803b15801561035957600080fd5b505afa15801561036d573d6000803e3d6000fd5b505050506040513d601f19601f82011682018060405250810190610391919061190a565b10156103e45760405162461bcd60e51b815260206004820152601060248201527f4e6f742d656e6f7567682d746f6b656e0000000000000000000000000000000060448201526064015b60405180910390fd5b6103f86001600160a01b03831684866110a7565b6040517f0e752702000000000000000000000000000000000000000000000000000000008152600481018590526001600160a01b03821690630e75270290602401602060405180830381600087803b15801561045357600080fd5b505af1158015610467573d6000803e3d6000fd5b505050506040513d601f19601f8201168201806040525081019061048b919061190a565b505050505050565b6000731eede44b91750933c96d2125b6757c4f89e63e2060405163024a66cd60e11b81526001600160a01b0385811660048301529190911690630494cd9a9060240160206040518083038186803b1580156104ed57600080fd5b505afa158015610501573d6000803e3d6000fd5b505050506040513d601f19601f8201168201806040525081019061052591906117ac565b9050610530816111dd565b61053983611081565b156105be5773d00ae08403b9bbb9124bb305c09058e32c39a48c6001600160a01b031663d0e30db0836040518263ffffffff1660e01b81526004016000604051808303818588803b15801561058d57600080fd5b505af11580156105a1573d6000803e3d6000fd5b505050505073d00ae08403b9bbb9124bb305c09058e32c39a48c92505b6040516370a0823160e01b81523060048201528390829084906001600160a01b038416906370a082319060240160206040518083038186803b15801561060357600080fd5b505afa158015610617573d6000803e3d6000fd5b505050506040513d601f19601f8201168201806040525081019061063b919061190a565b10156106895760405162461bcd60e51b815260206004820152601260248201527f4e6f7420656e6f7567682042616c616e6365000000000000000000000000000060448201526064016103db565b61069d6001600160a01b03831684866110a7565b6040517fa0712d68000000000000000000000000000000000000000000000000000000008152600481018590526001600160a01b0382169063a0712d6890602401602060405180830381600087803b1580156106f857600080fd5b505af115801561070c573d6000803e3d6000fd5b505050506040513d601f19601f82011682018060405250810190610730919061190a565b1561077d5760405162461bcd60e51b815260206004820152600e60248201527f4465706f7369742d6661696c656400000000000000000000000000000000000060448201526064016103db565b5050505050565b6000731eede44b91750933c96d2125b6757c4f89e63e2060405163024a66cd60e11b81526001600160a01b0385811660048301529190911690630494cd9a9060240160206040518083038186803b1580156107de57600080fd5b505afa1580156107f2573d6000803e3d6000fd5b505050506040513d601f19601f8201168201806040525081019061081691906117ac565b6040517fc5ebeaec0000000000000000000000000000000000000000000000000000000081526004810184905290915081906001600160a01b0382169063c5ebeaec90602401602060405180830381600087803b15801561087657600080fd5b505af115801561088a573d6000803e3d6000fd5b505050506040513d601f19601f820116820180604052508101906108ae919061190a565b156108fb5760405162461bcd60e51b815260206004820152600d60248201527f626f72726f772d6661696c65640000000000000000000000000000000000000060448201526064016103db565b61090484611081565b156109b25773ee94a39d185329d8c46dea726e01f91641e5734661093d73d00ae08403b9bbb9124bb305c09058e32c39a48c82866112e2565b6040517f2e1a7d4d000000000000000000000000000000000000000000000000000000008152600481018590526001600160a01b03821690632e1a7d4d90602401600060405180830381600087803b15801561099857600080fd5b505af11580156109ac573d6000803e3d6000fd5b50505050505b50505050565b600080731eede44b91750933c96d2125b6757c4f89e63e2060405163024a66cd60e11b81526001600160a01b0386811660048301529190911690630494cd9a9060240160206040518083038186803b158015610a1357600080fd5b505afa158015610a27573d6000803e3d6000fd5b505050506040513d601f19601f82011682018060405250810190610a4b91906117ac565b6040517f17bfdfbc0000000000000000000000000000000000000000000000000000000081526001600160a01b038581166004830152919250908216906317bfdfbc90602401602060405180830381600087803b158015610aab57600080fd5b505af1158015610abf573d6000803e3d6000fd5b505050506040513d601f19601f82011682018060405250810190610ae3919061190a565b949350505050565b600080731eede44b91750933c96d2125b6757c4f89e63e2060405163024a66cd60e11b81526001600160a01b0385811660048301529190911690630494cd9a9060240160206040518083038186803b158015610b4657600080fd5b505afa158015610b5a573d6000803e3d6000fd5b505050506040513d601f19601f82011682018060405250810190610b7e91906117ac565b6040517f95dd91930000000000000000000000000000000000000000000000000000000081523360048201529091506001600160a01b038216906395dd91939060240160206040518083038186803b158015610bd957600080fd5b505afa158015610bed573d6000803e3d6000fd5b505050506040513d601f19601f82011682018060405250810190610c11919061190a565b9392505050565b600080731eede44b91750933c96d2125b6757c4f89e63e2060405163024a66cd60e11b81526001600160a01b0385811660048301529190911690630494cd9a9060240160206040518083038186803b158015610c7357600080fd5b505afa158015610c87573d6000803e3d6000fd5b505050506040513d601f19601f82011682018060405250810190610cab91906117ac565b6040516370a0823160e01b81523360048201529091506000906001600160a01b038316906370a082319060240160206040518083038186803b158015610cf057600080fd5b505afa158015610d04573d6000803e3d6000fd5b505050506040513d601f19601f82011682018060405250810190610d28919061190a565b90506000826001600160a01b031663182df0f56040518163ffffffff1660e01b815260040160206040518083038186803b158015610d6557600080fd5b505afa158015610d79573d6000803e3d6000fd5b505050506040513d601f19601f82011682018060405250810190610d9d919061190a565b9050670de0b6b3a7640000610db283836119de565b610dbc91906119be565b95945050505050565b600080731eede44b91750933c96d2125b6757c4f89e63e2060405163024a66cd60e11b81526001600160a01b0385811660048301529190911690630494cd9a9060240160206040518083038186803b158015610e2057600080fd5b505afa158015610e34573d6000803e3d6000fd5b505050506040513d601f19601f82011682018060405250810190610e5891906117ac565b90506000816001600160a01b031663f8f9da286040518163ffffffff1660e01b815260040160206040518083038186803b158015610e9557600080fd5b505afa158015610ea9573d6000803e3d6000fd5b505050506040513d601f19601f82011682018060405250810190610ecd919061190a565b610edb90633b9aca006119de565b9050610ee881603c6119de565b610ef390603c6119de565b610efe9060186119de565b610ae39061016d6119de565b6000731eede44b91750933c96d2125b6757c4f89e63e2060405163024a66cd60e11b81526001600160a01b0385811660048301529190911690630494cd9a9060240160206040518083038186803b158015610f6457600080fd5b505afa158015610f78573d6000803e3d6000fd5b505050506040513d601f19601f82011682018060405250810190610f9c91906117ac565b6040517f852a12e30000000000000000000000000000000000000000000000000000000081526004810184905290915081906001600160a01b0382169063852a12e390602401602060405180830381600087803b158015610ffc57600080fd5b505af1158015611010573d6000803e3d6000fd5b505050506040513d601f19601f82011682018060405250810190611034919061190a565b156108fb5760405162461bcd60e51b815260206004820152600f60248201527f57697468647261772d6661696c6564000000000000000000000000000000000060448201526064016103db565b60006001600160a01b03821615806110a157506001600160a01b03828116145b92915050565b6110b083611081565b156110fd5760405162461bcd60e51b815260206004820152601660248201527f417070726f76652063616c6c6564206f6e20415641580000000000000000000060448201526064016103db565b8061111c576111176001600160a01b0384168360006113b3565b6111d8565b604051636eb1769f60e11b81523060048201526001600160a01b0383811660248301526000919085169063dd62ed3e9060440160206040518083038186803b15801561116757600080fd5b505afa15801561117b573d6000803e3d6000fd5b505050506040513d601f19601f8201168201806040525081019061119f919061190a565b9050818110156109b25780156111c4576111c46001600160a01b0385168460006113b3565b6109b26001600160a01b03851684846113b3565b505050565b604080516001808252818301909252730fec306943ec9766c1da78c1e1b18c7ff23fe09e916000919060208083019080368337019050509050828160008151811061123857634e487b7160e01b600052603260045260246000fd5b6001600160a01b0392831660209182029290920101526040517fc29982380000000000000000000000000000000000000000000000000000000081529083169063c29982389061128c90849060040161193e565b600060405180830381600087803b1580156112a657600080fd5b505af11580156112ba573d6000803e3d6000fd5b505050506040513d6000823e601f3d908101601f191682016040526109b2919081019061182b565b80156111d8576112f183611081565b1561139f576000826001600160a01b03168260405160006040518083038185875af1925050503d8060008114611343576040519150601f19603f3d011682016040523d82523d6000602084013e611348565b606091505b50509050806113995760405162461bcd60e51b815260206004820152601360248201527f4661696c656420746f2073656e6420415641580000000000000000000000000060448201526064016103db565b506111d8565b6111d86001600160a01b0384168383611557565b80158061143c5750604051636eb1769f60e11b81523060048201526001600160a01b03838116602483015284169063dd62ed3e9060440160206040518083038186803b15801561140257600080fd5b505afa158015611416573d6000803e3d6000fd5b505050506040513d601f19601f8201168201806040525081019061143a919061190a565b155b6114ae5760405162461bcd60e51b815260206004820152603660248201527f5361666545524332303a20617070726f76652066726f6d206e6f6e2d7a65726f60448201527f20746f206e6f6e2d7a65726f20616c6c6f77616e63650000000000000000000060648201526084016103db565b6040516001600160a01b0383166024820152604481018290526111d89084907f095ea7b300000000000000000000000000000000000000000000000000000000906064015b60408051601f198184030181529190526020810180517bffffffffffffffffffffffffffffffffffffffffffffffffffffffff167fffffffff00000000000000000000000000000000000000000000000000000000909316929092179091526115a0565b6040516001600160a01b0383166024820152604481018290526111d89084907fa9059cbb00000000000000000000000000000000000000000000000000000000906064016114f3565b60006115f5826040518060400160405280602081526020017f5361666545524332303a206c6f772d6c6576656c2063616c6c206661696c6564815250856001600160a01b03166116859092919063ffffffff16565b8051909150156111d8578080602001905181019061161391906118ea565b6111d85760405162461bcd60e51b815260206004820152602a60248201527f5361666545524332303a204552433230206f7065726174696f6e20646964206e60448201527f6f7420737563636565640000000000000000000000000000000000000000000060648201526084016103db565b6060610ae3848460008585843b6116de5760405162461bcd60e51b815260206004820152601d60248201527f416464726573733a2063616c6c20746f206e6f6e2d636f6e747261637400000060448201526064016103db565b600080866001600160a01b031685876040516116fa9190611922565b60006040518083038185875af1925050503d8060008114611737576040519150601f19603f3d011682016040523d82523d6000602084013e61173c565b606091505b509150915061174c828286611757565b979650505050505050565b60608315611766575081610c11565b8251156117765782518084602001fd5b8160405162461bcd60e51b81526004016103db919061198b565b6000602082840312156117a1578081fd5b8135610c1181611a4b565b6000602082840312156117bd578081fd5b8151610c1181611a4b565b600080604083850312156117da578081fd5b82356117e581611a4b565b915060208301356117f581611a4b565b809150509250929050565b60008060408385031215611812578182fd5b823561181d81611a4b565b946020939093013593505050565b6000602080838503121561183d578182fd5b825167ffffffffffffffff80821115611854578384fd5b818501915085601f830112611867578384fd5b81518181111561187957611879611a35565b838102604051601f19603f8301168101818110858211171561189d5761189d611a35565b604052828152858101935084860182860187018a10156118bb578788fd5b8795505b838610156118dd5780518552600195909501949386019386016118bf565b5098975050505050505050565b6000602082840312156118fb578081fd5b81518015158114610c11578182fd5b60006020828403121561191b578081fd5b5051919050565b60008251611934818460208701611a09565b9190910192915050565b6020808252825182820181905260009190848201906040850190845b8181101561197f5783516001600160a01b03168352928401929184019160010161195a565b50909695505050505050565b60006020825282518060208401526119aa816040850160208701611a09565b601f01601f19169190910160400192915050565b6000826119d957634e487b7160e01b81526012600452602481fd5b500490565b6000816000190483118215151615611a0457634e487b7160e01b81526011600452602481fd5b500290565b60005b83811015611a24578181015183820152602001611a0c565b838111156109b25750506000910152565b634e487b7160e01b600052604160045260246000fd5b6001600160a01b0381168114611a6057600080fd5b5056fea2646970667358221220461ffc7d78feca9a1dd593813441d219831660aaba33e19840ed5dbbf496d0df64736f6c63430008020033",
  "linkReferences": {},
  "deployedLinkReferences": {}
}