{
  "_format": "hh-sol-artifact-1",
  "contractName": "ProviderAAVEAVAX",
  "sourceName": "contracts/fuji/providers/ProviderAAVEAVAX.sol",
  "abi": [
    {
      "inputs": [
        {
          "internalType": "address",
          "name": "_asset",
          "type": "address"
        },
        {
          "internalType": "uint256",
          "name": "_amount",
          "type": "uint256"
        }
      ],
      "name": "borrow",
      "outputs": [],
      "stateMutability": "payable",
      "type": "function"
    },
    {
      "inputs": [
        {
          "internalType": "address",
          "name": "_asset",
          "type": "address"
        },
        {
          "internalType": "uint256",
          "name": "_amount",
          "type": "uint256"
        }
      ],
      "name": "deposit",
      "outputs": [],
      "stateMutability": "payable",
      "type": "function"
    },
    {
      "inputs": [
        {
          "internalType": "address",
          "name": "_asset",
          "type": "address"
        }
      ],
      "name": "getBorrowBalance",
      "outputs": [
        {
          "internalType": "uint256",
          "name": "",
          "type": "uint256"
        }
      ],
      "stateMutability": "view",
      "type": "function"
    },
    {
      "inputs": [
        {
          "internalType": "address",
          "name": "_asset",
          "type": "address"
        },
        {
          "internalType": "address",
          "name": "_who",
          "type": "address"
        }
      ],
      "name": "getBorrowBalanceOf",
      "outputs": [
        {
          "internalType": "uint256",
          "name": "",
          "type": "uint256"
        }
      ],
      "stateMutability": "view",
      "type": "function"
    },
    {
      "inputs": [
        {
          "internalType": "address",
          "name": "_asset",
          "type": "address"
        }
      ],
      "name": "getBorrowRateFor",
      "outputs": [
        {
          "internalType": "uint256",
          "name": "",
          "type": "uint256"
        }
      ],
      "stateMutability": "view",
      "type": "function"
    },
    {
      "inputs": [
        {
          "internalType": "address",
          "name": "_asset",
          "type": "address"
        }
      ],
      "name": "getDepositBalance",
      "outputs": [
        {
          "internalType": "uint256",
          "name": "",
          "type": "uint256"
        }
      ],
      "stateMutability": "view",
      "type": "function"
    },
    {
      "inputs": [
        {
          "internalType": "address",
          "name": "_asset",
          "type": "address"
        },
        {
          "internalType": "uint256",
          "name": "_amount",
          "type": "uint256"
        }
      ],
      "name": "payback",
      "outputs": [],
      "stateMutability": "payable",
      "type": "function"
    },
    {
      "inputs": [
        {
          "internalType": "address",
          "name": "_asset",
          "type": "address"
        },
        {
          "internalType": "uint256",
          "name": "_amount",
          "type": "uint256"
        }
      ],
      "name": "withdraw",
      "outputs": [],
      "stateMutability": "payable",
      "type": "function"
    }
  ],
  "bytecode": "0x608060405234801561001057600080fd5b506114ec806100206000396000f3fe60806040526004361061007b5760003560e01c80637d6af0791161004e5780637d6af079146100ed578063ed05ae781461010d578063f17cca4a1461012d578063f3fef3a31461014d5761007b565b806335ed8ab81461008057806347e7ef24146100955780634b8a3529146100a857806351724377146100bb575b600080fd5b61009361008e3660046112d6565b610160565b005b6100936100a33660046112d6565b610319565b6100936100b63660046112d6565b610518565b3480156100c757600080fd5b506100db6100d636600461129e565b61070f565b60405190815260200160405180910390f35b3480156100f957600080fd5b506100db610108366004611266565b6107f0565b34801561011957600080fd5b506100db610128366004611266565b6108d0565b34801561013957600080fd5b506100db610148366004611266565b6109ae565b61009361015b3660046112d6565b610a9a565b6000737fdc1fdf79be3309bf82f4abdad9f111a6590c0f6001600160a01b0316630261bf8b6040518163ffffffff1660e01b815260040160206040518083038186803b1580156101af57600080fd5b505afa1580156101c3573d6000803e3d6000fd5b505050506040513d601f19601f820116820180604052508101906101e79190611282565b90506001600160a01b03838116146000816102025784610218565b73d00ae08403b9bbb9124bb305c09058e32c39a48c5b9050811561027557806001600160a01b031663d0e30db0856040518263ffffffff1660e01b81526004016000604051808303818588803b15801561025b57600080fd5b505af115801561026f573d6000803e3d6000fd5b50505050505b6102896001600160a01b0382168486610baa565b6040517f573ade810000000000000000000000000000000000000000000000000000000081526001600160a01b038281166004830152602482018690526002604483015230606483015284169063573ade81906084015b600060405180830381600087803b1580156102fa57600080fd5b505af115801561030e573d6000803e3d6000fd5b505050505050505050565b6000737fdc1fdf79be3309bf82f4abdad9f111a6590c0f6001600160a01b0316630261bf8b6040518163ffffffff1660e01b815260040160206040518083038186803b15801561036857600080fd5b505afa15801561037c573d6000803e3d6000fd5b505050506040513d601f19601f820116820180604052508101906103a09190611282565b90506001600160a01b03838116146000816103bb57846103d1565b73d00ae08403b9bbb9124bb305c09058e32c39a48c5b9050811561042e57806001600160a01b031663d0e30db0856040518263ffffffff1660e01b81526004016000604051808303818588803b15801561041457600080fd5b505af1158015610428573d6000803e3d6000fd5b50505050505b6104426001600160a01b0382168486610baa565b6040517fe8eda9df0000000000000000000000000000000000000000000000000000000081526001600160a01b038281166004830152602482018690523060448301526000606483015284169063e8eda9df90608401600060405180830381600087803b1580156104b257600080fd5b505af11580156104c6573d6000803e3d6000fd5b50506040517f5a3b74b90000000000000000000000000000000000000000000000000000000081526001600160a01b0384811660048301526001602483015286169250635a3b74b991506044016102e0565b6000737fdc1fdf79be3309bf82f4abdad9f111a6590c0f6001600160a01b0316630261bf8b6040518163ffffffff1660e01b815260040160206040518083038186803b15801561056757600080fd5b505afa15801561057b573d6000803e3d6000fd5b505050506040513d601f19601f8201168201806040525081019061059f9190611282565b90506001600160a01b03838116146000816105ba57846105d0565b73d00ae08403b9bbb9124bb305c09058e32c39a48c5b6040517fa415bcad0000000000000000000000000000000000000000000000000000000081526001600160a01b0380831660048301526024820187905260026044830152600060648301523060848301529192509084169063a415bcad9060a4015b600060405180830381600087803b15801561064c57600080fd5b505af1158015610660573d6000803e3d6000fd5b5050505081156107085773ee94a39d185329d8c46dea726e01f91641e573466106936001600160a01b0383168287610ce7565b6040517f2e1a7d4d000000000000000000000000000000000000000000000000000000008152600481018690526001600160a01b03821690632e1a7d4d90602401600060405180830381600087803b1580156106ee57600080fd5b505af1158015610702573d6000803e3d6000fd5b50505050505b5050505050565b6000730668ede013c1c475724523409b8b6be6334695856001600160a01b0384811614828161073e5785610754565b73d00ae08403b9bbb9124bb305c09058e32c39a48c5b6040516328dd2d0160e01b81526001600160a01b03808316600483015287811660248301529192506000918516906328dd2d01906044016101206040518083038186803b1580156107a457600080fd5b505afa1580156107b8573d6000803e3d6000fd5b505050506040513d601f19601f820116820180604052508101906107dc91906113ad565b50949e9d5050505050505050505050505050565b6000730668ede013c1c475724523409b8b6be6334695856001600160a01b0383811614828161081f5784610835565b73d00ae08403b9bbb9124bb305c09058e32c39a48c5b6040516328dd2d0160e01b81526001600160a01b0380831660048301523360248301529192506000918516906328dd2d01906044016101206040518083038186803b15801561088357600080fd5b505afa158015610897573d6000803e3d6000fd5b505050506040513d601f19601f820116820180604052508101906108bb91906113ad565b50949b5050505050505050505050505b919050565b6000730668ede013c1c475724523409b8b6be6334695856001600160a01b038381161482816108ff5784610915565b73d00ae08403b9bbb9124bb305c09058e32c39a48c5b6040516328dd2d0160e01b81526001600160a01b0380831660048301523360248301529192506000918516906328dd2d01906044016101206040518083038186803b15801561096357600080fd5b505afa158015610977573d6000803e3d6000fd5b505050506040513d601f19601f8201168201806040525081019061099b91906113ad565b50969d9c50505050505050505050505050565b6000730668ede013c1c475724523409b8b6be63346958581816335ea6a756001600160a01b03868116146109e257856109f8565b73d00ae08403b9bbb9124bb305c09058e32c39a48c5b6040517fffffffff0000000000000000000000000000000000000000000000000000000060e084901b1681526001600160a01b0390911660048201526024016101406040518083038186803b158015610a5057600080fd5b505afa158015610a64573d6000803e3d6000fd5b505050506040513d601f19601f82011682018060405250810190610a889190611333565b50939c9b505050505050505050505050565b6000737fdc1fdf79be3309bf82f4abdad9f111a6590c0f6001600160a01b0316630261bf8b6040518163ffffffff1660e01b815260040160206040518083038186803b158015610ae957600080fd5b505afa158015610afd573d6000803e3d6000fd5b505050506040513d601f19601f82011682018060405250810190610b219190611282565b90506001600160a01b0383811614600081610b3c5784610b52565b73d00ae08403b9bbb9124bb305c09058e32c39a48c5b6040517f69328dec0000000000000000000000000000000000000000000000000000000081526001600160a01b03808316600483015260248201879052306044830152919250908416906369328dec90606401610632565b610bb383610db8565b15610c055760405162461bcd60e51b815260206004820152601660248201527f417070726f76652063616c6c6564206f6e20415641580000000000000000000060448201526064015b60405180910390fd5b80610c2457610c1f6001600160a01b038416836000610dde565b610ce2565b604051636eb1769f60e11b81523060048201526001600160a01b0383811660248301526000919085169063dd62ed3e9060440160206040518083038186803b158015610c6f57600080fd5b505afa158015610c83573d6000803e3d6000fd5b505050506040513d601f19601f82011682018060405250810190610ca7919061131b565b905081811015610ce0578015610ccc57610ccc6001600160a01b038516846000610dde565b610ce06001600160a01b0385168484610dde565b505b505050565b8015610ce257610cf683610db8565b15610da4576000826001600160a01b03168260405160006040518083038185875af1925050503d8060008114610d48576040519150601f19603f3d011682016040523d82523d6000602084013e610d4d565b606091505b5050905080610d9e5760405162461bcd60e51b815260206004820152601360248201527f4661696c656420746f2073656e642041564158000000000000000000000000006044820152606401610bfc565b50610ce2565b610ce26001600160a01b0384168383610f82565b60006001600160a01b0382161580610dd857506001600160a01b03828116145b92915050565b801580610e675750604051636eb1769f60e11b81523060048201526001600160a01b03838116602483015284169063dd62ed3e9060440160206040518083038186803b158015610e2d57600080fd5b505afa158015610e41573d6000803e3d6000fd5b505050506040513d601f19601f82011682018060405250810190610e65919061131b565b155b610ed95760405162461bcd60e51b815260206004820152603660248201527f5361666545524332303a20617070726f76652066726f6d206e6f6e2d7a65726f60448201527f20746f206e6f6e2d7a65726f20616c6c6f77616e6365000000000000000000006064820152608401610bfc565b6040516001600160a01b038316602482015260448101829052610ce29084907f095ea7b300000000000000000000000000000000000000000000000000000000906064015b60408051601f198184030181529190526020810180517bffffffffffffffffffffffffffffffffffffffffffffffffffffffff167fffffffff0000000000000000000000000000000000000000000000000000000090931692909217909152610fcb565b6040516001600160a01b038316602482015260448101829052610ce29084907fa9059cbb0000000000000000000000000000000000000000000000000000000090606401610f1e565b6000611020826040518060400160405280602081526020017f5361666545524332303a206c6f772d6c6576656c2063616c6c206661696c6564815250856001600160a01b03166110b09092919063ffffffff16565b805190915015610ce2578080602001905181019061103e9190611301565b610ce25760405162461bcd60e51b815260206004820152602a60248201527f5361666545524332303a204552433230206f7065726174696f6e20646964206e60448201527f6f742073756363656564000000000000000000000000000000000000000000006064820152608401610bfc565b60606110bf84846000856110c9565b90505b9392505050565b6060824710156111415760405162461bcd60e51b815260206004820152602660248201527f416464726573733a20696e73756666696369656e742062616c616e636520666f60448201527f722063616c6c00000000000000000000000000000000000000000000000000006064820152608401610bfc565b843b61118f5760405162461bcd60e51b815260206004820152601d60248201527f416464726573733a2063616c6c20746f206e6f6e2d636f6e74726163740000006044820152606401610bfc565b600080866001600160a01b031685876040516111ab9190611423565b60006040518083038185875af1925050503d80600081146111e8576040519150601f19603f3d011682016040523d82523d6000602084013e6111ed565b606091505b50915091506111fd828286611208565b979650505050505050565b606083156112175750816110c2565b8251156112275782518084602001fd5b8160405162461bcd60e51b8152600401610bfc919061143f565b805180151581146108cb57600080fd5b805164ffffffffff811681146108cb57600080fd5b600060208284031215611277578081fd5b81356110c28161149e565b600060208284031215611293578081fd5b81516110c28161149e565b600080604083850312156112b0578081fd5b82356112bb8161149e565b915060208301356112cb8161149e565b809150509250929050565b600080604083850312156112e8578182fd5b82356112f38161149e565b946020939093013593505050565b600060208284031215611312578081fd5b6110c282611241565b60006020828403121561132c578081fd5b5051919050565b6000806000806000806000806000806101408b8d031215611352578586fd5b8a51995060208b0151985060408b0151975060608b0151965060808b0151955060a08b0151945060c08b0151935060e08b015192506101008b0151915061139c6101208c01611251565b90509295989b9194979a5092959850565b60008060008060008060008060006101208a8c0312156113cb578485fd5b8951985060208a0151975060408a0151965060608a0151955060808a0151945060a08a0151935060c08a0151925061140560e08b01611251565b91506114146101008b01611241565b90509295985092959850929598565b60008251611435818460208701611472565b9190910192915050565b600060208252825180602084015261145e816040850160208701611472565b601f01601f19169190910160400192915050565b60005b8381101561148d578181015183820152602001611475565b83811115610ce05750506000910152565b6001600160a01b03811681146114b357600080fd5b5056fea264697066735822122042316c8bc4ea14371ac5c82211a5e60951aa68660ad6e30fded9c1b88391a27e64736f6c63430008020033",
  "linkReferences": {},
  "deployedLinkReferences": {}
}